{
  "_format": "hh-sol-artifact-1",
  "contractName": "CryptoPlants",
  "sourceName": "contracts/CryptoPlants.sol",
  "abi": [
    {
      "inputs": [],
      "stateMutability": "nonpayable",
      "type": "constructor"
    },
    {
      "anonymous": false,
      "inputs": [
        {
          "indexed": true,
          "internalType": "address",
          "name": "owner",
          "type": "address"
        },
        {
          "indexed": true,
          "internalType": "address",
          "name": "approved",
          "type": "address"
        },
        {
          "indexed": true,
          "internalType": "uint256",
          "name": "tokenId",
          "type": "uint256"
        }
      ],
      "name": "Approval",
      "type": "event"
    },
    {
      "anonymous": false,
      "inputs": [
        {
          "indexed": true,
          "internalType": "address",
          "name": "owner",
          "type": "address"
        },
        {
          "indexed": true,
          "internalType": "address",
          "name": "operator",
          "type": "address"
        },
        {
          "indexed": false,
          "internalType": "bool",
          "name": "approved",
          "type": "bool"
        }
      ],
      "name": "ApprovalForAll",
      "type": "event"
    },
    {
      "anonymous": false,
      "inputs": [
        {
          "indexed": false,
          "internalType": "string",
          "name": "name",
          "type": "string"
        },
        {
          "indexed": false,
          "internalType": "address",
          "name": "farmer",
          "type": "address"
        },
        {
          "indexed": false,
          "internalType": "uint256",
          "name": "dna",
          "type": "uint256"
        }
      ],
      "name": "NewPlant",
      "type": "event"
    },
    {
      "anonymous": false,
      "inputs": [
        {
          "indexed": true,
          "internalType": "address",
          "name": "from",
          "type": "address"
        },
        {
          "indexed": true,
          "internalType": "address",
          "name": "to",
          "type": "address"
        },
        {
          "indexed": true,
          "internalType": "uint256",
          "name": "tokenId",
          "type": "uint256"
        }
      ],
      "name": "Transfer",
      "type": "event"
    },
    {
      "inputs": [
        {
          "internalType": "address",
          "name": "to",
          "type": "address"
        },
        {
          "internalType": "uint256",
          "name": "tokenId",
          "type": "uint256"
        }
      ],
      "name": "approve",
      "outputs": [],
      "stateMutability": "nonpayable",
      "type": "function"
    },
    {
      "inputs": [
        {
          "internalType": "address",
          "name": "owner",
          "type": "address"
        }
      ],
      "name": "balanceOf",
      "outputs": [
        {
          "internalType": "uint256",
          "name": "",
          "type": "uint256"
        }
      ],
      "stateMutability": "view",
      "type": "function"
    },
    {
      "inputs": [
        {
          "internalType": "string",
          "name": "_name",
          "type": "string"
        }
      ],
      "name": "createRandomPlant",
      "outputs": [],
      "stateMutability": "nonpayable",
      "type": "function"
    },
    {
      "inputs": [
        {
          "internalType": "uint256",
          "name": "tokenId",
          "type": "uint256"
        }
      ],
      "name": "getApproved",
      "outputs": [
        {
          "internalType": "address",
          "name": "",
          "type": "address"
        }
      ],
      "stateMutability": "view",
      "type": "function"
    },
    {
      "inputs": [],
      "name": "getPlants",
      "outputs": [
        {
          "components": [
            {
              "internalType": "string",
              "name": "name",
              "type": "string"
            },
            {
              "internalType": "address",
              "name": "farmer",
              "type": "address"
            },
            {
              "internalType": "uint16",
              "name": "dna",
              "type": "uint16"
            },
            {
              "internalType": "uint16",
              "name": "size",
              "type": "uint16"
            },
            {
              "internalType": "uint32",
              "name": "nextGrowTime",
              "type": "uint32"
            }
          ],
          "internalType": "struct CryptoPlants.PlantStruct[]",
          "name": "",
          "type": "tuple[]"
        }
      ],
      "stateMutability": "view",
      "type": "function"
    },
    {
      "inputs": [
        {
          "internalType": "address",
          "name": "",
          "type": "address"
        }
      ],
      "name": "hasPlant",
      "outputs": [
        {
          "internalType": "bool",
          "name": "",
          "type": "bool"
        }
      ],
      "stateMutability": "view",
      "type": "function"
    },
    {
      "inputs": [
        {
          "internalType": "address",
          "name": "owner",
          "type": "address"
        },
        {
          "internalType": "address",
          "name": "operator",
          "type": "address"
        }
      ],
      "name": "isApprovedForAll",
      "outputs": [
        {
          "internalType": "bool",
          "name": "",
          "type": "bool"
        }
      ],
      "stateMutability": "view",
      "type": "function"
    },
    {
      "inputs": [],
      "name": "name",
      "outputs": [
        {
          "internalType": "string",
          "name": "",
          "type": "string"
        }
      ],
      "stateMutability": "view",
      "type": "function"
    },
    {
      "inputs": [
        {
          "internalType": "uint256",
          "name": "tokenId",
          "type": "uint256"
        }
      ],
      "name": "ownerOf",
      "outputs": [
        {
          "internalType": "address",
          "name": "",
          "type": "address"
        }
      ],
      "stateMutability": "view",
      "type": "function"
    },
    {
      "inputs": [
        {
          "internalType": "uint256",
          "name": "",
          "type": "uint256"
        }
      ],
      "name": "plantToFarmer",
      "outputs": [
        {
          "internalType": "address",
          "name": "",
          "type": "address"
        }
      ],
      "stateMutability": "view",
      "type": "function"
    },
    {
      "inputs": [
        {
          "internalType": "uint256",
          "name": "",
          "type": "uint256"
        }
      ],
      "name": "plants",
      "outputs": [
        {
          "internalType": "string",
          "name": "name",
          "type": "string"
        },
        {
          "internalType": "address",
          "name": "farmer",
          "type": "address"
        },
        {
          "internalType": "uint16",
          "name": "dna",
          "type": "uint16"
        },
        {
          "internalType": "uint16",
          "name": "size",
          "type": "uint16"
        },
        {
          "internalType": "uint32",
          "name": "nextGrowTime",
          "type": "uint32"
        }
      ],
      "stateMutability": "view",
      "type": "function"
    },
    {
      "inputs": [
        {
          "internalType": "address",
          "name": "from",
          "type": "address"
        },
        {
          "internalType": "address",
          "name": "to",
          "type": "address"
        },
        {
          "internalType": "uint256",
          "name": "tokenId",
          "type": "uint256"
        }
      ],
      "name": "safeTransferFrom",
      "outputs": [],
      "stateMutability": "nonpayable",
      "type": "function"
    },
    {
      "inputs": [
        {
          "internalType": "address",
          "name": "from",
          "type": "address"
        },
        {
          "internalType": "address",
          "name": "to",
          "type": "address"
        },
        {
          "internalType": "uint256",
          "name": "tokenId",
          "type": "uint256"
        },
        {
          "internalType": "bytes",
          "name": "_data",
          "type": "bytes"
        }
      ],
      "name": "safeTransferFrom",
      "outputs": [],
      "stateMutability": "nonpayable",
      "type": "function"
    },
    {
      "inputs": [
        {
          "internalType": "address",
          "name": "operator",
          "type": "address"
        },
        {
          "internalType": "bool",
          "name": "approved",
          "type": "bool"
        }
      ],
      "name": "setApprovalForAll",
      "outputs": [],
      "stateMutability": "nonpayable",
      "type": "function"
    },
    {
      "inputs": [
        {
          "internalType": "bytes4",
          "name": "interfaceId",
          "type": "bytes4"
        }
      ],
      "name": "supportsInterface",
      "outputs": [
        {
          "internalType": "bool",
          "name": "",
          "type": "bool"
        }
      ],
      "stateMutability": "view",
      "type": "function"
    },
    {
      "inputs": [],
      "name": "symbol",
      "outputs": [
        {
          "internalType": "string",
          "name": "",
          "type": "string"
        }
      ],
      "stateMutability": "view",
      "type": "function"
    },
    {
      "inputs": [
        {
          "internalType": "uint256",
          "name": "tokenId",
          "type": "uint256"
        }
      ],
      "name": "tokenURI",
      "outputs": [
        {
          "internalType": "string",
          "name": "",
          "type": "string"
        }
      ],
      "stateMutability": "view",
      "type": "function"
    },
    {
      "inputs": [
        {
          "internalType": "address",
          "name": "from",
          "type": "address"
        },
        {
          "internalType": "address",
          "name": "to",
          "type": "address"
        },
        {
          "internalType": "uint256",
          "name": "tokenId",
          "type": "uint256"
        }
      ],
      "name": "transferFrom",
      "outputs": [],
      "stateMutability": "nonpayable",
      "type": "function"
    }
  ],
  "bytecode": "0x60806040526010600660006101000a81548160ff021916908360ff160217905550600660009054906101000a900460ff16600a6200003e91906200061b565b600755610e106008553480156200005457600080fd5b506040518060400160405280600c81526020017f43727970746f506c616e747300000000000000000000000000000000000000008152506040518060400160405280600c81526020017f43727970746f506c616e747300000000000000000000000000000000000000008152508160009080519060200190620000d9929190620003d1565b508060019080519060200190620000f2929190620003d1565b5050506200013b6040518060400160405280601b81526020017f4c6574277320736565205061756c20416c6c656e2773206361726400000000008152506200014160201b60201c565b620009e1565b60011515600a60003373ffffffffffffffffffffffffffffffffffffffff1673ffffffffffffffffffffffffffffffffffffffff16815260200190815260200160002060009054906101000a900460ff1615151415620001a057600080fd5b6000620001b382620001ec60201b60201c565b60ff169050606481620001c79190620006a9565b81620001d49190620006e1565b9050620001e882826200023560201b60201c565b5050565b600080826040516020016200020291906200079f565b6040516020818303038152906040528051906020012060001c9050600754816200022d9190620007b8565b915050919050565b60096040518060a001604052808481526020013373ffffffffffffffffffffffffffffffffffffffff1681526020018361ffff168152602001600161ffff16815260200160085442620002899190620007f0565b63ffffffff1681525090806001815401808255809150506001900390600052602060002090600202016000909190919091506000820151816000019080519060200190620002d9929190620003d1565b5060208201518160010160006101000a81548173ffffffffffffffffffffffffffffffffffffffff021916908373ffffffffffffffffffffffffffffffffffffffff16021790555060408201518160010160146101000a81548161ffff021916908361ffff16021790555060608201518160010160166101000a81548161ffff021916908361ffff16021790555060808201518160010160186101000a81548163ffffffff021916908363ffffffff16021790555050507f310f3f25b129830ccb19e5855f5de239631fa808ce5f89ab57026c19822540cc823383604051620003c59392919062000938565b60405180910390a15050565b828054620003df90620009ab565b90600052602060002090601f0160209004810192826200040357600085556200044f565b82601f106200041e57805160ff19168380011785556200044f565b828001600101855582156200044f579182015b828111156200044e57825182559160200191906001019062000431565b5b5090506200045e919062000462565b5090565b5b808211156200047d57600081600090555060010162000463565b5090565b7f4e487b7100000000000000000000000000000000000000000000000000000000600052601160045260246000fd5b60008160011c9050919050565b6000808291508390505b60018511156200050f57808604811115620004e757620004e662000481565b5b6001851615620004f75780820291505b80810290506200050785620004b0565b9450620004c7565b94509492505050565b6000826200052a5760019050620005fd565b816200053a5760009050620005fd565b81600181146200055357600281146200055e5762000594565b6001915050620005fd565b60ff84111562000573576200057262000481565b5b8360020a9150848211156200058d576200058c62000481565b5b50620005fd565b5060208310610133831016604e8410600b8410161715620005ce5782820a905083811115620005c857620005c762000481565b5b620005fd565b620005dd8484846001620004bd565b92509050818404811115620005f757620005f662000481565b5b81810290505b9392505050565b6000819050919050565b600060ff82169050919050565b6000620006288262000604565b915062000635836200060e565b9250620006647fffffffffffffffffffffffffffffffffffffffffffffffffffffffffffffffff848462000518565b905092915050565b600061ffff82169050919050565b7f4e487b7100000000000000000000000000000000000000000000000000000000600052601260045260246000fd5b6000620006b6826200066c565b9150620006c3836200066c565b925082620006d657620006d56200067a565b5b828206905092915050565b6000620006ee826200066c565b9150620006fb836200066c565b92508282101562000711576200071062000481565b5b828203905092915050565b600081519050919050565b600081905092915050565b60005b838110156200075257808201518184015260208101905062000735565b8381111562000762576000848401525b50505050565b600062000775826200071c565b62000781818562000727565b93506200079381856020860162000732565b80840191505092915050565b6000620007ad828462000768565b915081905092915050565b6000620007c58262000604565b9150620007d28362000604565b925082620007e557620007e46200067a565b5b828206905092915050565b6000620007fd8262000604565b91506200080a8362000604565b9250827fffffffffffffffffffffffffffffffffffffffffffffffffffffffffffffffff0382111562000842576200084162000481565b5b828201905092915050565b600082825260208201905092915050565b6000601f19601f8301169050919050565b60006200087c826200071c565b6200088881856200084d565b93506200089a81856020860162000732565b620008a5816200085e565b840191505092915050565b600073ffffffffffffffffffffffffffffffffffffffff82169050919050565b6000620008dd82620008b0565b9050919050565b620008ef81620008d0565b82525050565b6000819050919050565b6000620009206200091a62000914846200066c565b620008f5565b62000604565b9050919050565b6200093281620008ff565b82525050565b600060608201905081810360008301526200095481866200086f565b9050620009656020830185620008e4565b62000974604083018462000927565b949350505050565b7f4e487b7100000000000000000000000000000000000000000000000000000000600052602260045260246000fd5b60006002820490506001821680620009c457607f821691505b60208210811415620009db57620009da6200097c565b5b50919050565b612f6980620009f16000396000f3fe608060405234801561001057600080fd5b50600436106101165760003560e01c806370a08231116100a2578063b88d4fde11610071578063b88d4fde14610307578063b90588d414610323578063c87b56dd14610353578063d8c6204114610383578063e985e9c5146103a157610116565b806370a08231146102695780638dd2361c1461029957806395d89b41146102cd578063a22cb465146102eb57610116565b8063095ea7b3116100e9578063095ea7b3146101c957806323b872dd146101e557806342842e0e146102015780636352211e1461021d5780636ff7c88d1461024d57610116565b806301ffc9a71461011b5780630528417a1461014b57806306fdde031461017b578063081812fc14610199575b600080fd5b61013560048036038101906101309190611b7e565b6103d1565b6040516101429190611bc6565b60405180910390f35b61016560048036038101906101609190611c3f565b6104b3565b6040516101729190611bc6565b60405180910390f35b6101836104d3565b6040516101909190611d05565b60405180910390f35b6101b360048036038101906101ae9190611d5d565b610565565b6040516101c09190611d99565b60405180910390f35b6101e360048036038101906101de9190611db4565b6105ea565b005b6101ff60048036038101906101fa9190611df4565b610702565b005b61021b60048036038101906102169190611df4565b610762565b005b61023760048036038101906102329190611d5d565b610782565b6040516102449190611d99565b60405180910390f35b61026760048036038101906102629190611f7c565b610834565b005b610283600480360381019061027e9190611c3f565b6108ca565b6040516102909190611fd4565b60405180910390f35b6102b360048036038101906102ae9190611d5d565b610982565b6040516102c495949392919061202b565b60405180910390f35b6102d5610a9c565b6040516102e29190611d05565b60405180910390f35b610305600480360381019061030091906120b1565b610b2e565b005b610321600480360381019061031c9190612192565b610b44565b005b61033d60048036038101906103389190611d5d565b610ba6565b60405161034a9190611d99565b60405180910390f35b61036d60048036038101906103689190611d5d565b610bd9565b60405161037a9190611d05565b60405180910390f35b61038b610c80565b60405161039891906123c4565b60405180910390f35b6103bb60048036038101906103b691906123e6565b610e3f565b6040516103c89190611bc6565b60405180910390f35b60007f80ac58cd000000000000000000000000000000000000000000000000000000007bffffffffffffffffffffffffffffffffffffffffffffffffffffffff1916827bffffffffffffffffffffffffffffffffffffffffffffffffffffffff1916148061049c57507f5b5e139f000000000000000000000000000000000000000000000000000000007bffffffffffffffffffffffffffffffffffffffffffffffffffffffff1916827bffffffffffffffffffffffffffffffffffffffffffffffffffffffff1916145b806104ac57506104ab82610ed3565b5b9050919050565b600a6020528060005260406000206000915054906101000a900460ff1681565b6060600080546104e290612455565b80601f016020809104026020016040519081016040528092919081815260200182805461050e90612455565b801561055b5780601f106105305761010080835404028352916020019161055b565b820191906000526020600020905b81548152906001019060200180831161053e57829003601f168201915b5050505050905090565b600061057082610f3d565b6105af576040517f08c379a00000000000000000000000000000000000000000000000000000000081526004016105a6906124f9565b60405180910390fd5b6004600083815260200190815260200160002060009054906101000a900473ffffffffffffffffffffffffffffffffffffffff169050919050565b60006105f582610782565b90508073ffffffffffffffffffffffffffffffffffffffff168373ffffffffffffffffffffffffffffffffffffffff161415610666576040517f08c379a000000000000000000000000000000000000000000000000000000000815260040161065d9061258b565b60405180910390fd5b8073ffffffffffffffffffffffffffffffffffffffff16610685610fa9565b73ffffffffffffffffffffffffffffffffffffffff1614806106b457506106b3816106ae610fa9565b610e3f565b5b6106f3576040517f08c379a00000000000000000000000000000000000000000000000000000000081526004016106ea9061261d565b60405180910390fd5b6106fd8383610fb1565b505050565b61071361070d610fa9565b8261106a565b610752576040517f08c379a0000000000000000000000000000000000000000000000000000000008152600401610749906126af565b60405180910390fd5b61075d838383611148565b505050565b61077d83838360405180602001604052806000815250610b44565b505050565b6000806002600084815260200190815260200160002060009054906101000a900473ffffffffffffffffffffffffffffffffffffffff169050600073ffffffffffffffffffffffffffffffffffffffff168173ffffffffffffffffffffffffffffffffffffffff16141561082b576040517f08c379a000000000000000000000000000000000000000000000000000000000815260040161082290612741565b60405180910390fd5b80915050919050565b60011515600a60003373ffffffffffffffffffffffffffffffffffffffff1673ffffffffffffffffffffffffffffffffffffffff16815260200190815260200160002060009054906101000a900460ff161515141561089257600080fd5b600061089d826113a4565b60ff1690506064816108af9190612790565b816108ba91906127f0565b90506108c682826113e9565b5050565b60008073ffffffffffffffffffffffffffffffffffffffff168273ffffffffffffffffffffffffffffffffffffffff16141561093b576040517f08c379a000000000000000000000000000000000000000000000000000000000815260040161093290612896565b60405180910390fd5b600360008373ffffffffffffffffffffffffffffffffffffffff1673ffffffffffffffffffffffffffffffffffffffff168152602001908152602001600020549050919050565b6009818154811061099257600080fd5b90600052602060002090600202016000915090508060000180546109b590612455565b80601f01602080910402602001604051908101604052809291908181526020018280546109e190612455565b8015610a2e5780601f10610a0357610100808354040283529160200191610a2e565b820191906000526020600020905b815481529060010190602001808311610a1157829003601f168201915b5050505050908060010160009054906101000a900473ffffffffffffffffffffffffffffffffffffffff16908060010160149054906101000a900461ffff16908060010160169054906101000a900461ffff16908060010160189054906101000a900463ffffffff16905085565b606060018054610aab90612455565b80601f0160208091040260200160405190810160405280929190818152602001828054610ad790612455565b8015610b245780601f10610af957610100808354040283529160200191610b24565b820191906000526020600020905b815481529060010190602001808311610b0757829003601f168201915b5050505050905090565b610b40610b39610fa9565b838361157f565b5050565b610b55610b4f610fa9565b8361106a565b610b94576040517f08c379a0000000000000000000000000000000000000000000000000000000008152600401610b8b906126af565b60405180910390fd5b610ba0848484846116ec565b50505050565b600b6020528060005260406000206000915054906101000a900473ffffffffffffffffffffffffffffffffffffffff1681565b6060610be482610f3d565b610c23576040517f08c379a0000000000000000000000000000000000000000000000000000000008152600401610c1a90612928565b60405180910390fd5b6000610c2d611748565b90506000815111610c4d5760405180602001604052806000815250610c78565b80610c578461175f565b604051602001610c68929190612984565b6040516020818303038152906040525b915050919050565b6060600060098054905011610c9457600080fd5b6009805480602002602001604051908101604052809291908181526020016000905b82821015610e3657838290600052602060002090600202016040518060a0016040529081600082018054610ce990612455565b80601f0160208091040260200160405190810160405280929190818152602001828054610d1590612455565b8015610d625780601f10610d3757610100808354040283529160200191610d62565b820191906000526020600020905b815481529060010190602001808311610d4557829003601f168201915b505050505081526020016001820160009054906101000a900473ffffffffffffffffffffffffffffffffffffffff1673ffffffffffffffffffffffffffffffffffffffff1673ffffffffffffffffffffffffffffffffffffffff1681526020016001820160149054906101000a900461ffff1661ffff1661ffff1681526020016001820160169054906101000a900461ffff1661ffff1661ffff1681526020016001820160189054906101000a900463ffffffff1663ffffffff1663ffffffff168152505081526020019060010190610cb6565b50505050905090565b6000600560008473ffffffffffffffffffffffffffffffffffffffff1673ffffffffffffffffffffffffffffffffffffffff16815260200190815260200160002060008373ffffffffffffffffffffffffffffffffffffffff1673ffffffffffffffffffffffffffffffffffffffff16815260200190815260200160002060009054906101000a900460ff16905092915050565b60007f01ffc9a7000000000000000000000000000000000000000000000000000000007bffffffffffffffffffffffffffffffffffffffffffffffffffffffff1916827bffffffffffffffffffffffffffffffffffffffffffffffffffffffff1916149050919050565b60008073ffffffffffffffffffffffffffffffffffffffff166002600084815260200190815260200160002060009054906101000a900473ffffffffffffffffffffffffffffffffffffffff1673ffffffffffffffffffffffffffffffffffffffff1614159050919050565b600033905090565b816004600083815260200190815260200160002060006101000a81548173ffffffffffffffffffffffffffffffffffffffff021916908373ffffffffffffffffffffffffffffffffffffffff160217905550808273ffffffffffffffffffffffffffffffffffffffff1661102483610782565b73ffffffffffffffffffffffffffffffffffffffff167f8c5be1e5ebec7d5bd14f71427d1e84f3dd0314c0f7b2291e5b200ac8c7c3b92560405160405180910390a45050565b600061107582610f3d565b6110b4576040517f08c379a00000000000000000000000000000000000000000000000000000000081526004016110ab90612a1a565b60405180910390fd5b60006110bf83610782565b90508073ffffffffffffffffffffffffffffffffffffffff168473ffffffffffffffffffffffffffffffffffffffff16148061112e57508373ffffffffffffffffffffffffffffffffffffffff1661111684610565565b73ffffffffffffffffffffffffffffffffffffffff16145b8061113f575061113e8185610e3f565b5b91505092915050565b8273ffffffffffffffffffffffffffffffffffffffff1661116882610782565b73ffffffffffffffffffffffffffffffffffffffff16146111be576040517f08c379a00000000000000000000000000000000000000000000000000000000081526004016111b590612aac565b60405180910390fd5b600073ffffffffffffffffffffffffffffffffffffffff168273ffffffffffffffffffffffffffffffffffffffff16141561122e576040517f08c379a000000000000000000000000000000000000000000000000000000000815260040161122590612b3e565b60405180910390fd5b6112398383836118c0565b611244600082610fb1565b6001600360008573ffffffffffffffffffffffffffffffffffffffff1673ffffffffffffffffffffffffffffffffffffffff16815260200190815260200160002060008282546112949190612b5e565b925050819055506001600360008473ffffffffffffffffffffffffffffffffffffffff1673ffffffffffffffffffffffffffffffffffffffff16815260200190815260200160002060008282546112eb9190612b92565b92505081905550816002600083815260200190815260200160002060006101000a81548173ffffffffffffffffffffffffffffffffffffffff021916908373ffffffffffffffffffffffffffffffffffffffff160217905550808273ffffffffffffffffffffffffffffffffffffffff168473ffffffffffffffffffffffffffffffffffffffff167fddf252ad1be2c89b69c2b068fc378daa952ba7f163c4a11628f55a4df523b3ef60405160405180910390a4505050565b600080826040516020016113b89190612be8565b6040516020818303038152906040528051906020012060001c9050600754816113e19190612bff565b915050919050565b60096040518060a001604052808481526020013373ffffffffffffffffffffffffffffffffffffffff1681526020018361ffff168152602001600161ffff1681526020016008544261143b9190612b92565b63ffffffff1681525090806001815401808255809150506001900390600052602060002090600202016000909190919091506000820151816000019080519060200190611489929190611a6f565b5060208201518160010160006101000a81548173ffffffffffffffffffffffffffffffffffffffff021916908373ffffffffffffffffffffffffffffffffffffffff16021790555060408201518160010160146101000a81548161ffff021916908361ffff16021790555060608201518160010160166101000a81548161ffff021916908361ffff16021790555060808201518160010160186101000a81548163ffffffff021916908363ffffffff16021790555050507f310f3f25b129830ccb19e5855f5de239631fa808ce5f89ab57026c19822540cc82338360405161157393929190612c6b565b60405180910390a15050565b8173ffffffffffffffffffffffffffffffffffffffff168373ffffffffffffffffffffffffffffffffffffffff1614156115ee576040517f08c379a00000000000000000000000000000000000000000000000000000000081526004016115e590612cf5565b60405180910390fd5b80600560008573ffffffffffffffffffffffffffffffffffffffff1673ffffffffffffffffffffffffffffffffffffffff16815260200190815260200160002060008473ffffffffffffffffffffffffffffffffffffffff1673ffffffffffffffffffffffffffffffffffffffff16815260200190815260200160002060006101000a81548160ff0219169083151502179055508173ffffffffffffffffffffffffffffffffffffffff168373ffffffffffffffffffffffffffffffffffffffff167f17307eab39ab6107e8899845ad3d59bd9653f200f220920489ca2b5937696c31836040516116df9190611bc6565b60405180910390a3505050565b6116f7848484611148565b611703848484846118c5565b611742576040517f08c379a000000000000000000000000000000000000000000000000000000000815260040161173990612d87565b60405180910390fd5b50505050565b606060405180602001604052806000815250905090565b606060008214156117a7576040518060400160405280600181526020017f300000000000000000000000000000000000000000000000000000000000000081525090506118bb565b600082905060005b600082146117d95780806117c290612da7565b915050600a826117d29190612df0565b91506117af565b60008167ffffffffffffffff8111156117f5576117f4611e51565b5b6040519080825280601f01601f1916602001820160405280156118275781602001600182028036833780820191505090505b5090505b600085146118b4576001826118409190612b5e565b9150600a8561184f9190612bff565b603061185b9190612b92565b60f81b81838151811061187157611870612e21565b5b60200101907effffffffffffffffffffffffffffffffffffffffffffffffffffffffffffff1916908160001a905350600a856118ad9190612df0565b945061182b565b8093505050505b919050565b505050565b60006118e68473ffffffffffffffffffffffffffffffffffffffff16611a5c565b15611a4f578373ffffffffffffffffffffffffffffffffffffffff1663150b7a0261190f610fa9565b8786866040518563ffffffff1660e01b81526004016119319493929190612ea5565b602060405180830381600087803b15801561194b57600080fd5b505af192505050801561197c57506040513d601f19601f820116820180604052508101906119799190612f06565b60015b6119ff573d80600081146119ac576040519150601f19603f3d011682016040523d82523d6000602084013e6119b1565b606091505b506000815114156119f7576040517f08c379a00000000000000000000000000000000000000000000000000000000081526004016119ee90612d87565b60405180910390fd5b805181602001fd5b63150b7a0260e01b7bffffffffffffffffffffffffffffffffffffffffffffffffffffffff1916817bffffffffffffffffffffffffffffffffffffffffffffffffffffffff191614915050611a54565b600190505b949350505050565b600080823b905060008111915050919050565b828054611a7b90612455565b90600052602060002090601f016020900481019282611a9d5760008555611ae4565b82601f10611ab657805160ff1916838001178555611ae4565b82800160010185558215611ae4579182015b82811115611ae3578251825591602001919060010190611ac8565b5b509050611af19190611af5565b5090565b5b80821115611b0e576000816000905550600101611af6565b5090565b6000604051905090565b600080fd5b600080fd5b60007fffffffff0000000000000000000000000000000000000000000000000000000082169050919050565b611b5b81611b26565b8114611b6657600080fd5b50565b600081359050611b7881611b52565b92915050565b600060208284031215611b9457611b93611b1c565b5b6000611ba284828501611b69565b91505092915050565b60008115159050919050565b611bc081611bab565b82525050565b6000602082019050611bdb6000830184611bb7565b92915050565b600073ffffffffffffffffffffffffffffffffffffffff82169050919050565b6000611c0c82611be1565b9050919050565b611c1c81611c01565b8114611c2757600080fd5b50565b600081359050611c3981611c13565b92915050565b600060208284031215611c5557611c54611b1c565b5b6000611c6384828501611c2a565b91505092915050565b600081519050919050565b600082825260208201905092915050565b60005b83811015611ca6578082015181840152602081019050611c8b565b83811115611cb5576000848401525b50505050565b6000601f19601f8301169050919050565b6000611cd782611c6c565b611ce18185611c77565b9350611cf1818560208601611c88565b611cfa81611cbb565b840191505092915050565b60006020820190508181036000830152611d1f8184611ccc565b905092915050565b6000819050919050565b611d3a81611d27565b8114611d4557600080fd5b50565b600081359050611d5781611d31565b92915050565b600060208284031215611d7357611d72611b1c565b5b6000611d8184828501611d48565b91505092915050565b611d9381611c01565b82525050565b6000602082019050611dae6000830184611d8a565b92915050565b60008060408385031215611dcb57611dca611b1c565b5b6000611dd985828601611c2a565b9250506020611dea85828601611d48565b9150509250929050565b600080600060608486031215611e0d57611e0c611b1c565b5b6000611e1b86828701611c2a565b9350506020611e2c86828701611c2a565b9250506040611e3d86828701611d48565b9150509250925092565b600080fd5b600080fd5b7f4e487b7100000000000000000000000000000000000000000000000000000000600052604160045260246000fd5b611e8982611cbb565b810181811067ffffffffffffffff82111715611ea857611ea7611e51565b5b80604052505050565b6000611ebb611b12565b9050611ec78282611e80565b919050565b600067ffffffffffffffff821115611ee757611ee6611e51565b5b611ef082611cbb565b9050602081019050919050565b82818337600083830152505050565b6000611f1f611f1a84611ecc565b611eb1565b905082815260208101848484011115611f3b57611f3a611e4c565b5b611f46848285611efd565b509392505050565b600082601f830112611f6357611f62611e47565b5b8135611f73848260208601611f0c565b91505092915050565b600060208284031215611f9257611f91611b1c565b5b600082013567ffffffffffffffff811115611fb057611faf611b21565b5b611fbc84828501611f4e565b91505092915050565b611fce81611d27565b82525050565b6000602082019050611fe96000830184611fc5565b92915050565b600061ffff82169050919050565b61200681611fef565b82525050565b600063ffffffff82169050919050565b6120258161200c565b82525050565b600060a08201905081810360008301526120458188611ccc565b90506120546020830187611d8a565b6120616040830186611ffd565b61206e6060830185611ffd565b61207b608083018461201c565b9695505050505050565b61208e81611bab565b811461209957600080fd5b50565b6000813590506120ab81612085565b92915050565b600080604083850312156120c8576120c7611b1c565b5b60006120d685828601611c2a565b92505060206120e78582860161209c565b9150509250929050565b600067ffffffffffffffff82111561210c5761210b611e51565b5b61211582611cbb565b9050602081019050919050565b6000612135612130846120f1565b611eb1565b90508281526020810184848401111561215157612150611e4c565b5b61215c848285611efd565b509392505050565b600082601f83011261217957612178611e47565b5b8135612189848260208601612122565b91505092915050565b600080600080608085870312156121ac576121ab611b1c565b5b60006121ba87828801611c2a565b94505060206121cb87828801611c2a565b93505060406121dc87828801611d48565b925050606085013567ffffffffffffffff8111156121fd576121fc611b21565b5b61220987828801612164565b91505092959194509250565b600081519050919050565b600082825260208201905092915050565b6000819050602082019050919050565b600082825260208201905092915050565b600061225d82611c6c565b6122678185612241565b9350612277818560208601611c88565b61228081611cbb565b840191505092915050565b61229481611c01565b82525050565b6122a381611fef565b82525050565b6122b28161200c565b82525050565b600060a08301600083015184820360008601526122d58282612252565b91505060208301516122ea602086018261228b565b5060408301516122fd604086018261229a565b506060830151612310606086018261229a565b50608083015161232360808601826122a9565b508091505092915050565b600061233a83836122b8565b905092915050565b6000602082019050919050565b600061235a82612215565b6123648185612220565b93508360208202850161237685612231565b8060005b858110156123b25784840389528151612393858261232e565b945061239e83612342565b925060208a0199505060018101905061237a565b50829750879550505050505092915050565b600060208201905081810360008301526123de818461234f565b905092915050565b600080604083850312156123fd576123fc611b1c565b5b600061240b85828601611c2a565b925050602061241c85828601611c2a565b9150509250929050565b7f4e487b7100000000000000000000000000000000000000000000000000000000600052602260045260246000fd5b6000600282049050600182168061246d57607f821691505b6020821081141561248157612480612426565b5b50919050565b7f4552433732313a20617070726f76656420717565727920666f72206e6f6e657860008201527f697374656e7420746f6b656e0000000000000000000000000000000000000000602082015250565b60006124e3602c83611c77565b91506124ee82612487565b604082019050919050565b60006020820190508181036000830152612512816124d6565b9050919050565b7f4552433732313a20617070726f76616c20746f2063757272656e74206f776e6560008201527f7200000000000000000000000000000000000000000000000000000000000000602082015250565b6000612575602183611c77565b915061258082612519565b604082019050919050565b600060208201905081810360008301526125a481612568565b9050919050565b7f4552433732313a20617070726f76652063616c6c6572206973206e6f74206f7760008201527f6e6572206e6f7220617070726f76656420666f7220616c6c0000000000000000602082015250565b6000612607603883611c77565b9150612612826125ab565b604082019050919050565b60006020820190508181036000830152612636816125fa565b9050919050565b7f4552433732313a207472616e736665722063616c6c6572206973206e6f74206f60008201527f776e6572206e6f7220617070726f766564000000000000000000000000000000602082015250565b6000612699603183611c77565b91506126a48261263d565b604082019050919050565b600060208201905081810360008301526126c88161268c565b9050919050565b7f4552433732313a206f776e657220717565727920666f72206e6f6e657869737460008201527f656e7420746f6b656e0000000000000000000000000000000000000000000000602082015250565b600061272b602983611c77565b9150612736826126cf565b604082019050919050565b6000602082019050818103600083015261275a8161271e565b9050919050565b7f4e487b7100000000000000000000000000000000000000000000000000000000600052601260045260246000fd5b600061279b82611fef565b91506127a683611fef565b9250826127b6576127b5612761565b5b828206905092915050565b7f4e487b7100000000000000000000000000000000000000000000000000000000600052601160045260246000fd5b60006127fb82611fef565b915061280683611fef565b925082821015612819576128186127c1565b5b828203905092915050565b7f4552433732313a2062616c616e636520717565727920666f7220746865207a6560008201527f726f206164647265737300000000000000000000000000000000000000000000602082015250565b6000612880602a83611c77565b915061288b82612824565b604082019050919050565b600060208201905081810360008301526128af81612873565b9050919050565b7f4552433732314d657461646174613a2055524920717565727920666f72206e6f60008201527f6e6578697374656e7420746f6b656e0000000000000000000000000000000000602082015250565b6000612912602f83611c77565b915061291d826128b6565b604082019050919050565b6000602082019050818103600083015261294181612905565b9050919050565b600081905092915050565b600061295e82611c6c565b6129688185612948565b9350612978818560208601611c88565b80840191505092915050565b60006129908285612953565b915061299c8284612953565b91508190509392505050565b7f4552433732313a206f70657261746f7220717565727920666f72206e6f6e657860008201527f697374656e7420746f6b656e0000000000000000000000000000000000000000602082015250565b6000612a04602c83611c77565b9150612a0f826129a8565b604082019050919050565b60006020820190508181036000830152612a33816129f7565b9050919050565b7f4552433732313a207472616e73666572206f6620746f6b656e2074686174206960008201527f73206e6f74206f776e0000000000000000000000000000000000000000000000602082015250565b6000612a96602983611c77565b9150612aa182612a3a565b604082019050919050565b60006020820190508181036000830152612ac581612a89565b9050919050565b7f4552433732313a207472616e7366657220746f20746865207a65726f2061646460008201527f7265737300000000000000000000000000000000000000000000000000000000602082015250565b6000612b28602483611c77565b9150612b3382612acc565b604082019050919050565b60006020820190508181036000830152612b5781612b1b565b9050919050565b6000612b6982611d27565b9150612b7483611d27565b925082821015612b8757612b866127c1565b5b828203905092915050565b6000612b9d82611d27565b9150612ba883611d27565b9250827fffffffffffffffffffffffffffffffffffffffffffffffffffffffffffffffff03821115612bdd57612bdc6127c1565b5b828201905092915050565b6000612bf48284612953565b915081905092915050565b6000612c0a82611d27565b9150612c1583611d27565b925082612c2557612c24612761565b5b828206905092915050565b6000819050919050565b6000612c55612c50612c4b84611fef565b612c30565b611d27565b9050919050565b612c6581612c3a565b82525050565b60006060820190508181036000830152612c858186611ccc565b9050612c946020830185611d8a565b612ca16040830184612c5c565b949350505050565b7f4552433732313a20617070726f766520746f2063616c6c657200000000000000600082015250565b6000612cdf601983611c77565b9150612cea82612ca9565b602082019050919050565b60006020820190508181036000830152612d0e81612cd2565b9050919050565b7f4552433732313a207472616e7366657220746f206e6f6e20455243373231526560008201527f63656976657220696d706c656d656e7465720000000000000000000000000000602082015250565b6000612d71603283611c77565b9150612d7c82612d15565b604082019050919050565b60006020820190508181036000830152612da081612d64565b9050919050565b6000612db282611d27565b91507fffffffffffffffffffffffffffffffffffffffffffffffffffffffffffffffff821415612de557612de46127c1565b5b600182019050919050565b6000612dfb82611d27565b9150612e0683611d27565b925082612e1657612e15612761565b5b828204905092915050565b7f4e487b7100000000000000000000000000000000000000000000000000000000600052603260045260246000fd5b600081519050919050565b600082825260208201905092915050565b6000612e7782612e50565b612e818185612e5b565b9350612e91818560208601611c88565b612e9a81611cbb565b840191505092915050565b6000608082019050612eba6000830187611d8a565b612ec76020830186611d8a565b612ed46040830185611fc5565b8181036060830152612ee68184612e6c565b905095945050505050565b600081519050612f0081611b52565b92915050565b600060208284031215612f1c57612f1b611b1c565b5b6000612f2a84828501612ef1565b9150509291505056fea2646970667358221220beb907d26df5f4c3c8036badac75d690a50449e754a908cbc8d72ab8c93114aa64736f6c63430008090033",
  "linkReferences": {},
  "deployedLinkReferences": {}
}