{
  "_format": "hh-sol-artifact-1",
  "contractName": "CryptoPlants",
  "sourceName": "contracts/CryptoPlants.sol",
  "abi": [
    {
      "inputs": [],
      "stateMutability": "nonpayable",
      "type": "constructor"
    },
    {
      "anonymous": false,
      "inputs": [
        {
          "indexed": true,
          "internalType": "address",
          "name": "owner",
          "type": "address"
        },
        {
          "indexed": true,
          "internalType": "address",
          "name": "approved",
          "type": "address"
        },
        {
          "indexed": true,
          "internalType": "uint256",
          "name": "tokenId",
          "type": "uint256"
        }
      ],
      "name": "Approval",
      "type": "event"
    },
    {
      "anonymous": false,
      "inputs": [
        {
          "indexed": true,
          "internalType": "address",
          "name": "owner",
          "type": "address"
        },
        {
          "indexed": true,
          "internalType": "address",
          "name": "operator",
          "type": "address"
        },
        {
          "indexed": false,
          "internalType": "bool",
          "name": "approved",
          "type": "bool"
        }
      ],
      "name": "ApprovalForAll",
      "type": "event"
    },
    {
      "anonymous": false,
      "inputs": [
        {
          "indexed": false,
          "internalType": "string",
          "name": "name",
          "type": "string"
        },
        {
          "indexed": false,
          "internalType": "address",
          "name": "farmer",
          "type": "address"
        },
        {
          "indexed": false,
          "internalType": "uint256",
          "name": "dna",
          "type": "uint256"
        }
      ],
      "name": "NewPlant",
      "type": "event"
    },
    {
      "anonymous": false,
      "inputs": [
        {
          "indexed": true,
          "internalType": "address",
          "name": "from",
          "type": "address"
        },
        {
          "indexed": true,
          "internalType": "address",
          "name": "to",
          "type": "address"
        },
        {
          "indexed": true,
          "internalType": "uint256",
          "name": "tokenId",
          "type": "uint256"
        }
      ],
      "name": "Transfer",
      "type": "event"
    },
    {
      "inputs": [
        {
          "internalType": "address",
          "name": "to",
          "type": "address"
        },
        {
          "internalType": "uint256",
          "name": "tokenId",
          "type": "uint256"
        }
      ],
      "name": "approve",
      "outputs": [],
      "stateMutability": "nonpayable",
      "type": "function"
    },
    {
      "inputs": [
        {
          "internalType": "address",
          "name": "owner",
          "type": "address"
        }
      ],
      "name": "balanceOf",
      "outputs": [
        {
          "internalType": "uint256",
          "name": "",
          "type": "uint256"
        }
      ],
      "stateMutability": "view",
      "type": "function"
    },
    {
      "inputs": [
        {
          "internalType": "string",
          "name": "_name",
          "type": "string"
        }
      ],
      "name": "createRandomPlant",
      "outputs": [],
      "stateMutability": "nonpayable",
      "type": "function"
    },
    {
      "inputs": [
        {
          "internalType": "address",
          "name": "",
          "type": "address"
        }
      ],
      "name": "farmerToPlantId",
      "outputs": [
        {
          "internalType": "uint256",
          "name": "",
          "type": "uint256"
        }
      ],
      "stateMutability": "view",
      "type": "function"
    },
    {
      "inputs": [
        {
          "internalType": "uint256",
          "name": "tokenId",
          "type": "uint256"
        }
      ],
      "name": "getApproved",
      "outputs": [
        {
          "internalType": "address",
          "name": "",
          "type": "address"
        }
      ],
      "stateMutability": "view",
      "type": "function"
    },
    {
      "inputs": [],
      "name": "getPlant",
      "outputs": [
        {
          "internalType": "uint256",
          "name": "",
          "type": "uint256"
        }
      ],
      "stateMutability": "view",
      "type": "function"
    },
    {
      "inputs": [],
      "name": "getPlants",
      "outputs": [
        {
          "components": [
            {
              "internalType": "string",
              "name": "name",
              "type": "string"
            },
            {
              "internalType": "address",
              "name": "farmer",
              "type": "address"
            },
            {
              "internalType": "uint16",
              "name": "dna",
              "type": "uint16"
            },
            {
              "internalType": "uint16",
              "name": "size",
              "type": "uint16"
            },
            {
              "internalType": "uint32",
              "name": "nextGrowTime",
              "type": "uint32"
            }
          ],
          "internalType": "struct CryptoPlants.PlantStruct[]",
          "name": "",
          "type": "tuple[]"
        }
      ],
      "stateMutability": "view",
      "type": "function"
    },
    {
      "inputs": [
        {
          "internalType": "address",
          "name": "",
          "type": "address"
        }
      ],
      "name": "hasPlant",
      "outputs": [
        {
          "internalType": "bool",
          "name": "",
          "type": "bool"
        }
      ],
      "stateMutability": "view",
      "type": "function"
    },
    {
      "inputs": [
        {
          "internalType": "address",
          "name": "owner",
          "type": "address"
        },
        {
          "internalType": "address",
          "name": "operator",
          "type": "address"
        }
      ],
      "name": "isApprovedForAll",
      "outputs": [
        {
          "internalType": "bool",
          "name": "",
          "type": "bool"
        }
      ],
      "stateMutability": "view",
      "type": "function"
    },
    {
      "inputs": [],
      "name": "name",
      "outputs": [
        {
          "internalType": "string",
          "name": "",
          "type": "string"
        }
      ],
      "stateMutability": "view",
      "type": "function"
    },
    {
      "inputs": [
        {
          "internalType": "uint256",
          "name": "tokenId",
          "type": "uint256"
        }
      ],
      "name": "ownerOf",
      "outputs": [
        {
          "internalType": "address",
          "name": "",
          "type": "address"
        }
      ],
      "stateMutability": "view",
      "type": "function"
    },
    {
      "inputs": [
        {
          "internalType": "uint256",
          "name": "",
          "type": "uint256"
        }
      ],
      "name": "plantIdToFarmer",
      "outputs": [
        {
          "internalType": "address",
          "name": "",
          "type": "address"
        }
      ],
      "stateMutability": "view",
      "type": "function"
    },
    {
      "inputs": [
        {
          "internalType": "uint256",
          "name": "",
          "type": "uint256"
        }
      ],
      "name": "plants",
      "outputs": [
        {
          "internalType": "string",
          "name": "name",
          "type": "string"
        },
        {
          "internalType": "address",
          "name": "farmer",
          "type": "address"
        },
        {
          "internalType": "uint16",
          "name": "dna",
          "type": "uint16"
        },
        {
          "internalType": "uint16",
          "name": "size",
          "type": "uint16"
        },
        {
          "internalType": "uint32",
          "name": "nextGrowTime",
          "type": "uint32"
        }
      ],
      "stateMutability": "view",
      "type": "function"
    },
    {
      "inputs": [
        {
          "internalType": "address",
          "name": "from",
          "type": "address"
        },
        {
          "internalType": "address",
          "name": "to",
          "type": "address"
        },
        {
          "internalType": "uint256",
          "name": "tokenId",
          "type": "uint256"
        }
      ],
      "name": "safeTransferFrom",
      "outputs": [],
      "stateMutability": "nonpayable",
      "type": "function"
    },
    {
      "inputs": [
        {
          "internalType": "address",
          "name": "from",
          "type": "address"
        },
        {
          "internalType": "address",
          "name": "to",
          "type": "address"
        },
        {
          "internalType": "uint256",
          "name": "tokenId",
          "type": "uint256"
        },
        {
          "internalType": "bytes",
          "name": "_data",
          "type": "bytes"
        }
      ],
      "name": "safeTransferFrom",
      "outputs": [],
      "stateMutability": "nonpayable",
      "type": "function"
    },
    {
      "inputs": [
        {
          "internalType": "address",
          "name": "operator",
          "type": "address"
        },
        {
          "internalType": "bool",
          "name": "approved",
          "type": "bool"
        }
      ],
      "name": "setApprovalForAll",
      "outputs": [],
      "stateMutability": "nonpayable",
      "type": "function"
    },
    {
      "inputs": [
        {
          "internalType": "bytes4",
          "name": "interfaceId",
          "type": "bytes4"
        }
      ],
      "name": "supportsInterface",
      "outputs": [
        {
          "internalType": "bool",
          "name": "",
          "type": "bool"
        }
      ],
      "stateMutability": "view",
      "type": "function"
    },
    {
      "inputs": [],
      "name": "symbol",
      "outputs": [
        {
          "internalType": "string",
          "name": "",
          "type": "string"
        }
      ],
      "stateMutability": "view",
      "type": "function"
    },
    {
      "inputs": [
        {
          "internalType": "uint256",
          "name": "tokenId",
          "type": "uint256"
        }
      ],
      "name": "tokenURI",
      "outputs": [
        {
          "internalType": "string",
          "name": "",
          "type": "string"
        }
      ],
      "stateMutability": "view",
      "type": "function"
    },
    {
      "inputs": [
        {
          "internalType": "address",
          "name": "from",
          "type": "address"
        },
        {
          "internalType": "address",
          "name": "to",
          "type": "address"
        },
        {
          "internalType": "uint256",
          "name": "tokenId",
          "type": "uint256"
        }
      ],
      "name": "transferFrom",
      "outputs": [],
      "stateMutability": "nonpayable",
      "type": "function"
    }
  ],
  "bytecode": "0x60806040526010600660006101000a81548160ff021916908360ff160217905550600660009054906101000a900460ff16600a6200003e919062000722565b600755610e106008553480156200005457600080fd5b506040518060400160405280600c81526020017f43727970746f506c616e747300000000000000000000000000000000000000008152506040518060400160405280600c81526020017f43727970746f506c616e747300000000000000000000000000000000000000008152508160009080519060200190620000d9929190620004d8565b508060019080519060200190620000f2929190620004d8565b5050506200013b6040518060400160405280600481526020017f54686561000000000000000000000000000000000000000000000000000000008152506200014160201b60201c565b62000b23565b60011515600a60003373ffffffffffffffffffffffffffffffffffffffff1673ffffffffffffffffffffffffffffffffffffffff16815260200190815260200160002060009054906101000a900460ff1615151415620001a057600080fd5b6000620001b382620001ec60201b60201c565b60ff169050606481620001c79190620007b0565b81620001d49190620007e8565b9050620001e882826200023560201b60201c565b5050565b60008082604051602001620002029190620008a6565b6040516020818303038152906040528051906020012060001c9050600754816200022d9190620008bf565b915050919050565b60096040518060a001604052808481526020013373ffffffffffffffffffffffffffffffffffffffff1681526020018361ffff168152602001600161ffff16815260200160085442620002899190620008f7565b63ffffffff1681525090806001815401808255809150506001900390600052602060002090600202016000909190919091506000820151816000019080519060200190620002d9929190620004d8565b5060208201518160010160006101000a81548173ffffffffffffffffffffffffffffffffffffffff021916908373ffffffffffffffffffffffffffffffffffffffff16021790555060408201518160010160146101000a81548161ffff021916908361ffff16021790555060608201518160010160166101000a81548161ffff021916908361ffff16021790555060808201518160010160186101000a81548163ffffffff021916908363ffffffff160217905550505060006001600980549050620003a6919062000954565b905033600b600083815260200190815260200160002060006101000a81548173ffffffffffffffffffffffffffffffffffffffff021916908373ffffffffffffffffffffffffffffffffffffffff16021790555080600c60003373ffffffffffffffffffffffffffffffffffffffff1673ffffffffffffffffffffffffffffffffffffffff168152602001908152602001600020819055506001600a60003373ffffffffffffffffffffffffffffffffffffffff1673ffffffffffffffffffffffffffffffffffffffff16815260200190815260200160002060006101000a81548160ff0219169083151502179055507f310f3f25b129830ccb19e5855f5de239631fa808ce5f89ab57026c19822540cc833384604051620004cb9392919062000a7a565b60405180910390a1505050565b828054620004e69062000aed565b90600052602060002090601f0160209004810192826200050a576000855562000556565b82601f106200052557805160ff191683800117855562000556565b8280016001018555821562000556579182015b828111156200055557825182559160200191906001019062000538565b5b50905062000565919062000569565b5090565b5b80821115620005845760008160009055506001016200056a565b5090565b7f4e487b7100000000000000000000000000000000000000000000000000000000600052601160045260246000fd5b60008160011c9050919050565b6000808291508390505b60018511156200061657808604811115620005ee57620005ed62000588565b5b6001851615620005fe5780820291505b80810290506200060e85620005b7565b9450620005ce565b94509492505050565b60008262000631576001905062000704565b8162000641576000905062000704565b81600181146200065a576002811462000665576200069b565b600191505062000704565b60ff8411156200067a576200067962000588565b5b8360020a91508482111562000694576200069362000588565b5b5062000704565b5060208310610133831016604e8410600b8410161715620006d55782820a905083811115620006cf57620006ce62000588565b5b62000704565b620006e48484846001620005c4565b92509050818404811115620006fe57620006fd62000588565b5b81810290505b9392505050565b6000819050919050565b600060ff82169050919050565b60006200072f826200070b565b91506200073c8362000715565b92506200076b7fffffffffffffffffffffffffffffffffffffffffffffffffffffffffffffffff84846200061f565b905092915050565b600061ffff82169050919050565b7f4e487b7100000000000000000000000000000000000000000000000000000000600052601260045260246000fd5b6000620007bd8262000773565b9150620007ca8362000773565b925082620007dd57620007dc62000781565b5b828206905092915050565b6000620007f58262000773565b9150620008028362000773565b92508282101562000818576200081762000588565b5b828203905092915050565b600081519050919050565b600081905092915050565b60005b83811015620008595780820151818401526020810190506200083c565b8381111562000869576000848401525b50505050565b60006200087c8262000823565b6200088881856200082e565b93506200089a81856020860162000839565b80840191505092915050565b6000620008b482846200086f565b915081905092915050565b6000620008cc826200070b565b9150620008d9836200070b565b925082620008ec57620008eb62000781565b5b828206905092915050565b600062000904826200070b565b915062000911836200070b565b9250827fffffffffffffffffffffffffffffffffffffffffffffffffffffffffffffffff0382111562000949576200094862000588565b5b828201905092915050565b600062000961826200070b565b91506200096e836200070b565b92508282101562000984576200098362000588565b5b828203905092915050565b600082825260208201905092915050565b6000601f19601f8301169050919050565b6000620009be8262000823565b620009ca81856200098f565b9350620009dc81856020860162000839565b620009e781620009a0565b840191505092915050565b600073ffffffffffffffffffffffffffffffffffffffff82169050919050565b600062000a1f82620009f2565b9050919050565b62000a318162000a12565b82525050565b6000819050919050565b600062000a6262000a5c62000a568462000773565b62000a37565b6200070b565b9050919050565b62000a748162000a41565b82525050565b6000606082019050818103600083015262000a968186620009b1565b905062000aa7602083018562000a26565b62000ab6604083018462000a69565b949350505050565b7f4e487b7100000000000000000000000000000000000000000000000000000000600052602260045260246000fd5b6000600282049050600182168062000b0657607f821691505b6020821081141562000b1d5762000b1c62000abe565b5b50919050565b61311f8062000b336000396000f3fe608060405234801561001057600080fd5b506004361061012c5760003560e01c80637bf4617a116100ad578063a22cb46511610071578063a22cb4651461037f578063b88d4fde1461039b578063c87b56dd146103b7578063d8c62041146103e7578063e985e9c5146104055761012c565b80637bf4617a146102af5780638dd2361c146102cd57806395d89b4114610301578063962439141461031f578063a184ed531461034f5761012c565b806323b872dd116100f457806323b872dd146101fb57806342842e0e146102175780636352211e146102335780636ff7c88d1461026357806370a082311461027f5761012c565b806301ffc9a7146101315780630528417a1461016157806306fdde0314610191578063081812fc146101af578063095ea7b3146101df575b600080fd5b61014b60048036038101906101469190611d34565b610435565b6040516101589190611d7c565b60405180910390f35b61017b60048036038101906101769190611df5565b610517565b6040516101889190611d7c565b60405180910390f35b610199610537565b6040516101a69190611ebb565b60405180910390f35b6101c960048036038101906101c49190611f13565b6105c9565b6040516101d69190611f4f565b60405180910390f35b6101f960048036038101906101f49190611f6a565b61064e565b005b61021560048036038101906102109190611faa565b610766565b005b610231600480360381019061022c9190611faa565b6107c6565b005b61024d60048036038101906102489190611f13565b6107e6565b60405161025a9190611f4f565b60405180910390f35b61027d60048036038101906102789190612132565b610898565b005b61029960048036038101906102949190611df5565b61092e565b6040516102a6919061218a565b60405180910390f35b6102b76109e6565b6040516102c4919061218a565b60405180910390f35b6102e760048036038101906102e29190611f13565b610a2d565b6040516102f89594939291906121e1565b60405180910390f35b610309610b47565b6040516103169190611ebb565b60405180910390f35b61033960048036038101906103349190611df5565b610bd9565b604051610346919061218a565b60405180910390f35b61036960048036038101906103649190611f13565b610bf1565b6040516103769190611f4f565b60405180910390f35b61039960048036038101906103949190612267565b610c24565b005b6103b560048036038101906103b09190612348565b610c3a565b005b6103d160048036038101906103cc9190611f13565b610c9c565b6040516103de9190611ebb565b60405180910390f35b6103ef610d43565b6040516103fc919061257a565b60405180910390f35b61041f600480360381019061041a919061259c565b610ef0565b60405161042c9190611d7c565b60405180910390f35b60007f80ac58cd000000000000000000000000000000000000000000000000000000007bffffffffffffffffffffffffffffffffffffffffffffffffffffffff1916827bffffffffffffffffffffffffffffffffffffffffffffffffffffffff1916148061050057507f5b5e139f000000000000000000000000000000000000000000000000000000007bffffffffffffffffffffffffffffffffffffffffffffffffffffffff1916827bffffffffffffffffffffffffffffffffffffffffffffffffffffffff1916145b80610510575061050f82610f84565b5b9050919050565b600a6020528060005260406000206000915054906101000a900460ff1681565b6060600080546105469061260b565b80601f01602080910402602001604051908101604052809291908181526020018280546105729061260b565b80156105bf5780601f10610594576101008083540402835291602001916105bf565b820191906000526020600020905b8154815290600101906020018083116105a257829003601f168201915b5050505050905090565b60006105d482610fee565b610613576040517f08c379a000000000000000000000000000000000000000000000000000000000815260040161060a906126af565b60405180910390fd5b6004600083815260200190815260200160002060009054906101000a900473ffffffffffffffffffffffffffffffffffffffff169050919050565b6000610659826107e6565b90508073ffffffffffffffffffffffffffffffffffffffff168373ffffffffffffffffffffffffffffffffffffffff1614156106ca576040517f08c379a00000000000000000000000000000000000000000000000000000000081526004016106c190612741565b60405180910390fd5b8073ffffffffffffffffffffffffffffffffffffffff166106e961105a565b73ffffffffffffffffffffffffffffffffffffffff16148061071857506107178161071261105a565b610ef0565b5b610757576040517f08c379a000000000000000000000000000000000000000000000000000000000815260040161074e906127d3565b60405180910390fd5b6107618383611062565b505050565b61077761077161105a565b8261111b565b6107b6576040517f08c379a00000000000000000000000000000000000000000000000000000000081526004016107ad90612865565b60405180910390fd5b6107c18383836111f9565b505050565b6107e183838360405180602001604052806000815250610c3a565b505050565b6000806002600084815260200190815260200160002060009054906101000a900473ffffffffffffffffffffffffffffffffffffffff169050600073ffffffffffffffffffffffffffffffffffffffff168173ffffffffffffffffffffffffffffffffffffffff16141561088f576040517f08c379a0000000000000000000000000000000000000000000000000000000008152600401610886906128f7565b60405180910390fd5b80915050919050565b60011515600a60003373ffffffffffffffffffffffffffffffffffffffff1673ffffffffffffffffffffffffffffffffffffffff16815260200190815260200160002060009054906101000a900460ff16151514156108f657600080fd5b600061090182611455565b60ff1690506064816109139190612946565b8161091e91906129a6565b905061092a828261149a565b5050565b60008073ffffffffffffffffffffffffffffffffffffffff168273ffffffffffffffffffffffffffffffffffffffff16141561099f576040517f08c379a000000000000000000000000000000000000000000000000000000000815260040161099690612a4c565b60405180910390fd5b600360008373ffffffffffffffffffffffffffffffffffffffff1673ffffffffffffffffffffffffffffffffffffffff168152602001908152602001600020549050919050565b6000600c60003373ffffffffffffffffffffffffffffffffffffffff1673ffffffffffffffffffffffffffffffffffffffff16815260200190815260200160002054905090565b60098181548110610a3d57600080fd5b9060005260206000209060020201600091509050806000018054610a609061260b565b80601f0160208091040260200160405190810160405280929190818152602001828054610a8c9061260b565b8015610ad95780601f10610aae57610100808354040283529160200191610ad9565b820191906000526020600020905b815481529060010190602001808311610abc57829003601f168201915b5050505050908060010160009054906101000a900473ffffffffffffffffffffffffffffffffffffffff16908060010160149054906101000a900461ffff16908060010160169054906101000a900461ffff16908060010160189054906101000a900463ffffffff16905085565b606060018054610b569061260b565b80601f0160208091040260200160405190810160405280929190818152602001828054610b829061260b565b8015610bcf5780601f10610ba457610100808354040283529160200191610bcf565b820191906000526020600020905b815481529060010190602001808311610bb257829003601f168201915b5050505050905090565b600c6020528060005260406000206000915090505481565b600b6020528060005260406000206000915054906101000a900473ffffffffffffffffffffffffffffffffffffffff1681565b610c36610c2f61105a565b8383611735565b5050565b610c4b610c4561105a565b8361111b565b610c8a576040517f08c379a0000000000000000000000000000000000000000000000000000000008152600401610c8190612865565b60405180910390fd5b610c96848484846118a2565b50505050565b6060610ca782610fee565b610ce6576040517f08c379a0000000000000000000000000000000000000000000000000000000008152600401610cdd90612ade565b60405180910390fd5b6000610cf06118fe565b90506000815111610d105760405180602001604052806000815250610d3b565b80610d1a84611915565b604051602001610d2b929190612b3a565b6040516020818303038152906040525b915050919050565b60606009805480602002602001604051908101604052809291908181526020016000905b82821015610ee757838290600052602060002090600202016040518060a0016040529081600082018054610d9a9061260b565b80601f0160208091040260200160405190810160405280929190818152602001828054610dc69061260b565b8015610e135780601f10610de857610100808354040283529160200191610e13565b820191906000526020600020905b815481529060010190602001808311610df657829003601f168201915b505050505081526020016001820160009054906101000a900473ffffffffffffffffffffffffffffffffffffffff1673ffffffffffffffffffffffffffffffffffffffff1673ffffffffffffffffffffffffffffffffffffffff1681526020016001820160149054906101000a900461ffff1661ffff1661ffff1681526020016001820160169054906101000a900461ffff1661ffff1661ffff1681526020016001820160189054906101000a900463ffffffff1663ffffffff1663ffffffff168152505081526020019060010190610d67565b50505050905090565b6000600560008473ffffffffffffffffffffffffffffffffffffffff1673ffffffffffffffffffffffffffffffffffffffff16815260200190815260200160002060008373ffffffffffffffffffffffffffffffffffffffff1673ffffffffffffffffffffffffffffffffffffffff16815260200190815260200160002060009054906101000a900460ff16905092915050565b60007f01ffc9a7000000000000000000000000000000000000000000000000000000007bffffffffffffffffffffffffffffffffffffffffffffffffffffffff1916827bffffffffffffffffffffffffffffffffffffffffffffffffffffffff1916149050919050565b60008073ffffffffffffffffffffffffffffffffffffffff166002600084815260200190815260200160002060009054906101000a900473ffffffffffffffffffffffffffffffffffffffff1673ffffffffffffffffffffffffffffffffffffffff1614159050919050565b600033905090565b816004600083815260200190815260200160002060006101000a81548173ffffffffffffffffffffffffffffffffffffffff021916908373ffffffffffffffffffffffffffffffffffffffff160217905550808273ffffffffffffffffffffffffffffffffffffffff166110d5836107e6565b73ffffffffffffffffffffffffffffffffffffffff167f8c5be1e5ebec7d5bd14f71427d1e84f3dd0314c0f7b2291e5b200ac8c7c3b92560405160405180910390a45050565b600061112682610fee565b611165576040517f08c379a000000000000000000000000000000000000000000000000000000000815260040161115c90612bd0565b60405180910390fd5b6000611170836107e6565b90508073ffffffffffffffffffffffffffffffffffffffff168473ffffffffffffffffffffffffffffffffffffffff1614806111df57508373ffffffffffffffffffffffffffffffffffffffff166111c7846105c9565b73ffffffffffffffffffffffffffffffffffffffff16145b806111f057506111ef8185610ef0565b5b91505092915050565b8273ffffffffffffffffffffffffffffffffffffffff16611219826107e6565b73ffffffffffffffffffffffffffffffffffffffff161461126f576040517f08c379a000000000000000000000000000000000000000000000000000000000815260040161126690612c62565b60405180910390fd5b600073ffffffffffffffffffffffffffffffffffffffff168273ffffffffffffffffffffffffffffffffffffffff1614156112df576040517f08c379a00000000000000000000000000000000000000000000000000000000081526004016112d690612cf4565b60405180910390fd5b6112ea838383611a76565b6112f5600082611062565b6001600360008573ffffffffffffffffffffffffffffffffffffffff1673ffffffffffffffffffffffffffffffffffffffff16815260200190815260200160002060008282546113459190612d14565b925050819055506001600360008473ffffffffffffffffffffffffffffffffffffffff1673ffffffffffffffffffffffffffffffffffffffff168152602001908152602001600020600082825461139c9190612d48565b92505081905550816002600083815260200190815260200160002060006101000a81548173ffffffffffffffffffffffffffffffffffffffff021916908373ffffffffffffffffffffffffffffffffffffffff160217905550808273ffffffffffffffffffffffffffffffffffffffff168473ffffffffffffffffffffffffffffffffffffffff167fddf252ad1be2c89b69c2b068fc378daa952ba7f163c4a11628f55a4df523b3ef60405160405180910390a4505050565b600080826040516020016114699190612d9e565b6040516020818303038152906040528051906020012060001c9050600754816114929190612db5565b915050919050565b60096040518060a001604052808481526020013373ffffffffffffffffffffffffffffffffffffffff1681526020018361ffff168152602001600161ffff168152602001600854426114ec9190612d48565b63ffffffff168152509080600181540180825580915050600190039060005260206000209060020201600090919091909150600082015181600001908051906020019061153a929190611c25565b5060208201518160010160006101000a81548173ffffffffffffffffffffffffffffffffffffffff021916908373ffffffffffffffffffffffffffffffffffffffff16021790555060408201518160010160146101000a81548161ffff021916908361ffff16021790555060608201518160010160166101000a81548161ffff021916908361ffff16021790555060808201518160010160186101000a81548163ffffffff021916908363ffffffff1602179055505050600060016009805490506116059190612d14565b905033600b600083815260200190815260200160002060006101000a81548173ffffffffffffffffffffffffffffffffffffffff021916908373ffffffffffffffffffffffffffffffffffffffff16021790555080600c60003373ffffffffffffffffffffffffffffffffffffffff1673ffffffffffffffffffffffffffffffffffffffff168152602001908152602001600020819055506001600a60003373ffffffffffffffffffffffffffffffffffffffff1673ffffffffffffffffffffffffffffffffffffffff16815260200190815260200160002060006101000a81548160ff0219169083151502179055507f310f3f25b129830ccb19e5855f5de239631fa808ce5f89ab57026c19822540cc83338460405161172893929190612e21565b60405180910390a1505050565b8173ffffffffffffffffffffffffffffffffffffffff168373ffffffffffffffffffffffffffffffffffffffff1614156117a4576040517f08c379a000000000000000000000000000000000000000000000000000000000815260040161179b90612eab565b60405180910390fd5b80600560008573ffffffffffffffffffffffffffffffffffffffff1673ffffffffffffffffffffffffffffffffffffffff16815260200190815260200160002060008473ffffffffffffffffffffffffffffffffffffffff1673ffffffffffffffffffffffffffffffffffffffff16815260200190815260200160002060006101000a81548160ff0219169083151502179055508173ffffffffffffffffffffffffffffffffffffffff168373ffffffffffffffffffffffffffffffffffffffff167f17307eab39ab6107e8899845ad3d59bd9653f200f220920489ca2b5937696c31836040516118959190611d7c565b60405180910390a3505050565b6118ad8484846111f9565b6118b984848484611a7b565b6118f8576040517f08c379a00000000000000000000000000000000000000000000000000000000081526004016118ef90612f3d565b60405180910390fd5b50505050565b606060405180602001604052806000815250905090565b6060600082141561195d576040518060400160405280600181526020017f30000000000000000000000000000000000000000000000000000000000000008152509050611a71565b600082905060005b6000821461198f57808061197890612f5d565b915050600a826119889190612fa6565b9150611965565b60008167ffffffffffffffff8111156119ab576119aa612007565b5b6040519080825280601f01601f1916602001820160405280156119dd5781602001600182028036833780820191505090505b5090505b60008514611a6a576001826119f69190612d14565b9150600a85611a059190612db5565b6030611a119190612d48565b60f81b818381518110611a2757611a26612fd7565b5b60200101907effffffffffffffffffffffffffffffffffffffffffffffffffffffffffffff1916908160001a905350600a85611a639190612fa6565b94506119e1565b8093505050505b919050565b505050565b6000611a9c8473ffffffffffffffffffffffffffffffffffffffff16611c12565b15611c05578373ffffffffffffffffffffffffffffffffffffffff1663150b7a02611ac561105a565b8786866040518563ffffffff1660e01b8152600401611ae7949392919061305b565b602060405180830381600087803b158015611b0157600080fd5b505af1925050508015611b3257506040513d601f19601f82011682018060405250810190611b2f91906130bc565b60015b611bb5573d8060008114611b62576040519150601f19603f3d011682016040523d82523d6000602084013e611b67565b606091505b50600081511415611bad576040517f08c379a0000000000000000000000000000000000000000000000000000000008152600401611ba490612f3d565b60405180910390fd5b805181602001fd5b63150b7a0260e01b7bffffffffffffffffffffffffffffffffffffffffffffffffffffffff1916817bffffffffffffffffffffffffffffffffffffffffffffffffffffffff191614915050611c0a565b600190505b949350505050565b600080823b905060008111915050919050565b828054611c319061260b565b90600052602060002090601f016020900481019282611c535760008555611c9a565b82601f10611c6c57805160ff1916838001178555611c9a565b82800160010185558215611c9a579182015b82811115611c99578251825591602001919060010190611c7e565b5b509050611ca79190611cab565b5090565b5b80821115611cc4576000816000905550600101611cac565b5090565b6000604051905090565b600080fd5b600080fd5b60007fffffffff0000000000000000000000000000000000000000000000000000000082169050919050565b611d1181611cdc565b8114611d1c57600080fd5b50565b600081359050611d2e81611d08565b92915050565b600060208284031215611d4a57611d49611cd2565b5b6000611d5884828501611d1f565b91505092915050565b60008115159050919050565b611d7681611d61565b82525050565b6000602082019050611d916000830184611d6d565b92915050565b600073ffffffffffffffffffffffffffffffffffffffff82169050919050565b6000611dc282611d97565b9050919050565b611dd281611db7565b8114611ddd57600080fd5b50565b600081359050611def81611dc9565b92915050565b600060208284031215611e0b57611e0a611cd2565b5b6000611e1984828501611de0565b91505092915050565b600081519050919050565b600082825260208201905092915050565b60005b83811015611e5c578082015181840152602081019050611e41565b83811115611e6b576000848401525b50505050565b6000601f19601f8301169050919050565b6000611e8d82611e22565b611e978185611e2d565b9350611ea7818560208601611e3e565b611eb081611e71565b840191505092915050565b60006020820190508181036000830152611ed58184611e82565b905092915050565b6000819050919050565b611ef081611edd565b8114611efb57600080fd5b50565b600081359050611f0d81611ee7565b92915050565b600060208284031215611f2957611f28611cd2565b5b6000611f3784828501611efe565b91505092915050565b611f4981611db7565b82525050565b6000602082019050611f646000830184611f40565b92915050565b60008060408385031215611f8157611f80611cd2565b5b6000611f8f85828601611de0565b9250506020611fa085828601611efe565b9150509250929050565b600080600060608486031215611fc357611fc2611cd2565b5b6000611fd186828701611de0565b9350506020611fe286828701611de0565b9250506040611ff386828701611efe565b9150509250925092565b600080fd5b600080fd5b7f4e487b7100000000000000000000000000000000000000000000000000000000600052604160045260246000fd5b61203f82611e71565b810181811067ffffffffffffffff8211171561205e5761205d612007565b5b80604052505050565b6000612071611cc8565b905061207d8282612036565b919050565b600067ffffffffffffffff82111561209d5761209c612007565b5b6120a682611e71565b9050602081019050919050565b82818337600083830152505050565b60006120d56120d084612082565b612067565b9050828152602081018484840111156120f1576120f0612002565b5b6120fc8482856120b3565b509392505050565b600082601f83011261211957612118611ffd565b5b81356121298482602086016120c2565b91505092915050565b60006020828403121561214857612147611cd2565b5b600082013567ffffffffffffffff81111561216657612165611cd7565b5b61217284828501612104565b91505092915050565b61218481611edd565b82525050565b600060208201905061219f600083018461217b565b92915050565b600061ffff82169050919050565b6121bc816121a5565b82525050565b600063ffffffff82169050919050565b6121db816121c2565b82525050565b600060a08201905081810360008301526121fb8188611e82565b905061220a6020830187611f40565b61221760408301866121b3565b61222460608301856121b3565b61223160808301846121d2565b9695505050505050565b61224481611d61565b811461224f57600080fd5b50565b6000813590506122618161223b565b92915050565b6000806040838503121561227e5761227d611cd2565b5b600061228c85828601611de0565b925050602061229d85828601612252565b9150509250929050565b600067ffffffffffffffff8211156122c2576122c1612007565b5b6122cb82611e71565b9050602081019050919050565b60006122eb6122e6846122a7565b612067565b90508281526020810184848401111561230757612306612002565b5b6123128482856120b3565b509392505050565b600082601f83011261232f5761232e611ffd565b5b813561233f8482602086016122d8565b91505092915050565b6000806000806080858703121561236257612361611cd2565b5b600061237087828801611de0565b945050602061238187828801611de0565b935050604061239287828801611efe565b925050606085013567ffffffffffffffff8111156123b3576123b2611cd7565b5b6123bf8782880161231a565b91505092959194509250565b600081519050919050565b600082825260208201905092915050565b6000819050602082019050919050565b600082825260208201905092915050565b600061241382611e22565b61241d81856123f7565b935061242d818560208601611e3e565b61243681611e71565b840191505092915050565b61244a81611db7565b82525050565b612459816121a5565b82525050565b612468816121c2565b82525050565b600060a083016000830151848203600086015261248b8282612408565b91505060208301516124a06020860182612441565b5060408301516124b36040860182612450565b5060608301516124c66060860182612450565b5060808301516124d9608086018261245f565b508091505092915050565b60006124f0838361246e565b905092915050565b6000602082019050919050565b6000612510826123cb565b61251a81856123d6565b93508360208202850161252c856123e7565b8060005b85811015612568578484038952815161254985826124e4565b9450612554836124f8565b925060208a01995050600181019050612530565b50829750879550505050505092915050565b600060208201905081810360008301526125948184612505565b905092915050565b600080604083850312156125b3576125b2611cd2565b5b60006125c185828601611de0565b92505060206125d285828601611de0565b9150509250929050565b7f4e487b7100000000000000000000000000000000000000000000000000000000600052602260045260246000fd5b6000600282049050600182168061262357607f821691505b60208210811415612637576126366125dc565b5b50919050565b7f4552433732313a20617070726f76656420717565727920666f72206e6f6e657860008201527f697374656e7420746f6b656e0000000000000000000000000000000000000000602082015250565b6000612699602c83611e2d565b91506126a48261263d565b604082019050919050565b600060208201905081810360008301526126c88161268c565b9050919050565b7f4552433732313a20617070726f76616c20746f2063757272656e74206f776e6560008201527f7200000000000000000000000000000000000000000000000000000000000000602082015250565b600061272b602183611e2d565b9150612736826126cf565b604082019050919050565b6000602082019050818103600083015261275a8161271e565b9050919050565b7f4552433732313a20617070726f76652063616c6c6572206973206e6f74206f7760008201527f6e6572206e6f7220617070726f76656420666f7220616c6c0000000000000000602082015250565b60006127bd603883611e2d565b91506127c882612761565b604082019050919050565b600060208201905081810360008301526127ec816127b0565b9050919050565b7f4552433732313a207472616e736665722063616c6c6572206973206e6f74206f60008201527f776e6572206e6f7220617070726f766564000000000000000000000000000000602082015250565b600061284f603183611e2d565b915061285a826127f3565b604082019050919050565b6000602082019050818103600083015261287e81612842565b9050919050565b7f4552433732313a206f776e657220717565727920666f72206e6f6e657869737460008201527f656e7420746f6b656e0000000000000000000000000000000000000000000000602082015250565b60006128e1602983611e2d565b91506128ec82612885565b604082019050919050565b60006020820190508181036000830152612910816128d4565b9050919050565b7f4e487b7100000000000000000000000000000000000000000000000000000000600052601260045260246000fd5b6000612951826121a5565b915061295c836121a5565b92508261296c5761296b612917565b5b828206905092915050565b7f4e487b7100000000000000000000000000000000000000000000000000000000600052601160045260246000fd5b60006129b1826121a5565b91506129bc836121a5565b9250828210156129cf576129ce612977565b5b828203905092915050565b7f4552433732313a2062616c616e636520717565727920666f7220746865207a6560008201527f726f206164647265737300000000000000000000000000000000000000000000602082015250565b6000612a36602a83611e2d565b9150612a41826129da565b604082019050919050565b60006020820190508181036000830152612a6581612a29565b9050919050565b7f4552433732314d657461646174613a2055524920717565727920666f72206e6f60008201527f6e6578697374656e7420746f6b656e0000000000000000000000000000000000602082015250565b6000612ac8602f83611e2d565b9150612ad382612a6c565b604082019050919050565b60006020820190508181036000830152612af781612abb565b9050919050565b600081905092915050565b6000612b1482611e22565b612b1e8185612afe565b9350612b2e818560208601611e3e565b80840191505092915050565b6000612b468285612b09565b9150612b528284612b09565b91508190509392505050565b7f4552433732313a206f70657261746f7220717565727920666f72206e6f6e657860008201527f697374656e7420746f6b656e0000000000000000000000000000000000000000602082015250565b6000612bba602c83611e2d565b9150612bc582612b5e565b604082019050919050565b60006020820190508181036000830152612be981612bad565b9050919050565b7f4552433732313a207472616e73666572206f6620746f6b656e2074686174206960008201527f73206e6f74206f776e0000000000000000000000000000000000000000000000602082015250565b6000612c4c602983611e2d565b9150612c5782612bf0565b604082019050919050565b60006020820190508181036000830152612c7b81612c3f565b9050919050565b7f4552433732313a207472616e7366657220746f20746865207a65726f2061646460008201527f7265737300000000000000000000000000000000000000000000000000000000602082015250565b6000612cde602483611e2d565b9150612ce982612c82565b604082019050919050565b60006020820190508181036000830152612d0d81612cd1565b9050919050565b6000612d1f82611edd565b9150612d2a83611edd565b925082821015612d3d57612d3c612977565b5b828203905092915050565b6000612d5382611edd565b9150612d5e83611edd565b9250827fffffffffffffffffffffffffffffffffffffffffffffffffffffffffffffffff03821115612d9357612d92612977565b5b828201905092915050565b6000612daa8284612b09565b915081905092915050565b6000612dc082611edd565b9150612dcb83611edd565b925082612ddb57612dda612917565b5b828206905092915050565b6000819050919050565b6000612e0b612e06612e01846121a5565b612de6565b611edd565b9050919050565b612e1b81612df0565b82525050565b60006060820190508181036000830152612e3b8186611e82565b9050612e4a6020830185611f40565b612e576040830184612e12565b949350505050565b7f4552433732313a20617070726f766520746f2063616c6c657200000000000000600082015250565b6000612e95601983611e2d565b9150612ea082612e5f565b602082019050919050565b60006020820190508181036000830152612ec481612e88565b9050919050565b7f4552433732313a207472616e7366657220746f206e6f6e20455243373231526560008201527f63656976657220696d706c656d656e7465720000000000000000000000000000602082015250565b6000612f27603283611e2d565b9150612f3282612ecb565b604082019050919050565b60006020820190508181036000830152612f5681612f1a565b9050919050565b6000612f6882611edd565b91507fffffffffffffffffffffffffffffffffffffffffffffffffffffffffffffffff821415612f9b57612f9a612977565b5b600182019050919050565b6000612fb182611edd565b9150612fbc83611edd565b925082612fcc57612fcb612917565b5b828204905092915050565b7f4e487b7100000000000000000000000000000000000000000000000000000000600052603260045260246000fd5b600081519050919050565b600082825260208201905092915050565b600061302d82613006565b6130378185613011565b9350613047818560208601611e3e565b61305081611e71565b840191505092915050565b60006080820190506130706000830187611f40565b61307d6020830186611f40565b61308a604083018561217b565b818103606083015261309c8184613022565b905095945050505050565b6000815190506130b681611d08565b92915050565b6000602082840312156130d2576130d1611cd2565b5b60006130e0848285016130a7565b9150509291505056fea2646970667358221220e02571457b5a537058b879f766f0090e944ca94ef2ca44fc25318675c71b2b0764736f6c63430008090033",
  "linkReferences": {},
  "deployedLinkReferences": {}
}