{
  "_format": "hh-sol-artifact-1",
  "contractName": "PlantGrower",
  "sourceName": "contracts/PlantGrower.sol",
  "abi": [
    {
      "anonymous": false,
      "inputs": [
        {
          "indexed": true,
          "internalType": "address",
          "name": "owner",
          "type": "address"
        },
        {
          "indexed": true,
          "internalType": "address",
          "name": "approved",
          "type": "address"
        },
        {
          "indexed": true,
          "internalType": "uint256",
          "name": "tokenId",
          "type": "uint256"
        }
      ],
      "name": "Approval",
      "type": "event"
    },
    {
      "anonymous": false,
      "inputs": [
        {
          "indexed": true,
          "internalType": "address",
          "name": "owner",
          "type": "address"
        },
        {
          "indexed": true,
          "internalType": "address",
          "name": "operator",
          "type": "address"
        },
        {
          "indexed": false,
          "internalType": "bool",
          "name": "approved",
          "type": "bool"
        }
      ],
      "name": "ApprovalForAll",
      "type": "event"
    },
    {
      "anonymous": false,
      "inputs": [
        {
          "indexed": false,
          "internalType": "string",
          "name": "name",
          "type": "string"
        },
        {
          "indexed": false,
          "internalType": "address",
          "name": "farmer",
          "type": "address"
        },
        {
          "indexed": false,
          "internalType": "uint256",
          "name": "dna",
          "type": "uint256"
        }
      ],
      "name": "NewPlant",
      "type": "event"
    },
    {
      "anonymous": false,
      "inputs": [
        {
          "indexed": true,
          "internalType": "address",
          "name": "from",
          "type": "address"
        },
        {
          "indexed": true,
          "internalType": "address",
          "name": "to",
          "type": "address"
        },
        {
          "indexed": true,
          "internalType": "uint256",
          "name": "tokenId",
          "type": "uint256"
        }
      ],
      "name": "Transfer",
      "type": "event"
    },
    {
      "inputs": [
        {
          "internalType": "address",
          "name": "to",
          "type": "address"
        },
        {
          "internalType": "uint256",
          "name": "tokenId",
          "type": "uint256"
        }
      ],
      "name": "approve",
      "outputs": [],
      "stateMutability": "nonpayable",
      "type": "function"
    },
    {
      "inputs": [
        {
          "internalType": "address",
          "name": "owner",
          "type": "address"
        }
      ],
      "name": "balanceOf",
      "outputs": [
        {
          "internalType": "uint256",
          "name": "",
          "type": "uint256"
        }
      ],
      "stateMutability": "view",
      "type": "function"
    },
    {
      "inputs": [
        {
          "internalType": "string",
          "name": "_name",
          "type": "string"
        }
      ],
      "name": "createRandomPlant",
      "outputs": [],
      "stateMutability": "nonpayable",
      "type": "function"
    },
    {
      "inputs": [
        {
          "internalType": "address",
          "name": "",
          "type": "address"
        }
      ],
      "name": "farmerToPlantId",
      "outputs": [
        {
          "internalType": "uint256",
          "name": "",
          "type": "uint256"
        }
      ],
      "stateMutability": "view",
      "type": "function"
    },
    {
      "inputs": [
        {
          "internalType": "uint256",
          "name": "tokenId",
          "type": "uint256"
        }
      ],
      "name": "getApproved",
      "outputs": [
        {
          "internalType": "address",
          "name": "",
          "type": "address"
        }
      ],
      "stateMutability": "view",
      "type": "function"
    },
    {
      "inputs": [],
      "name": "getPlant",
      "outputs": [
        {
          "internalType": "uint256",
          "name": "",
          "type": "uint256"
        }
      ],
      "stateMutability": "view",
      "type": "function"
    },
    {
      "inputs": [],
      "name": "getPlants",
      "outputs": [
        {
          "components": [
            {
              "internalType": "string",
              "name": "name",
              "type": "string"
            },
            {
              "internalType": "address",
              "name": "farmer",
              "type": "address"
            },
            {
              "internalType": "uint16",
              "name": "dna",
              "type": "uint16"
            },
            {
              "internalType": "uint16",
              "name": "size",
              "type": "uint16"
            },
            {
              "internalType": "uint32",
              "name": "nextGrowTime",
              "type": "uint32"
            }
          ],
          "internalType": "struct CryptoPlants.PlantStruct[]",
          "name": "",
          "type": "tuple[]"
        }
      ],
      "stateMutability": "view",
      "type": "function"
    },
    {
      "inputs": [
        {
          "internalType": "address",
          "name": "",
          "type": "address"
        }
      ],
      "name": "hasPlant",
      "outputs": [
        {
          "internalType": "bool",
          "name": "",
          "type": "bool"
        }
      ],
      "stateMutability": "view",
      "type": "function"
    },
    {
      "inputs": [
        {
          "internalType": "address",
          "name": "owner",
          "type": "address"
        },
        {
          "internalType": "address",
          "name": "operator",
          "type": "address"
        }
      ],
      "name": "isApprovedForAll",
      "outputs": [
        {
          "internalType": "bool",
          "name": "",
          "type": "bool"
        }
      ],
      "stateMutability": "view",
      "type": "function"
    },
    {
      "inputs": [],
      "name": "name",
      "outputs": [
        {
          "internalType": "string",
          "name": "",
          "type": "string"
        }
      ],
      "stateMutability": "view",
      "type": "function"
    },
    {
      "inputs": [
        {
          "internalType": "uint256",
          "name": "tokenId",
          "type": "uint256"
        }
      ],
      "name": "ownerOf",
      "outputs": [
        {
          "internalType": "address",
          "name": "",
          "type": "address"
        }
      ],
      "stateMutability": "view",
      "type": "function"
    },
    {
      "inputs": [
        {
          "internalType": "uint256",
          "name": "",
          "type": "uint256"
        }
      ],
      "name": "plantIdToFarmer",
      "outputs": [
        {
          "internalType": "address",
          "name": "",
          "type": "address"
        }
      ],
      "stateMutability": "view",
      "type": "function"
    },
    {
      "inputs": [
        {
          "internalType": "uint256",
          "name": "",
          "type": "uint256"
        }
      ],
      "name": "plants",
      "outputs": [
        {
          "internalType": "string",
          "name": "name",
          "type": "string"
        },
        {
          "internalType": "address",
          "name": "farmer",
          "type": "address"
        },
        {
          "internalType": "uint16",
          "name": "dna",
          "type": "uint16"
        },
        {
          "internalType": "uint16",
          "name": "size",
          "type": "uint16"
        },
        {
          "internalType": "uint32",
          "name": "nextGrowTime",
          "type": "uint32"
        }
      ],
      "stateMutability": "view",
      "type": "function"
    },
    {
      "inputs": [
        {
          "internalType": "address",
          "name": "from",
          "type": "address"
        },
        {
          "internalType": "address",
          "name": "to",
          "type": "address"
        },
        {
          "internalType": "uint256",
          "name": "tokenId",
          "type": "uint256"
        }
      ],
      "name": "safeTransferFrom",
      "outputs": [],
      "stateMutability": "nonpayable",
      "type": "function"
    },
    {
      "inputs": [
        {
          "internalType": "address",
          "name": "from",
          "type": "address"
        },
        {
          "internalType": "address",
          "name": "to",
          "type": "address"
        },
        {
          "internalType": "uint256",
          "name": "tokenId",
          "type": "uint256"
        },
        {
          "internalType": "bytes",
          "name": "_data",
          "type": "bytes"
        }
      ],
      "name": "safeTransferFrom",
      "outputs": [],
      "stateMutability": "nonpayable",
      "type": "function"
    },
    {
      "inputs": [
        {
          "internalType": "address",
          "name": "operator",
          "type": "address"
        },
        {
          "internalType": "bool",
          "name": "approved",
          "type": "bool"
        }
      ],
      "name": "setApprovalForAll",
      "outputs": [],
      "stateMutability": "nonpayable",
      "type": "function"
    },
    {
      "inputs": [
        {
          "internalType": "bytes4",
          "name": "interfaceId",
          "type": "bytes4"
        }
      ],
      "name": "supportsInterface",
      "outputs": [
        {
          "internalType": "bool",
          "name": "",
          "type": "bool"
        }
      ],
      "stateMutability": "view",
      "type": "function"
    },
    {
      "inputs": [],
      "name": "symbol",
      "outputs": [
        {
          "internalType": "string",
          "name": "",
          "type": "string"
        }
      ],
      "stateMutability": "view",
      "type": "function"
    },
    {
      "inputs": [
        {
          "internalType": "uint256",
          "name": "tokenId",
          "type": "uint256"
        }
      ],
      "name": "tokenURI",
      "outputs": [
        {
          "internalType": "string",
          "name": "",
          "type": "string"
        }
      ],
      "stateMutability": "view",
      "type": "function"
    },
    {
      "inputs": [
        {
          "internalType": "address",
          "name": "from",
          "type": "address"
        },
        {
          "internalType": "address",
          "name": "to",
          "type": "address"
        },
        {
          "internalType": "uint256",
          "name": "tokenId",
          "type": "uint256"
        }
      ],
      "name": "transferFrom",
      "outputs": [],
      "stateMutability": "nonpayable",
      "type": "function"
    },
    {
      "inputs": [
        {
          "internalType": "uint256",
          "name": "_plantId",
          "type": "uint256"
        }
      ],
      "name": "waterPlant",
      "outputs": [],
      "stateMutability": "nonpayable",
      "type": "function"
    }
  ],
  "bytecode": "0x60806040526010600660006101000a81548160ff021916908360ff160217905550600660009054906101000a900460ff16600a6200003e919062000722565b600755610e106008553480156200005457600080fd5b506040518060400160405280600c81526020017f43727970746f506c616e747300000000000000000000000000000000000000008152506040518060400160405280600c81526020017f43727970746f506c616e747300000000000000000000000000000000000000008152508160009080519060200190620000d9929190620004d8565b508060019080519060200190620000f2929190620004d8565b5050506200013b6040518060400160405280600481526020017f54686561000000000000000000000000000000000000000000000000000000008152506200014160201b60201c565b62000b23565b60011515600a60003373ffffffffffffffffffffffffffffffffffffffff1673ffffffffffffffffffffffffffffffffffffffff16815260200190815260200160002060009054906101000a900460ff1615151415620001a057600080fd5b6000620001b382620001ec60201b60201c565b60ff169050606481620001c79190620007b0565b81620001d49190620007e8565b9050620001e882826200023560201b60201c565b5050565b60008082604051602001620002029190620008a6565b6040516020818303038152906040528051906020012060001c9050600754816200022d9190620008bf565b915050919050565b60096040518060a001604052808481526020013373ffffffffffffffffffffffffffffffffffffffff1681526020018361ffff168152602001600161ffff16815260200160085442620002899190620008f7565b63ffffffff1681525090806001815401808255809150506001900390600052602060002090600202016000909190919091506000820151816000019080519060200190620002d9929190620004d8565b5060208201518160010160006101000a81548173ffffffffffffffffffffffffffffffffffffffff021916908373ffffffffffffffffffffffffffffffffffffffff16021790555060408201518160010160146101000a81548161ffff021916908361ffff16021790555060608201518160010160166101000a81548161ffff021916908361ffff16021790555060808201518160010160186101000a81548163ffffffff021916908363ffffffff160217905550505060006001600980549050620003a6919062000954565b905033600b600083815260200190815260200160002060006101000a81548173ffffffffffffffffffffffffffffffffffffffff021916908373ffffffffffffffffffffffffffffffffffffffff16021790555080600c60003373ffffffffffffffffffffffffffffffffffffffff1673ffffffffffffffffffffffffffffffffffffffff168152602001908152602001600020819055506001600a60003373ffffffffffffffffffffffffffffffffffffffff1673ffffffffffffffffffffffffffffffffffffffff16815260200190815260200160002060006101000a81548160ff0219169083151502179055507f310f3f25b129830ccb19e5855f5de239631fa808ce5f89ab57026c19822540cc833384604051620004cb9392919062000a7a565b60405180910390a1505050565b828054620004e69062000aed565b90600052602060002090601f0160209004810192826200050a576000855562000556565b82601f106200052557805160ff191683800117855562000556565b8280016001018555821562000556579182015b828111156200055557825182559160200191906001019062000538565b5b50905062000565919062000569565b5090565b5b80821115620005845760008160009055506001016200056a565b5090565b7f4e487b7100000000000000000000000000000000000000000000000000000000600052601160045260246000fd5b60008160011c9050919050565b6000808291508390505b60018511156200061657808604811115620005ee57620005ed62000588565b5b6001851615620005fe5780820291505b80810290506200060e85620005b7565b9450620005ce565b94509492505050565b60008262000631576001905062000704565b8162000641576000905062000704565b81600181146200065a576002811462000665576200069b565b600191505062000704565b60ff8411156200067a576200067962000588565b5b8360020a91508482111562000694576200069362000588565b5b5062000704565b5060208310610133831016604e8410600b8410161715620006d55782820a905083811115620006cf57620006ce62000588565b5b62000704565b620006e48484846001620005c4565b92509050818404811115620006fe57620006fd62000588565b5b81810290505b9392505050565b6000819050919050565b600060ff82169050919050565b60006200072f826200070b565b91506200073c8362000715565b92506200076b7fffffffffffffffffffffffffffffffffffffffffffffffffffffffffffffffff84846200061f565b905092915050565b600061ffff82169050919050565b7f4e487b7100000000000000000000000000000000000000000000000000000000600052601260045260246000fd5b6000620007bd8262000773565b9150620007ca8362000773565b925082620007dd57620007dc62000781565b5b828206905092915050565b6000620007f58262000773565b9150620008028362000773565b92508282101562000818576200081762000588565b5b828203905092915050565b600081519050919050565b600081905092915050565b60005b83811015620008595780820151818401526020810190506200083c565b8381111562000869576000848401525b50505050565b60006200087c8262000823565b6200088881856200082e565b93506200089a81856020860162000839565b80840191505092915050565b6000620008b482846200086f565b915081905092915050565b6000620008cc826200070b565b9150620008d9836200070b565b925082620008ec57620008eb62000781565b5b828206905092915050565b600062000904826200070b565b915062000911836200070b565b9250827fffffffffffffffffffffffffffffffffffffffffffffffffffffffffffffffff0382111562000949576200094862000588565b5b828201905092915050565b600062000961826200070b565b91506200096e836200070b565b92508282101562000984576200098362000588565b5b828203905092915050565b600082825260208201905092915050565b6000601f19601f8301169050919050565b6000620009be8262000823565b620009ca81856200098f565b9350620009dc81856020860162000839565b620009e781620009a0565b840191505092915050565b600073ffffffffffffffffffffffffffffffffffffffff82169050919050565b600062000a1f82620009f2565b9050919050565b62000a318162000a12565b82525050565b6000819050919050565b600062000a6262000a5c62000a568462000773565b62000a37565b6200070b565b9050919050565b62000a748162000a41565b82525050565b6000606082019050818103600083015262000a968186620009b1565b905062000aa7602083018562000a26565b62000ab6604083018462000a69565b949350505050565b7f4e487b7100000000000000000000000000000000000000000000000000000000600052602260045260246000fd5b6000600282049050600182168062000b0657607f821691505b6020821081141562000b1d5762000b1c62000abe565b5b50919050565b6132ba8062000b336000396000f3fe608060405234801561001057600080fd5b50600436106101375760003560e01c80637bf4617a116100b8578063a184ed531161007c578063a184ed5314610376578063a22cb465146103a6578063b88d4fde146103c2578063c87b56dd146103de578063d8c620411461040e578063e985e9c51461042c57610137565b80637bf4617a146102ba5780638dd2361c146102d857806395d89b411461030c578063962439141461032a5780639886bcfa1461035a57610137565b806323b872dd116100ff57806323b872dd1461020657806342842e0e146102225780636352211e1461023e5780636ff7c88d1461026e57806370a082311461028a57610137565b806301ffc9a71461013c5780630528417a1461016c57806306fdde031461019c578063081812fc146101ba578063095ea7b3146101ea575b600080fd5b61015660048036038101906101519190611ea4565b61045c565b6040516101639190611eec565b60405180910390f35b61018660048036038101906101819190611f65565b61053e565b6040516101939190611eec565b60405180910390f35b6101a461055e565b6040516101b1919061202b565b60405180910390f35b6101d460048036038101906101cf9190612083565b6105f0565b6040516101e191906120bf565b60405180910390f35b61020460048036038101906101ff91906120da565b610675565b005b610220600480360381019061021b919061211a565b61078d565b005b61023c6004803603810190610237919061211a565b6107ed565b005b61025860048036038101906102539190612083565b61080d565b60405161026591906120bf565b60405180910390f35b610288600480360381019061028391906122a2565b6108bf565b005b6102a4600480360381019061029f9190611f65565b610955565b6040516102b191906122fa565b60405180910390f35b6102c2610a0d565b6040516102cf91906122fa565b60405180910390f35b6102f260048036038101906102ed9190612083565b610a54565b604051610303959493929190612351565b60405180910390f35b610314610b6e565b604051610321919061202b565b60405180910390f35b610344600480360381019061033f9190611f65565b610c00565b60405161035191906122fa565b60405180910390f35b610374600480360381019061036f9190612083565b610c18565b005b610390600480360381019061038b9190612083565b610d07565b60405161039d91906120bf565b60405180910390f35b6103c060048036038101906103bb91906123d7565b610d3a565b005b6103dc60048036038101906103d791906124b8565b610d50565b005b6103f860048036038101906103f39190612083565b610db2565b604051610405919061202b565b60405180910390f35b610416610e59565b60405161042391906126ea565b60405180910390f35b6104466004803603810190610441919061270c565b611006565b6040516104539190611eec565b60405180910390f35b60007f80ac58cd000000000000000000000000000000000000000000000000000000007bffffffffffffffffffffffffffffffffffffffffffffffffffffffff1916827bffffffffffffffffffffffffffffffffffffffffffffffffffffffff1916148061052757507f5b5e139f000000000000000000000000000000000000000000000000000000007bffffffffffffffffffffffffffffffffffffffffffffffffffffffff1916827bffffffffffffffffffffffffffffffffffffffffffffffffffffffff1916145b8061053757506105368261109a565b5b9050919050565b600a6020528060005260406000206000915054906101000a900460ff1681565b60606000805461056d9061277b565b80601f01602080910402602001604051908101604052809291908181526020018280546105999061277b565b80156105e65780601f106105bb576101008083540402835291602001916105e6565b820191906000526020600020905b8154815290600101906020018083116105c957829003601f168201915b5050505050905090565b60006105fb82611104565b61063a576040517f08c379a00000000000000000000000000000000000000000000000000000000081526004016106319061281f565b60405180910390fd5b6004600083815260200190815260200160002060009054906101000a900473ffffffffffffffffffffffffffffffffffffffff169050919050565b60006106808261080d565b90508073ffffffffffffffffffffffffffffffffffffffff168373ffffffffffffffffffffffffffffffffffffffff1614156106f1576040517f08c379a00000000000000000000000000000000000000000000000000000000081526004016106e8906128b1565b60405180910390fd5b8073ffffffffffffffffffffffffffffffffffffffff16610710611170565b73ffffffffffffffffffffffffffffffffffffffff16148061073f575061073e81610739611170565b611006565b5b61077e576040517f08c379a000000000000000000000000000000000000000000000000000000000815260040161077590612943565b60405180910390fd5b6107888383611178565b505050565b61079e610798611170565b82611231565b6107dd576040517f08c379a00000000000000000000000000000000000000000000000000000000081526004016107d4906129d5565b60405180910390fd5b6107e883838361130f565b505050565b61080883838360405180602001604052806000815250610d50565b505050565b6000806002600084815260200190815260200160002060009054906101000a900473ffffffffffffffffffffffffffffffffffffffff169050600073ffffffffffffffffffffffffffffffffffffffff168173ffffffffffffffffffffffffffffffffffffffff1614156108b6576040517f08c379a00000000000000000000000000000000000000000000000000000000081526004016108ad90612a67565b60405180910390fd5b80915050919050565b60011515600a60003373ffffffffffffffffffffffffffffffffffffffff1673ffffffffffffffffffffffffffffffffffffffff16815260200190815260200160002060009054906101000a900460ff161515141561091d57600080fd5b60006109288261156b565b60ff16905060648161093a9190612ab6565b816109459190612b16565b905061095182826115b0565b5050565b60008073ffffffffffffffffffffffffffffffffffffffff168273ffffffffffffffffffffffffffffffffffffffff1614156109c6576040517f08c379a00000000000000000000000000000000000000000000000000000000081526004016109bd90612bbc565b60405180910390fd5b600360008373ffffffffffffffffffffffffffffffffffffffff1673ffffffffffffffffffffffffffffffffffffffff168152602001908152602001600020549050919050565b6000600c60003373ffffffffffffffffffffffffffffffffffffffff1673ffffffffffffffffffffffffffffffffffffffff16815260200190815260200160002054905090565b60098181548110610a6457600080fd5b9060005260206000209060020201600091509050806000018054610a879061277b565b80601f0160208091040260200160405190810160405280929190818152602001828054610ab39061277b565b8015610b005780601f10610ad557610100808354040283529160200191610b00565b820191906000526020600020905b815481529060010190602001808311610ae357829003601f168201915b5050505050908060010160009054906101000a900473ffffffffffffffffffffffffffffffffffffffff16908060010160149054906101000a900461ffff16908060010160169054906101000a900461ffff16908060010160189054906101000a900463ffffffff16905085565b606060018054610b7d9061277b565b80601f0160208091040260200160405190810160405280929190818152602001828054610ba99061277b565b8015610bf65780601f10610bcb57610100808354040283529160200191610bf6565b820191906000526020600020905b815481529060010190602001808311610bd957829003601f168201915b5050505050905090565b600c6020528060005260406000206000915090505481565b80600b600082815260200190815260200160002060009054906101000a900473ffffffffffffffffffffffffffffffffffffffff1673ffffffffffffffffffffffffffffffffffffffff163373ffffffffffffffffffffffffffffffffffffffff1614610c8457600080fd5b600060098381548110610c9a57610c99612bdc565b5b90600052602060002090600202019050610cb38161184b565b610cbc57600080fd5b80600101601681819054906101000a900461ffff1680929190610cde90612c0b565b91906101000a81548161ffff021916908361ffff16021790555050610d0281611872565b505050565b600b6020528060005260406000206000915054906101000a900473ffffffffffffffffffffffffffffffffffffffff1681565b610d4c610d45611170565b83836118a5565b5050565b610d61610d5b611170565b83611231565b610da0576040517f08c379a0000000000000000000000000000000000000000000000000000000008152600401610d97906129d5565b60405180910390fd5b610dac84848484611a12565b50505050565b6060610dbd82611104565b610dfc576040517f08c379a0000000000000000000000000000000000000000000000000000000008152600401610df390612ca8565b60405180910390fd5b6000610e06611a6e565b90506000815111610e265760405180602001604052806000815250610e51565b80610e3084611a85565b604051602001610e41929190612d04565b6040516020818303038152906040525b915050919050565b60606009805480602002602001604051908101604052809291908181526020016000905b82821015610ffd57838290600052602060002090600202016040518060a0016040529081600082018054610eb09061277b565b80601f0160208091040260200160405190810160405280929190818152602001828054610edc9061277b565b8015610f295780601f10610efe57610100808354040283529160200191610f29565b820191906000526020600020905b815481529060010190602001808311610f0c57829003601f168201915b505050505081526020016001820160009054906101000a900473ffffffffffffffffffffffffffffffffffffffff1673ffffffffffffffffffffffffffffffffffffffff1673ffffffffffffffffffffffffffffffffffffffff1681526020016001820160149054906101000a900461ffff1661ffff1661ffff1681526020016001820160169054906101000a900461ffff1661ffff1661ffff1681526020016001820160189054906101000a900463ffffffff1663ffffffff1663ffffffff168152505081526020019060010190610e7d565b50505050905090565b6000600560008473ffffffffffffffffffffffffffffffffffffffff1673ffffffffffffffffffffffffffffffffffffffff16815260200190815260200160002060008373ffffffffffffffffffffffffffffffffffffffff1673ffffffffffffffffffffffffffffffffffffffff16815260200190815260200160002060009054906101000a900460ff16905092915050565b60007f01ffc9a7000000000000000000000000000000000000000000000000000000007bffffffffffffffffffffffffffffffffffffffffffffffffffffffff1916827bffffffffffffffffffffffffffffffffffffffffffffffffffffffff1916149050919050565b60008073ffffffffffffffffffffffffffffffffffffffff166002600084815260200190815260200160002060009054906101000a900473ffffffffffffffffffffffffffffffffffffffff1673ffffffffffffffffffffffffffffffffffffffff1614159050919050565b600033905090565b816004600083815260200190815260200160002060006101000a81548173ffffffffffffffffffffffffffffffffffffffff021916908373ffffffffffffffffffffffffffffffffffffffff160217905550808273ffffffffffffffffffffffffffffffffffffffff166111eb8361080d565b73ffffffffffffffffffffffffffffffffffffffff167f8c5be1e5ebec7d5bd14f71427d1e84f3dd0314c0f7b2291e5b200ac8c7c3b92560405160405180910390a45050565b600061123c82611104565b61127b576040517f08c379a000000000000000000000000000000000000000000000000000000000815260040161127290612d9a565b60405180910390fd5b60006112868361080d565b90508073ffffffffffffffffffffffffffffffffffffffff168473ffffffffffffffffffffffffffffffffffffffff1614806112f557508373ffffffffffffffffffffffffffffffffffffffff166112dd846105f0565b73ffffffffffffffffffffffffffffffffffffffff16145b8061130657506113058185611006565b5b91505092915050565b8273ffffffffffffffffffffffffffffffffffffffff1661132f8261080d565b73ffffffffffffffffffffffffffffffffffffffff1614611385576040517f08c379a000000000000000000000000000000000000000000000000000000000815260040161137c90612e2c565b60405180910390fd5b600073ffffffffffffffffffffffffffffffffffffffff168273ffffffffffffffffffffffffffffffffffffffff1614156113f5576040517f08c379a00000000000000000000000000000000000000000000000000000000081526004016113ec90612ebe565b60405180910390fd5b611400838383611be6565b61140b600082611178565b6001600360008573ffffffffffffffffffffffffffffffffffffffff1673ffffffffffffffffffffffffffffffffffffffff168152602001908152602001600020600082825461145b9190612ede565b925050819055506001600360008473ffffffffffffffffffffffffffffffffffffffff1673ffffffffffffffffffffffffffffffffffffffff16815260200190815260200160002060008282546114b29190612f12565b92505081905550816002600083815260200190815260200160002060006101000a81548173ffffffffffffffffffffffffffffffffffffffff021916908373ffffffffffffffffffffffffffffffffffffffff160217905550808273ffffffffffffffffffffffffffffffffffffffff168473ffffffffffffffffffffffffffffffffffffffff167fddf252ad1be2c89b69c2b068fc378daa952ba7f163c4a11628f55a4df523b3ef60405160405180910390a4505050565b6000808260405160200161157f9190612f68565b6040516020818303038152906040528051906020012060001c9050600754816115a89190612f7f565b915050919050565b60096040518060a001604052808481526020013373ffffffffffffffffffffffffffffffffffffffff1681526020018361ffff168152602001600161ffff168152602001600854426116029190612f12565b63ffffffff1681525090806001815401808255809150506001900390600052602060002090600202016000909190919091506000820151816000019080519060200190611650929190611d95565b5060208201518160010160006101000a81548173ffffffffffffffffffffffffffffffffffffffff021916908373ffffffffffffffffffffffffffffffffffffffff16021790555060408201518160010160146101000a81548161ffff021916908361ffff16021790555060608201518160010160166101000a81548161ffff021916908361ffff16021790555060808201518160010160186101000a81548163ffffffff021916908363ffffffff16021790555050506000600160098054905061171b9190612ede565b905033600b600083815260200190815260200160002060006101000a81548173ffffffffffffffffffffffffffffffffffffffff021916908373ffffffffffffffffffffffffffffffffffffffff16021790555080600c60003373ffffffffffffffffffffffffffffffffffffffff1673ffffffffffffffffffffffffffffffffffffffff168152602001908152602001600020819055506001600a60003373ffffffffffffffffffffffffffffffffffffffff1673ffffffffffffffffffffffffffffffffffffffff16815260200190815260200160002060006101000a81548160ff0219169083151502179055507f310f3f25b129830ccb19e5855f5de239631fa808ce5f89ab57026c19822540cc83338460405161183e93929190612feb565b60405180910390a1505050565b6000428260010160189054906101000a900463ffffffff1663ffffffff1611159050919050565b600854426118809190612f12565b8160010160186101000a81548163ffffffff021916908363ffffffff16021790555050565b8173ffffffffffffffffffffffffffffffffffffffff168373ffffffffffffffffffffffffffffffffffffffff161415611914576040517f08c379a000000000000000000000000000000000000000000000000000000000815260040161190b90613075565b60405180910390fd5b80600560008573ffffffffffffffffffffffffffffffffffffffff1673ffffffffffffffffffffffffffffffffffffffff16815260200190815260200160002060008473ffffffffffffffffffffffffffffffffffffffff1673ffffffffffffffffffffffffffffffffffffffff16815260200190815260200160002060006101000a81548160ff0219169083151502179055508173ffffffffffffffffffffffffffffffffffffffff168373ffffffffffffffffffffffffffffffffffffffff167f17307eab39ab6107e8899845ad3d59bd9653f200f220920489ca2b5937696c3183604051611a059190611eec565b60405180910390a3505050565b611a1d84848461130f565b611a2984848484611beb565b611a68576040517f08c379a0000000000000000000000000000000000000000000000000000000008152600401611a5f90613107565b60405180910390fd5b50505050565b606060405180602001604052806000815250905090565b60606000821415611acd576040518060400160405280600181526020017f30000000000000000000000000000000000000000000000000000000000000008152509050611be1565b600082905060005b60008214611aff578080611ae890613127565b915050600a82611af89190613170565b9150611ad5565b60008167ffffffffffffffff811115611b1b57611b1a612177565b5b6040519080825280601f01601f191660200182016040528015611b4d5781602001600182028036833780820191505090505b5090505b60008514611bda57600182611b669190612ede565b9150600a85611b759190612f7f565b6030611b819190612f12565b60f81b818381518110611b9757611b96612bdc565b5b60200101907effffffffffffffffffffffffffffffffffffffffffffffffffffffffffffff1916908160001a905350600a85611bd39190613170565b9450611b51565b8093505050505b919050565b505050565b6000611c0c8473ffffffffffffffffffffffffffffffffffffffff16611d82565b15611d75578373ffffffffffffffffffffffffffffffffffffffff1663150b7a02611c35611170565b8786866040518563ffffffff1660e01b8152600401611c5794939291906131f6565b602060405180830381600087803b158015611c7157600080fd5b505af1925050508015611ca257506040513d601f19601f82011682018060405250810190611c9f9190613257565b60015b611d25573d8060008114611cd2576040519150601f19603f3d011682016040523d82523d6000602084013e611cd7565b606091505b50600081511415611d1d576040517f08c379a0000000000000000000000000000000000000000000000000000000008152600401611d1490613107565b60405180910390fd5b805181602001fd5b63150b7a0260e01b7bffffffffffffffffffffffffffffffffffffffffffffffffffffffff1916817bffffffffffffffffffffffffffffffffffffffffffffffffffffffff191614915050611d7a565b600190505b949350505050565b600080823b905060008111915050919050565b828054611da19061277b565b90600052602060002090601f016020900481019282611dc35760008555611e0a565b82601f10611ddc57805160ff1916838001178555611e0a565b82800160010185558215611e0a579182015b82811115611e09578251825591602001919060010190611dee565b5b509050611e179190611e1b565b5090565b5b80821115611e34576000816000905550600101611e1c565b5090565b6000604051905090565b600080fd5b600080fd5b60007fffffffff0000000000000000000000000000000000000000000000000000000082169050919050565b611e8181611e4c565b8114611e8c57600080fd5b50565b600081359050611e9e81611e78565b92915050565b600060208284031215611eba57611eb9611e42565b5b6000611ec884828501611e8f565b91505092915050565b60008115159050919050565b611ee681611ed1565b82525050565b6000602082019050611f016000830184611edd565b92915050565b600073ffffffffffffffffffffffffffffffffffffffff82169050919050565b6000611f3282611f07565b9050919050565b611f4281611f27565b8114611f4d57600080fd5b50565b600081359050611f5f81611f39565b92915050565b600060208284031215611f7b57611f7a611e42565b5b6000611f8984828501611f50565b91505092915050565b600081519050919050565b600082825260208201905092915050565b60005b83811015611fcc578082015181840152602081019050611fb1565b83811115611fdb576000848401525b50505050565b6000601f19601f8301169050919050565b6000611ffd82611f92565b6120078185611f9d565b9350612017818560208601611fae565b61202081611fe1565b840191505092915050565b600060208201905081810360008301526120458184611ff2565b905092915050565b6000819050919050565b6120608161204d565b811461206b57600080fd5b50565b60008135905061207d81612057565b92915050565b60006020828403121561209957612098611e42565b5b60006120a78482850161206e565b91505092915050565b6120b981611f27565b82525050565b60006020820190506120d460008301846120b0565b92915050565b600080604083850312156120f1576120f0611e42565b5b60006120ff85828601611f50565b92505060206121108582860161206e565b9150509250929050565b60008060006060848603121561213357612132611e42565b5b600061214186828701611f50565b935050602061215286828701611f50565b92505060406121638682870161206e565b9150509250925092565b600080fd5b600080fd5b7f4e487b7100000000000000000000000000000000000000000000000000000000600052604160045260246000fd5b6121af82611fe1565b810181811067ffffffffffffffff821117156121ce576121cd612177565b5b80604052505050565b60006121e1611e38565b90506121ed82826121a6565b919050565b600067ffffffffffffffff82111561220d5761220c612177565b5b61221682611fe1565b9050602081019050919050565b82818337600083830152505050565b6000612245612240846121f2565b6121d7565b90508281526020810184848401111561226157612260612172565b5b61226c848285612223565b509392505050565b600082601f8301126122895761228861216d565b5b8135612299848260208601612232565b91505092915050565b6000602082840312156122b8576122b7611e42565b5b600082013567ffffffffffffffff8111156122d6576122d5611e47565b5b6122e284828501612274565b91505092915050565b6122f48161204d565b82525050565b600060208201905061230f60008301846122eb565b92915050565b600061ffff82169050919050565b61232c81612315565b82525050565b600063ffffffff82169050919050565b61234b81612332565b82525050565b600060a082019050818103600083015261236b8188611ff2565b905061237a60208301876120b0565b6123876040830186612323565b6123946060830185612323565b6123a16080830184612342565b9695505050505050565b6123b481611ed1565b81146123bf57600080fd5b50565b6000813590506123d1816123ab565b92915050565b600080604083850312156123ee576123ed611e42565b5b60006123fc85828601611f50565b925050602061240d858286016123c2565b9150509250929050565b600067ffffffffffffffff82111561243257612431612177565b5b61243b82611fe1565b9050602081019050919050565b600061245b61245684612417565b6121d7565b90508281526020810184848401111561247757612476612172565b5b612482848285612223565b509392505050565b600082601f83011261249f5761249e61216d565b5b81356124af848260208601612448565b91505092915050565b600080600080608085870312156124d2576124d1611e42565b5b60006124e087828801611f50565b94505060206124f187828801611f50565b93505060406125028782880161206e565b925050606085013567ffffffffffffffff81111561252357612522611e47565b5b61252f8782880161248a565b91505092959194509250565b600081519050919050565b600082825260208201905092915050565b6000819050602082019050919050565b600082825260208201905092915050565b600061258382611f92565b61258d8185612567565b935061259d818560208601611fae565b6125a681611fe1565b840191505092915050565b6125ba81611f27565b82525050565b6125c981612315565b82525050565b6125d881612332565b82525050565b600060a08301600083015184820360008601526125fb8282612578565b915050602083015161261060208601826125b1565b50604083015161262360408601826125c0565b50606083015161263660608601826125c0565b50608083015161264960808601826125cf565b508091505092915050565b600061266083836125de565b905092915050565b6000602082019050919050565b60006126808261253b565b61268a8185612546565b93508360208202850161269c85612557565b8060005b858110156126d857848403895281516126b98582612654565b94506126c483612668565b925060208a019950506001810190506126a0565b50829750879550505050505092915050565b600060208201905081810360008301526127048184612675565b905092915050565b6000806040838503121561272357612722611e42565b5b600061273185828601611f50565b925050602061274285828601611f50565b9150509250929050565b7f4e487b7100000000000000000000000000000000000000000000000000000000600052602260045260246000fd5b6000600282049050600182168061279357607f821691505b602082108114156127a7576127a661274c565b5b50919050565b7f4552433732313a20617070726f76656420717565727920666f72206e6f6e657860008201527f697374656e7420746f6b656e0000000000000000000000000000000000000000602082015250565b6000612809602c83611f9d565b9150612814826127ad565b604082019050919050565b60006020820190508181036000830152612838816127fc565b9050919050565b7f4552433732313a20617070726f76616c20746f2063757272656e74206f776e6560008201527f7200000000000000000000000000000000000000000000000000000000000000602082015250565b600061289b602183611f9d565b91506128a68261283f565b604082019050919050565b600060208201905081810360008301526128ca8161288e565b9050919050565b7f4552433732313a20617070726f76652063616c6c6572206973206e6f74206f7760008201527f6e6572206e6f7220617070726f76656420666f7220616c6c0000000000000000602082015250565b600061292d603883611f9d565b9150612938826128d1565b604082019050919050565b6000602082019050818103600083015261295c81612920565b9050919050565b7f4552433732313a207472616e736665722063616c6c6572206973206e6f74206f60008201527f776e6572206e6f7220617070726f766564000000000000000000000000000000602082015250565b60006129bf603183611f9d565b91506129ca82612963565b604082019050919050565b600060208201905081810360008301526129ee816129b2565b9050919050565b7f4552433732313a206f776e657220717565727920666f72206e6f6e657869737460008201527f656e7420746f6b656e0000000000000000000000000000000000000000000000602082015250565b6000612a51602983611f9d565b9150612a5c826129f5565b604082019050919050565b60006020820190508181036000830152612a8081612a44565b9050919050565b7f4e487b7100000000000000000000000000000000000000000000000000000000600052601260045260246000fd5b6000612ac182612315565b9150612acc83612315565b925082612adc57612adb612a87565b5b828206905092915050565b7f4e487b7100000000000000000000000000000000000000000000000000000000600052601160045260246000fd5b6000612b2182612315565b9150612b2c83612315565b925082821015612b3f57612b3e612ae7565b5b828203905092915050565b7f4552433732313a2062616c616e636520717565727920666f7220746865207a6560008201527f726f206164647265737300000000000000000000000000000000000000000000602082015250565b6000612ba6602a83611f9d565b9150612bb182612b4a565b604082019050919050565b60006020820190508181036000830152612bd581612b99565b9050919050565b7f4e487b7100000000000000000000000000000000000000000000000000000000600052603260045260246000fd5b6000612c1682612315565b915061ffff821415612c2b57612c2a612ae7565b5b600182019050919050565b7f4552433732314d657461646174613a2055524920717565727920666f72206e6f60008201527f6e6578697374656e7420746f6b656e0000000000000000000000000000000000602082015250565b6000612c92602f83611f9d565b9150612c9d82612c36565b604082019050919050565b60006020820190508181036000830152612cc181612c85565b9050919050565b600081905092915050565b6000612cde82611f92565b612ce88185612cc8565b9350612cf8818560208601611fae565b80840191505092915050565b6000612d108285612cd3565b9150612d1c8284612cd3565b91508190509392505050565b7f4552433732313a206f70657261746f7220717565727920666f72206e6f6e657860008201527f697374656e7420746f6b656e0000000000000000000000000000000000000000602082015250565b6000612d84602c83611f9d565b9150612d8f82612d28565b604082019050919050565b60006020820190508181036000830152612db381612d77565b9050919050565b7f4552433732313a207472616e73666572206f6620746f6b656e2074686174206960008201527f73206e6f74206f776e0000000000000000000000000000000000000000000000602082015250565b6000612e16602983611f9d565b9150612e2182612dba565b604082019050919050565b60006020820190508181036000830152612e4581612e09565b9050919050565b7f4552433732313a207472616e7366657220746f20746865207a65726f2061646460008201527f7265737300000000000000000000000000000000000000000000000000000000602082015250565b6000612ea8602483611f9d565b9150612eb382612e4c565b604082019050919050565b60006020820190508181036000830152612ed781612e9b565b9050919050565b6000612ee98261204d565b9150612ef48361204d565b925082821015612f0757612f06612ae7565b5b828203905092915050565b6000612f1d8261204d565b9150612f288361204d565b9250827fffffffffffffffffffffffffffffffffffffffffffffffffffffffffffffffff03821115612f5d57612f5c612ae7565b5b828201905092915050565b6000612f748284612cd3565b915081905092915050565b6000612f8a8261204d565b9150612f958361204d565b925082612fa557612fa4612a87565b5b828206905092915050565b6000819050919050565b6000612fd5612fd0612fcb84612315565b612fb0565b61204d565b9050919050565b612fe581612fba565b82525050565b600060608201905081810360008301526130058186611ff2565b905061301460208301856120b0565b6130216040830184612fdc565b949350505050565b7f4552433732313a20617070726f766520746f2063616c6c657200000000000000600082015250565b600061305f601983611f9d565b915061306a82613029565b602082019050919050565b6000602082019050818103600083015261308e81613052565b9050919050565b7f4552433732313a207472616e7366657220746f206e6f6e20455243373231526560008201527f63656976657220696d706c656d656e7465720000000000000000000000000000602082015250565b60006130f1603283611f9d565b91506130fc82613095565b604082019050919050565b60006020820190508181036000830152613120816130e4565b9050919050565b60006131328261204d565b91507fffffffffffffffffffffffffffffffffffffffffffffffffffffffffffffffff82141561316557613164612ae7565b5b600182019050919050565b600061317b8261204d565b91506131868361204d565b92508261319657613195612a87565b5b828204905092915050565b600081519050919050565b600082825260208201905092915050565b60006131c8826131a1565b6131d281856131ac565b93506131e2818560208601611fae565b6131eb81611fe1565b840191505092915050565b600060808201905061320b60008301876120b0565b61321860208301866120b0565b61322560408301856122eb565b818103606083015261323781846131bd565b905095945050505050565b60008151905061325181611e78565b92915050565b60006020828403121561326d5761326c611e42565b5b600061327b84828501613242565b9150509291505056fea2646970667358221220d701ebd02a9b92d3a46c4c735a9478639f8626d55563172c2bff73856e41bcb964736f6c63430008090033",
  "linkReferences": {},
  "deployedLinkReferences": {}
}