{
  "_format": "hh-sol-artifact-1",
  "contractName": "PlantGrower",
  "sourceName": "contracts/PlantGrower.sol",
  "abi": [
    {
      "inputs": [],
      "stateMutability": "nonpayable",
      "type": "constructor"
    },
    {
      "anonymous": false,
      "inputs": [
        {
          "indexed": true,
          "internalType": "address",
          "name": "owner",
          "type": "address"
        },
        {
          "indexed": true,
          "internalType": "address",
          "name": "approved",
          "type": "address"
        },
        {
          "indexed": true,
          "internalType": "uint256",
          "name": "tokenId",
          "type": "uint256"
        }
      ],
      "name": "Approval",
      "type": "event"
    },
    {
      "anonymous": false,
      "inputs": [
        {
          "indexed": true,
          "internalType": "address",
          "name": "owner",
          "type": "address"
        },
        {
          "indexed": true,
          "internalType": "address",
          "name": "operator",
          "type": "address"
        },
        {
          "indexed": false,
          "internalType": "bool",
          "name": "approved",
          "type": "bool"
        }
      ],
      "name": "ApprovalForAll",
      "type": "event"
    },
    {
      "anonymous": false,
      "inputs": [
        {
          "indexed": true,
          "internalType": "address",
          "name": "from",
          "type": "address"
        },
        {
          "indexed": true,
          "internalType": "address",
          "name": "to",
          "type": "address"
        },
        {
          "indexed": true,
          "internalType": "uint256",
          "name": "tokenId",
          "type": "uint256"
        }
      ],
      "name": "Transfer",
      "type": "event"
    },
    {
      "inputs": [
        {
          "internalType": "address",
          "name": "to",
          "type": "address"
        },
        {
          "internalType": "uint256",
          "name": "tokenId",
          "type": "uint256"
        }
      ],
      "name": "approve",
      "outputs": [],
      "stateMutability": "nonpayable",
      "type": "function"
    },
    {
      "inputs": [
        {
          "internalType": "address",
          "name": "owner",
          "type": "address"
        }
      ],
      "name": "balanceOf",
      "outputs": [
        {
          "internalType": "uint256",
          "name": "",
          "type": "uint256"
        }
      ],
      "stateMutability": "view",
      "type": "function"
    },
    {
      "inputs": [
        {
          "internalType": "string",
          "name": "_name",
          "type": "string"
        }
      ],
      "name": "createRandomPlant",
      "outputs": [],
      "stateMutability": "nonpayable",
      "type": "function"
    },
    {
      "inputs": [
        {
          "internalType": "uint256",
          "name": "tokenId",
          "type": "uint256"
        }
      ],
      "name": "getApproved",
      "outputs": [
        {
          "internalType": "address",
          "name": "",
          "type": "address"
        }
      ],
      "stateMutability": "view",
      "type": "function"
    },
    {
      "inputs": [
        {
          "internalType": "address",
          "name": "owner",
          "type": "address"
        },
        {
          "internalType": "address",
          "name": "operator",
          "type": "address"
        }
      ],
      "name": "isApprovedForAll",
      "outputs": [
        {
          "internalType": "bool",
          "name": "",
          "type": "bool"
        }
      ],
      "stateMutability": "view",
      "type": "function"
    },
    {
      "inputs": [],
      "name": "name",
      "outputs": [
        {
          "internalType": "string",
          "name": "",
          "type": "string"
        }
      ],
      "stateMutability": "view",
      "type": "function"
    },
    {
      "inputs": [
        {
          "internalType": "uint256",
          "name": "tokenId",
          "type": "uint256"
        }
      ],
      "name": "ownerOf",
      "outputs": [
        {
          "internalType": "address",
          "name": "",
          "type": "address"
        }
      ],
      "stateMutability": "view",
      "type": "function"
    },
    {
      "inputs": [
        {
          "internalType": "uint256",
          "name": "",
          "type": "uint256"
        }
      ],
      "name": "plantToFarmer",
      "outputs": [
        {
          "internalType": "address",
          "name": "",
          "type": "address"
        }
      ],
      "stateMutability": "view",
      "type": "function"
    },
    {
      "inputs": [
        {
          "internalType": "uint256",
          "name": "",
          "type": "uint256"
        }
      ],
      "name": "plants",
      "outputs": [
        {
          "internalType": "string",
          "name": "name",
          "type": "string"
        },
        {
          "internalType": "uint16",
          "name": "dna",
          "type": "uint16"
        },
        {
          "internalType": "uint16",
          "name": "growSize",
          "type": "uint16"
        },
        {
          "internalType": "uint32",
          "name": "nextGrowTime",
          "type": "uint32"
        }
      ],
      "stateMutability": "view",
      "type": "function"
    },
    {
      "inputs": [
        {
          "internalType": "address",
          "name": "from",
          "type": "address"
        },
        {
          "internalType": "address",
          "name": "to",
          "type": "address"
        },
        {
          "internalType": "uint256",
          "name": "tokenId",
          "type": "uint256"
        }
      ],
      "name": "safeTransferFrom",
      "outputs": [],
      "stateMutability": "nonpayable",
      "type": "function"
    },
    {
      "inputs": [
        {
          "internalType": "address",
          "name": "from",
          "type": "address"
        },
        {
          "internalType": "address",
          "name": "to",
          "type": "address"
        },
        {
          "internalType": "uint256",
          "name": "tokenId",
          "type": "uint256"
        },
        {
          "internalType": "bytes",
          "name": "_data",
          "type": "bytes"
        }
      ],
      "name": "safeTransferFrom",
      "outputs": [],
      "stateMutability": "nonpayable",
      "type": "function"
    },
    {
      "inputs": [
        {
          "internalType": "address",
          "name": "operator",
          "type": "address"
        },
        {
          "internalType": "bool",
          "name": "approved",
          "type": "bool"
        }
      ],
      "name": "setApprovalForAll",
      "outputs": [],
      "stateMutability": "nonpayable",
      "type": "function"
    },
    {
      "inputs": [
        {
          "internalType": "bytes4",
          "name": "interfaceId",
          "type": "bytes4"
        }
      ],
      "name": "supportsInterface",
      "outputs": [
        {
          "internalType": "bool",
          "name": "",
          "type": "bool"
        }
      ],
      "stateMutability": "view",
      "type": "function"
    },
    {
      "inputs": [],
      "name": "symbol",
      "outputs": [
        {
          "internalType": "string",
          "name": "",
          "type": "string"
        }
      ],
      "stateMutability": "view",
      "type": "function"
    },
    {
      "inputs": [
        {
          "internalType": "uint256",
          "name": "tokenId",
          "type": "uint256"
        }
      ],
      "name": "tokenURI",
      "outputs": [
        {
          "internalType": "string",
          "name": "",
          "type": "string"
        }
      ],
      "stateMutability": "view",
      "type": "function"
    },
    {
      "inputs": [
        {
          "internalType": "address",
          "name": "from",
          "type": "address"
        },
        {
          "internalType": "address",
          "name": "to",
          "type": "address"
        },
        {
          "internalType": "uint256",
          "name": "tokenId",
          "type": "uint256"
        }
      ],
      "name": "transferFrom",
      "outputs": [],
      "stateMutability": "nonpayable",
      "type": "function"
    }
  ],
  "bytecode": "0x60806040526008600660006101000a81548160ff021916908360ff160217905550600660009054906101000a900460ff16600a6200003e919062000345565b600755610e106008553480156200005457600080fd5b506040518060400160405280600b81526020017f506c616e7447726f7765720000000000000000000000000000000000000000008152506040518060400160405280600b81526020017f706c616e7447726f7765720000000000000000000000000000000000000000008152508160009080519060200190620000d9929190620000fb565b508060019080519060200190620000f2929190620000fb565b505050620003fb565b8280546200010990620003c5565b90600052602060002090601f0160209004810192826200012d576000855562000179565b82601f106200014857805160ff191683800117855562000179565b8280016001018555821562000179579182015b82811115620001785782518255916020019190600101906200015b565b5b5090506200018891906200018c565b5090565b5b80821115620001a75760008160009055506001016200018d565b5090565b7f4e487b7100000000000000000000000000000000000000000000000000000000600052601160045260246000fd5b60008160011c9050919050565b6000808291508390505b60018511156200023957808604811115620002115762000210620001ab565b5b6001851615620002215780820291505b80810290506200023185620001da565b9450620001f1565b94509492505050565b60008262000254576001905062000327565b8162000264576000905062000327565b81600181146200027d57600281146200028857620002be565b600191505062000327565b60ff8411156200029d576200029c620001ab565b5b8360020a915084821115620002b757620002b6620001ab565b5b5062000327565b5060208310610133831016604e8410600b8410161715620002f85782820a905083811115620002f257620002f1620001ab565b5b62000327565b620003078484846001620001e7565b92509050818404811115620003215762000320620001ab565b5b81810290505b9392505050565b6000819050919050565b600060ff82169050919050565b600062000352826200032e565b91506200035f8362000338565b92506200038e7fffffffffffffffffffffffffffffffffffffffffffffffffffffffffffffffff848462000242565b905092915050565b7f4e487b7100000000000000000000000000000000000000000000000000000000600052602260045260246000fd5b60006002820490506001821680620003de57607f821691505b60208210811415620003f557620003f462000396565b5b50919050565b612a21806200040b6000396000f3fe608060405234801561001057600080fd5b50600436106101005760003560e01c806370a0823111610097578063b88d4fde11610066578063b88d4fde146102c0578063b90588d4146102dc578063c87b56dd1461030c578063e985e9c51461033c57610100565b806370a08231146102235780638dd2361c1461025357806395d89b4114610286578063a22cb465146102a457610100565b806323b872dd116100d357806323b872dd1461019f57806342842e0e146101bb5780636352211e146101d75780636ff7c88d1461020757610100565b806301ffc9a71461010557806306fdde0314610135578063081812fc14610153578063095ea7b314610183575b600080fd5b61011f600480360381019061011a9190611881565b61036c565b60405161012c91906118c9565b60405180910390f35b61013d61044e565b60405161014a919061197d565b60405180910390f35b61016d600480360381019061016891906119d5565b6104e0565b60405161017a9190611a43565b60405180910390f35b61019d60048036038101906101989190611a8a565b610565565b005b6101b960048036038101906101b49190611aca565b61067d565b005b6101d560048036038101906101d09190611aca565b6106dd565b005b6101f160048036038101906101ec91906119d5565b6106fd565b6040516101fe9190611a43565b60405180910390f35b610221600480360381019061021c9190611c52565b6107af565b005b61023d60048036038101906102389190611c9b565b6107e4565b60405161024a9190611cd7565b60405180910390f35b61026d600480360381019061026891906119d5565b61089c565b60405161027d9493929190611d2e565b60405180910390f35b61028e610990565b60405161029b919061197d565b60405180910390f35b6102be60048036038101906102b99190611da6565b610a22565b005b6102da60048036038101906102d59190611e87565b610a38565b005b6102f660048036038101906102f191906119d5565b610a9a565b6040516103039190611a43565b60405180910390f35b610326600480360381019061032191906119d5565b610acd565b604051610333919061197d565b60405180910390f35b61035660048036038101906103519190611f0a565b610b74565b60405161036391906118c9565b60405180910390f35b60007f80ac58cd000000000000000000000000000000000000000000000000000000007bffffffffffffffffffffffffffffffffffffffffffffffffffffffff1916827bffffffffffffffffffffffffffffffffffffffffffffffffffffffff1916148061043757507f5b5e139f000000000000000000000000000000000000000000000000000000007bffffffffffffffffffffffffffffffffffffffffffffffffffffffff1916827bffffffffffffffffffffffffffffffffffffffffffffffffffffffff1916145b80610447575061044682610c08565b5b9050919050565b60606000805461045d90611f79565b80601f016020809104026020016040519081016040528092919081815260200182805461048990611f79565b80156104d65780601f106104ab576101008083540402835291602001916104d6565b820191906000526020600020905b8154815290600101906020018083116104b957829003601f168201915b5050505050905090565b60006104eb82610c72565b61052a576040517f08c379a00000000000000000000000000000000000000000000000000000000081526004016105219061201d565b60405180910390fd5b6004600083815260200190815260200160002060009054906101000a900473ffffffffffffffffffffffffffffffffffffffff169050919050565b6000610570826106fd565b90508073ffffffffffffffffffffffffffffffffffffffff168373ffffffffffffffffffffffffffffffffffffffff1614156105e1576040517f08c379a00000000000000000000000000000000000000000000000000000000081526004016105d8906120af565b60405180910390fd5b8073ffffffffffffffffffffffffffffffffffffffff16610600610cde565b73ffffffffffffffffffffffffffffffffffffffff16148061062f575061062e81610629610cde565b610b74565b5b61066e576040517f08c379a000000000000000000000000000000000000000000000000000000000815260040161066590612141565b60405180910390fd5b6106788383610ce6565b505050565b61068e610688610cde565b82610d9f565b6106cd576040517f08c379a00000000000000000000000000000000000000000000000000000000081526004016106c4906121d3565b60405180910390fd5b6106d8838383610e7d565b505050565b6106f883838360405180602001604052806000815250610a38565b505050565b6000806002600084815260200190815260200160002060009054906101000a900473ffffffffffffffffffffffffffffffffffffffff169050600073ffffffffffffffffffffffffffffffffffffffff168173ffffffffffffffffffffffffffffffffffffffff1614156107a6576040517f08c379a000000000000000000000000000000000000000000000000000000000815260040161079d90612265565b60405180910390fd5b80915050919050565b60006107ba826110d9565b90506064816107c991906122c1565b816107d49190612321565b90506107e0828261111e565b5050565b60008073ffffffffffffffffffffffffffffffffffffffff168273ffffffffffffffffffffffffffffffffffffffff161415610855576040517f08c379a000000000000000000000000000000000000000000000000000000000815260040161084c906123c7565b60405180910390fd5b600360008373ffffffffffffffffffffffffffffffffffffffff1673ffffffffffffffffffffffffffffffffffffffff168152602001908152602001600020549050919050565b600981815481106108ac57600080fd5b90600052602060002090600202016000915090508060000180546108cf90611f79565b80601f01602080910402602001604051908101604052809291908181526020018280546108fb90611f79565b80156109485780601f1061091d57610100808354040283529160200191610948565b820191906000526020600020905b81548152906001019060200180831161092b57829003601f168201915b5050505050908060010160009054906101000a900461ffff16908060010160029054906101000a900461ffff16908060010160049054906101000a900463ffffffff16905084565b60606001805461099f90611f79565b80601f01602080910402602001604051908101604052809291908181526020018280546109cb90611f79565b8015610a185780601f106109ed57610100808354040283529160200191610a18565b820191906000526020600020905b8154815290600101906020018083116109fb57829003601f168201915b5050505050905090565b610a34610a2d610cde565b8383611282565b5050565b610a49610a43610cde565b83610d9f565b610a88576040517f08c379a0000000000000000000000000000000000000000000000000000000008152600401610a7f906121d3565b60405180910390fd5b610a94848484846113ef565b50505050565b600a6020528060005260406000206000915054906101000a900473ffffffffffffffffffffffffffffffffffffffff1681565b6060610ad882610c72565b610b17576040517f08c379a0000000000000000000000000000000000000000000000000000000008152600401610b0e90612459565b60405180910390fd5b6000610b2161144b565b90506000815111610b415760405180602001604052806000815250610b6c565b80610b4b84611462565b604051602001610b5c9291906124b5565b6040516020818303038152906040525b915050919050565b6000600560008473ffffffffffffffffffffffffffffffffffffffff1673ffffffffffffffffffffffffffffffffffffffff16815260200190815260200160002060008373ffffffffffffffffffffffffffffffffffffffff1673ffffffffffffffffffffffffffffffffffffffff16815260200190815260200160002060009054906101000a900460ff16905092915050565b60007f01ffc9a7000000000000000000000000000000000000000000000000000000007bffffffffffffffffffffffffffffffffffffffffffffffffffffffff1916827bffffffffffffffffffffffffffffffffffffffffffffffffffffffff1916149050919050565b60008073ffffffffffffffffffffffffffffffffffffffff166002600084815260200190815260200160002060009054906101000a900473ffffffffffffffffffffffffffffffffffffffff1673ffffffffffffffffffffffffffffffffffffffff1614159050919050565b600033905090565b816004600083815260200190815260200160002060006101000a81548173ffffffffffffffffffffffffffffffffffffffff021916908373ffffffffffffffffffffffffffffffffffffffff160217905550808273ffffffffffffffffffffffffffffffffffffffff16610d59836106fd565b73ffffffffffffffffffffffffffffffffffffffff167f8c5be1e5ebec7d5bd14f71427d1e84f3dd0314c0f7b2291e5b200ac8c7c3b92560405160405180910390a45050565b6000610daa82610c72565b610de9576040517f08c379a0000000000000000000000000000000000000000000000000000000008152600401610de09061254b565b60405180910390fd5b6000610df4836106fd565b90508073ffffffffffffffffffffffffffffffffffffffff168473ffffffffffffffffffffffffffffffffffffffff161480610e6357508373ffffffffffffffffffffffffffffffffffffffff16610e4b846104e0565b73ffffffffffffffffffffffffffffffffffffffff16145b80610e745750610e738185610b74565b5b91505092915050565b8273ffffffffffffffffffffffffffffffffffffffff16610e9d826106fd565b73ffffffffffffffffffffffffffffffffffffffff1614610ef3576040517f08c379a0000000000000000000000000000000000000000000000000000000008152600401610eea906125dd565b60405180910390fd5b600073ffffffffffffffffffffffffffffffffffffffff168273ffffffffffffffffffffffffffffffffffffffff161415610f63576040517f08c379a0000000000000000000000000000000000000000000000000000000008152600401610f5a9061266f565b60405180910390fd5b610f6e8383836115c3565b610f79600082610ce6565b6001600360008573ffffffffffffffffffffffffffffffffffffffff1673ffffffffffffffffffffffffffffffffffffffff1681526020019081526020016000206000828254610fc9919061268f565b925050819055506001600360008473ffffffffffffffffffffffffffffffffffffffff1673ffffffffffffffffffffffffffffffffffffffff168152602001908152602001600020600082825461102091906126c3565b92505081905550816002600083815260200190815260200160002060006101000a81548173ffffffffffffffffffffffffffffffffffffffff021916908373ffffffffffffffffffffffffffffffffffffffff160217905550808273ffffffffffffffffffffffffffffffffffffffff168473ffffffffffffffffffffffffffffffffffffffff167fddf252ad1be2c89b69c2b068fc378daa952ba7f163c4a11628f55a4df523b3ef60405160405180910390a4505050565b600080826040516020016110ed9190612719565b6040516020818303038152906040528051906020012060001c9050600754816111169190612730565b915050919050565b600960405180608001604052808481526020018360ff1661ffff168152602001600161ffff1681526020016008544261115791906126c3565b63ffffffff16815250908060018154018082558091505060019003906000526020600020906002020160009091909190915060008201518160000190805190602001906111a5929190611772565b5060208201518160010160006101000a81548161ffff021916908361ffff16021790555060408201518160010160026101000a81548161ffff021916908361ffff16021790555060608201518160010160046101000a81548163ffffffff021916908363ffffffff160217905550505060006001600980549050611229919061268f565b905033600a600083815260200190815260200160002060006101000a81548173ffffffffffffffffffffffffffffffffffffffff021916908373ffffffffffffffffffffffffffffffffffffffff160217905550505050565b8173ffffffffffffffffffffffffffffffffffffffff168373ffffffffffffffffffffffffffffffffffffffff1614156112f1576040517f08c379a00000000000000000000000000000000000000000000000000000000081526004016112e8906127ad565b60405180910390fd5b80600560008573ffffffffffffffffffffffffffffffffffffffff1673ffffffffffffffffffffffffffffffffffffffff16815260200190815260200160002060008473ffffffffffffffffffffffffffffffffffffffff1673ffffffffffffffffffffffffffffffffffffffff16815260200190815260200160002060006101000a81548160ff0219169083151502179055508173ffffffffffffffffffffffffffffffffffffffff168373ffffffffffffffffffffffffffffffffffffffff167f17307eab39ab6107e8899845ad3d59bd9653f200f220920489ca2b5937696c31836040516113e291906118c9565b60405180910390a3505050565b6113fa848484610e7d565b611406848484846115c8565b611445576040517f08c379a000000000000000000000000000000000000000000000000000000000815260040161143c9061283f565b60405180910390fd5b50505050565b606060405180602001604052806000815250905090565b606060008214156114aa576040518060400160405280600181526020017f300000000000000000000000000000000000000000000000000000000000000081525090506115be565b600082905060005b600082146114dc5780806114c59061285f565b915050600a826114d591906128a8565b91506114b2565b60008167ffffffffffffffff8111156114f8576114f7611b27565b5b6040519080825280601f01601f19166020018201604052801561152a5781602001600182028036833780820191505090505b5090505b600085146115b757600182611543919061268f565b9150600a856115529190612730565b603061155e91906126c3565b60f81b818381518110611574576115736128d9565b5b60200101907effffffffffffffffffffffffffffffffffffffffffffffffffffffffffffff1916908160001a905350600a856115b091906128a8565b945061152e565b8093505050505b919050565b505050565b60006115e98473ffffffffffffffffffffffffffffffffffffffff1661175f565b15611752578373ffffffffffffffffffffffffffffffffffffffff1663150b7a02611612610cde565b8786866040518563ffffffff1660e01b8152600401611634949392919061295d565b602060405180830381600087803b15801561164e57600080fd5b505af192505050801561167f57506040513d601f19601f8201168201806040525081019061167c91906129be565b60015b611702573d80600081146116af576040519150601f19603f3d011682016040523d82523d6000602084013e6116b4565b606091505b506000815114156116fa576040517f08c379a00000000000000000000000000000000000000000000000000000000081526004016116f19061283f565b60405180910390fd5b805181602001fd5b63150b7a0260e01b7bffffffffffffffffffffffffffffffffffffffffffffffffffffffff1916817bffffffffffffffffffffffffffffffffffffffffffffffffffffffff191614915050611757565b600190505b949350505050565b600080823b905060008111915050919050565b82805461177e90611f79565b90600052602060002090601f0160209004810192826117a057600085556117e7565b82601f106117b957805160ff19168380011785556117e7565b828001600101855582156117e7579182015b828111156117e65782518255916020019190600101906117cb565b5b5090506117f491906117f8565b5090565b5b808211156118115760008160009055506001016117f9565b5090565b6000604051905090565b600080fd5b600080fd5b60007fffffffff0000000000000000000000000000000000000000000000000000000082169050919050565b61185e81611829565b811461186957600080fd5b50565b60008135905061187b81611855565b92915050565b6000602082840312156118975761189661181f565b5b60006118a58482850161186c565b91505092915050565b60008115159050919050565b6118c3816118ae565b82525050565b60006020820190506118de60008301846118ba565b92915050565b600081519050919050565b600082825260208201905092915050565b60005b8381101561191e578082015181840152602081019050611903565b8381111561192d576000848401525b50505050565b6000601f19601f8301169050919050565b600061194f826118e4565b61195981856118ef565b9350611969818560208601611900565b61197281611933565b840191505092915050565b600060208201905081810360008301526119978184611944565b905092915050565b6000819050919050565b6119b28161199f565b81146119bd57600080fd5b50565b6000813590506119cf816119a9565b92915050565b6000602082840312156119eb576119ea61181f565b5b60006119f9848285016119c0565b91505092915050565b600073ffffffffffffffffffffffffffffffffffffffff82169050919050565b6000611a2d82611a02565b9050919050565b611a3d81611a22565b82525050565b6000602082019050611a586000830184611a34565b92915050565b611a6781611a22565b8114611a7257600080fd5b50565b600081359050611a8481611a5e565b92915050565b60008060408385031215611aa157611aa061181f565b5b6000611aaf85828601611a75565b9250506020611ac0858286016119c0565b9150509250929050565b600080600060608486031215611ae357611ae261181f565b5b6000611af186828701611a75565b9350506020611b0286828701611a75565b9250506040611b13868287016119c0565b9150509250925092565b600080fd5b600080fd5b7f4e487b7100000000000000000000000000000000000000000000000000000000600052604160045260246000fd5b611b5f82611933565b810181811067ffffffffffffffff82111715611b7e57611b7d611b27565b5b80604052505050565b6000611b91611815565b9050611b9d8282611b56565b919050565b600067ffffffffffffffff821115611bbd57611bbc611b27565b5b611bc682611933565b9050602081019050919050565b82818337600083830152505050565b6000611bf5611bf084611ba2565b611b87565b905082815260208101848484011115611c1157611c10611b22565b5b611c1c848285611bd3565b509392505050565b600082601f830112611c3957611c38611b1d565b5b8135611c49848260208601611be2565b91505092915050565b600060208284031215611c6857611c6761181f565b5b600082013567ffffffffffffffff811115611c8657611c85611824565b5b611c9284828501611c24565b91505092915050565b600060208284031215611cb157611cb061181f565b5b6000611cbf84828501611a75565b91505092915050565b611cd18161199f565b82525050565b6000602082019050611cec6000830184611cc8565b92915050565b600061ffff82169050919050565b611d0981611cf2565b82525050565b600063ffffffff82169050919050565b611d2881611d0f565b82525050565b60006080820190508181036000830152611d488187611944565b9050611d576020830186611d00565b611d646040830185611d00565b611d716060830184611d1f565b95945050505050565b611d83816118ae565b8114611d8e57600080fd5b50565b600081359050611da081611d7a565b92915050565b60008060408385031215611dbd57611dbc61181f565b5b6000611dcb85828601611a75565b9250506020611ddc85828601611d91565b9150509250929050565b600067ffffffffffffffff821115611e0157611e00611b27565b5b611e0a82611933565b9050602081019050919050565b6000611e2a611e2584611de6565b611b87565b905082815260208101848484011115611e4657611e45611b22565b5b611e51848285611bd3565b509392505050565b600082601f830112611e6e57611e6d611b1d565b5b8135611e7e848260208601611e17565b91505092915050565b60008060008060808587031215611ea157611ea061181f565b5b6000611eaf87828801611a75565b9450506020611ec087828801611a75565b9350506040611ed1878288016119c0565b925050606085013567ffffffffffffffff811115611ef257611ef1611824565b5b611efe87828801611e59565b91505092959194509250565b60008060408385031215611f2157611f2061181f565b5b6000611f2f85828601611a75565b9250506020611f4085828601611a75565b9150509250929050565b7f4e487b7100000000000000000000000000000000000000000000000000000000600052602260045260246000fd5b60006002820490506001821680611f9157607f821691505b60208210811415611fa557611fa4611f4a565b5b50919050565b7f4552433732313a20617070726f76656420717565727920666f72206e6f6e657860008201527f697374656e7420746f6b656e0000000000000000000000000000000000000000602082015250565b6000612007602c836118ef565b915061201282611fab565b604082019050919050565b6000602082019050818103600083015261203681611ffa565b9050919050565b7f4552433732313a20617070726f76616c20746f2063757272656e74206f776e6560008201527f7200000000000000000000000000000000000000000000000000000000000000602082015250565b60006120996021836118ef565b91506120a48261203d565b604082019050919050565b600060208201905081810360008301526120c88161208c565b9050919050565b7f4552433732313a20617070726f76652063616c6c6572206973206e6f74206f7760008201527f6e6572206e6f7220617070726f76656420666f7220616c6c0000000000000000602082015250565b600061212b6038836118ef565b9150612136826120cf565b604082019050919050565b6000602082019050818103600083015261215a8161211e565b9050919050565b7f4552433732313a207472616e736665722063616c6c6572206973206e6f74206f60008201527f776e6572206e6f7220617070726f766564000000000000000000000000000000602082015250565b60006121bd6031836118ef565b91506121c882612161565b604082019050919050565b600060208201905081810360008301526121ec816121b0565b9050919050565b7f4552433732313a206f776e657220717565727920666f72206e6f6e657869737460008201527f656e7420746f6b656e0000000000000000000000000000000000000000000000602082015250565b600061224f6029836118ef565b915061225a826121f3565b604082019050919050565b6000602082019050818103600083015261227e81612242565b9050919050565b600060ff82169050919050565b7f4e487b7100000000000000000000000000000000000000000000000000000000600052601260045260246000fd5b60006122cc82612285565b91506122d783612285565b9250826122e7576122e6612292565b5b828206905092915050565b7f4e487b7100000000000000000000000000000000000000000000000000000000600052601160045260246000fd5b600061232c82612285565b915061233783612285565b92508282101561234a576123496122f2565b5b828203905092915050565b7f4552433732313a2062616c616e636520717565727920666f7220746865207a6560008201527f726f206164647265737300000000000000000000000000000000000000000000602082015250565b60006123b1602a836118ef565b91506123bc82612355565b604082019050919050565b600060208201905081810360008301526123e0816123a4565b9050919050565b7f4552433732314d657461646174613a2055524920717565727920666f72206e6f60008201527f6e6578697374656e7420746f6b656e0000000000000000000000000000000000602082015250565b6000612443602f836118ef565b915061244e826123e7565b604082019050919050565b6000602082019050818103600083015261247281612436565b9050919050565b600081905092915050565b600061248f826118e4565b6124998185612479565b93506124a9818560208601611900565b80840191505092915050565b60006124c18285612484565b91506124cd8284612484565b91508190509392505050565b7f4552433732313a206f70657261746f7220717565727920666f72206e6f6e657860008201527f697374656e7420746f6b656e0000000000000000000000000000000000000000602082015250565b6000612535602c836118ef565b9150612540826124d9565b604082019050919050565b6000602082019050818103600083015261256481612528565b9050919050565b7f4552433732313a207472616e73666572206f6620746f6b656e2074686174206960008201527f73206e6f74206f776e0000000000000000000000000000000000000000000000602082015250565b60006125c76029836118ef565b91506125d28261256b565b604082019050919050565b600060208201905081810360008301526125f6816125ba565b9050919050565b7f4552433732313a207472616e7366657220746f20746865207a65726f2061646460008201527f7265737300000000000000000000000000000000000000000000000000000000602082015250565b60006126596024836118ef565b9150612664826125fd565b604082019050919050565b600060208201905081810360008301526126888161264c565b9050919050565b600061269a8261199f565b91506126a58361199f565b9250828210156126b8576126b76122f2565b5b828203905092915050565b60006126ce8261199f565b91506126d98361199f565b9250827fffffffffffffffffffffffffffffffffffffffffffffffffffffffffffffffff0382111561270e5761270d6122f2565b5b828201905092915050565b60006127258284612484565b915081905092915050565b600061273b8261199f565b91506127468361199f565b92508261275657612755612292565b5b828206905092915050565b7f4552433732313a20617070726f766520746f2063616c6c657200000000000000600082015250565b60006127976019836118ef565b91506127a282612761565b602082019050919050565b600060208201905081810360008301526127c68161278a565b9050919050565b7f4552433732313a207472616e7366657220746f206e6f6e20455243373231526560008201527f63656976657220696d706c656d656e7465720000000000000000000000000000602082015250565b60006128296032836118ef565b9150612834826127cd565b604082019050919050565b600060208201905081810360008301526128588161281c565b9050919050565b600061286a8261199f565b91507fffffffffffffffffffffffffffffffffffffffffffffffffffffffffffffffff82141561289d5761289c6122f2565b5b600182019050919050565b60006128b38261199f565b91506128be8361199f565b9250826128ce576128cd612292565b5b828204905092915050565b7f4e487b7100000000000000000000000000000000000000000000000000000000600052603260045260246000fd5b600081519050919050565b600082825260208201905092915050565b600061292f82612908565b6129398185612913565b9350612949818560208601611900565b61295281611933565b840191505092915050565b60006080820190506129726000830187611a34565b61297f6020830186611a34565b61298c6040830185611cc8565b818103606083015261299e8184612924565b905095945050505050565b6000815190506129b881611855565b92915050565b6000602082840312156129d4576129d361181f565b5b60006129e2848285016129a9565b9150509291505056fea2646970667358221220056d5c02b9510b140d7ef0b27cb9ddc742d9fe60efaf02d00fe45f4534a9dd7a64736f6c63430008090033",
  "linkReferences": {},
  "deployedLinkReferences": {}
}