{
  "_format": "hh-sol-artifact-1",
  "contractName": "PlantGrower",
  "sourceName": "contracts/PlantGrower.sol",
  "abi": [
    {
      "inputs": [],
      "stateMutability": "nonpayable",
      "type": "constructor"
    },
    {
      "anonymous": false,
      "inputs": [
        {
          "indexed": true,
          "internalType": "address",
          "name": "owner",
          "type": "address"
        },
        {
          "indexed": true,
          "internalType": "address",
          "name": "approved",
          "type": "address"
        },
        {
          "indexed": true,
          "internalType": "uint256",
          "name": "tokenId",
          "type": "uint256"
        }
      ],
      "name": "Approval",
      "type": "event"
    },
    {
      "anonymous": false,
      "inputs": [
        {
          "indexed": true,
          "internalType": "address",
          "name": "owner",
          "type": "address"
        },
        {
          "indexed": true,
          "internalType": "address",
          "name": "operator",
          "type": "address"
        },
        {
          "indexed": false,
          "internalType": "bool",
          "name": "approved",
          "type": "bool"
        }
      ],
      "name": "ApprovalForAll",
      "type": "event"
    },
    {
      "anonymous": false,
      "inputs": [
        {
          "indexed": true,
          "internalType": "address",
          "name": "from",
          "type": "address"
        },
        {
          "indexed": true,
          "internalType": "address",
          "name": "to",
          "type": "address"
        },
        {
          "indexed": true,
          "internalType": "uint256",
          "name": "tokenId",
          "type": "uint256"
        }
      ],
      "name": "Transfer",
      "type": "event"
    },
    {
      "inputs": [
        {
          "internalType": "address",
          "name": "to",
          "type": "address"
        },
        {
          "internalType": "uint256",
          "name": "tokenId",
          "type": "uint256"
        }
      ],
      "name": "approve",
      "outputs": [],
      "stateMutability": "nonpayable",
      "type": "function"
    },
    {
      "inputs": [
        {
          "internalType": "address",
          "name": "owner",
          "type": "address"
        }
      ],
      "name": "balanceOf",
      "outputs": [
        {
          "internalType": "uint256",
          "name": "",
          "type": "uint256"
        }
      ],
      "stateMutability": "view",
      "type": "function"
    },
    {
      "inputs": [
        {
          "internalType": "string",
          "name": "_name",
          "type": "string"
        }
      ],
      "name": "createRandomPlant",
      "outputs": [],
      "stateMutability": "nonpayable",
      "type": "function"
    },
    {
      "inputs": [
        {
          "internalType": "uint256",
          "name": "tokenId",
          "type": "uint256"
        }
      ],
      "name": "getApproved",
      "outputs": [
        {
          "internalType": "address",
          "name": "",
          "type": "address"
        }
      ],
      "stateMutability": "view",
      "type": "function"
    },
    {
      "inputs": [],
      "name": "getPlants",
      "outputs": [
        {
          "components": [
            {
              "internalType": "string",
              "name": "name",
              "type": "string"
            },
            {
              "internalType": "uint16",
              "name": "dna",
              "type": "uint16"
            },
            {
              "internalType": "uint16",
              "name": "growSize",
              "type": "uint16"
            },
            {
              "internalType": "uint32",
              "name": "nextGrowTime",
              "type": "uint32"
            }
          ],
          "internalType": "struct PlantGrower.PlantStruct[]",
          "name": "",
          "type": "tuple[]"
        }
      ],
      "stateMutability": "view",
      "type": "function"
    },
    {
      "inputs": [
        {
          "internalType": "address",
          "name": "owner",
          "type": "address"
        },
        {
          "internalType": "address",
          "name": "operator",
          "type": "address"
        }
      ],
      "name": "isApprovedForAll",
      "outputs": [
        {
          "internalType": "bool",
          "name": "",
          "type": "bool"
        }
      ],
      "stateMutability": "view",
      "type": "function"
    },
    {
      "inputs": [],
      "name": "name",
      "outputs": [
        {
          "internalType": "string",
          "name": "",
          "type": "string"
        }
      ],
      "stateMutability": "view",
      "type": "function"
    },
    {
      "inputs": [
        {
          "internalType": "uint256",
          "name": "tokenId",
          "type": "uint256"
        }
      ],
      "name": "ownerOf",
      "outputs": [
        {
          "internalType": "address",
          "name": "",
          "type": "address"
        }
      ],
      "stateMutability": "view",
      "type": "function"
    },
    {
      "inputs": [
        {
          "internalType": "uint256",
          "name": "",
          "type": "uint256"
        }
      ],
      "name": "plantToFarmer",
      "outputs": [
        {
          "internalType": "address",
          "name": "",
          "type": "address"
        }
      ],
      "stateMutability": "view",
      "type": "function"
    },
    {
      "inputs": [
        {
          "internalType": "uint256",
          "name": "",
          "type": "uint256"
        }
      ],
      "name": "plants",
      "outputs": [
        {
          "internalType": "string",
          "name": "name",
          "type": "string"
        },
        {
          "internalType": "uint16",
          "name": "dna",
          "type": "uint16"
        },
        {
          "internalType": "uint16",
          "name": "growSize",
          "type": "uint16"
        },
        {
          "internalType": "uint32",
          "name": "nextGrowTime",
          "type": "uint32"
        }
      ],
      "stateMutability": "view",
      "type": "function"
    },
    {
      "inputs": [
        {
          "internalType": "address",
          "name": "from",
          "type": "address"
        },
        {
          "internalType": "address",
          "name": "to",
          "type": "address"
        },
        {
          "internalType": "uint256",
          "name": "tokenId",
          "type": "uint256"
        }
      ],
      "name": "safeTransferFrom",
      "outputs": [],
      "stateMutability": "nonpayable",
      "type": "function"
    },
    {
      "inputs": [
        {
          "internalType": "address",
          "name": "from",
          "type": "address"
        },
        {
          "internalType": "address",
          "name": "to",
          "type": "address"
        },
        {
          "internalType": "uint256",
          "name": "tokenId",
          "type": "uint256"
        },
        {
          "internalType": "bytes",
          "name": "_data",
          "type": "bytes"
        }
      ],
      "name": "safeTransferFrom",
      "outputs": [],
      "stateMutability": "nonpayable",
      "type": "function"
    },
    {
      "inputs": [
        {
          "internalType": "address",
          "name": "operator",
          "type": "address"
        },
        {
          "internalType": "bool",
          "name": "approved",
          "type": "bool"
        }
      ],
      "name": "setApprovalForAll",
      "outputs": [],
      "stateMutability": "nonpayable",
      "type": "function"
    },
    {
      "inputs": [
        {
          "internalType": "bytes4",
          "name": "interfaceId",
          "type": "bytes4"
        }
      ],
      "name": "supportsInterface",
      "outputs": [
        {
          "internalType": "bool",
          "name": "",
          "type": "bool"
        }
      ],
      "stateMutability": "view",
      "type": "function"
    },
    {
      "inputs": [],
      "name": "symbol",
      "outputs": [
        {
          "internalType": "string",
          "name": "",
          "type": "string"
        }
      ],
      "stateMutability": "view",
      "type": "function"
    },
    {
      "inputs": [
        {
          "internalType": "uint256",
          "name": "tokenId",
          "type": "uint256"
        }
      ],
      "name": "tokenURI",
      "outputs": [
        {
          "internalType": "string",
          "name": "",
          "type": "string"
        }
      ],
      "stateMutability": "view",
      "type": "function"
    },
    {
      "inputs": [
        {
          "internalType": "address",
          "name": "from",
          "type": "address"
        },
        {
          "internalType": "address",
          "name": "to",
          "type": "address"
        },
        {
          "internalType": "uint256",
          "name": "tokenId",
          "type": "uint256"
        }
      ],
      "name": "transferFrom",
      "outputs": [],
      "stateMutability": "nonpayable",
      "type": "function"
    }
  ],
  "bytecode": "0x60806040526008600660006101000a81548160ff021916908360ff160217905550600660009054906101000a900460ff16600a6200003e919062000587565b600755610e106008553480156200005457600080fd5b506040518060400160405280600b81526020017f506c616e7447726f7765720000000000000000000000000000000000000000008152506040518060400160405280600b81526020017f706c616e7447726f7765720000000000000000000000000000000000000000008152508160009080519060200190620000d99291906200033d565b508060019080519060200190620000f29291906200033d565b5050506200013b6040518060400160405280601b81526020017f4c6574277320736565205061756c20416c6c656e2773206361726400000000008152506200014160201b60201c565b6200084b565b600062000154826200018a60201b60201c565b905060648162000165919062000607565b816200017291906200063f565b9050620001868282620001d360201b60201c565b5050565b60008082604051602001620001a09190620006fd565b6040516020818303038152906040528051906020012060001c905060075481620001cb919062000716565b915050919050565b600960405180608001604052808481526020018360ff1661ffff168152602001600161ffff168152602001600854426200020e91906200074e565b63ffffffff16815250908060018154018082558091505060019003906000526020600020906002020160009091909190915060008201518160000190805190602001906200025e9291906200033d565b5060208201518160010160006101000a81548161ffff021916908361ffff16021790555060408201518160010160026101000a81548161ffff021916908361ffff16021790555060608201518160010160046101000a81548163ffffffff021916908363ffffffff160217905550505060006001600980549050620002e49190620007ab565b905033600a600083815260200190815260200160002060006101000a81548173ffffffffffffffffffffffffffffffffffffffff021916908373ffffffffffffffffffffffffffffffffffffffff160217905550505050565b8280546200034b9062000815565b90600052602060002090601f0160209004810192826200036f5760008555620003bb565b82601f106200038a57805160ff1916838001178555620003bb565b82800160010185558215620003bb579182015b82811115620003ba5782518255916020019190600101906200039d565b5b509050620003ca9190620003ce565b5090565b5b80821115620003e9576000816000905550600101620003cf565b5090565b7f4e487b7100000000000000000000000000000000000000000000000000000000600052601160045260246000fd5b60008160011c9050919050565b6000808291508390505b60018511156200047b57808604811115620004535762000452620003ed565b5b6001851615620004635780820291505b808102905062000473856200041c565b945062000433565b94509492505050565b60008262000496576001905062000569565b81620004a6576000905062000569565b8160018114620004bf5760028114620004ca5762000500565b600191505062000569565b60ff841115620004df57620004de620003ed565b5b8360020a915084821115620004f957620004f8620003ed565b5b5062000569565b5060208310610133831016604e8410600b84101617156200053a5782820a905083811115620005345762000533620003ed565b5b62000569565b62000549848484600162000429565b92509050818404811115620005635762000562620003ed565b5b81810290505b9392505050565b6000819050919050565b600060ff82169050919050565b6000620005948262000570565b9150620005a1836200057a565b9250620005d07fffffffffffffffffffffffffffffffffffffffffffffffffffffffffffffffff848462000484565b905092915050565b7f4e487b7100000000000000000000000000000000000000000000000000000000600052601260045260246000fd5b600062000614826200057a565b915062000621836200057a565b925082620006345762000633620005d8565b5b828206905092915050565b60006200064c826200057a565b915062000659836200057a565b9250828210156200066f576200066e620003ed565b5b828203905092915050565b600081519050919050565b600081905092915050565b60005b83811015620006b057808201518184015260208101905062000693565b83811115620006c0576000848401525b50505050565b6000620006d3826200067a565b620006df818562000685565b9350620006f181856020860162000690565b80840191505092915050565b60006200070b8284620006c6565b915081905092915050565b6000620007238262000570565b9150620007308362000570565b925082620007435762000742620005d8565b5b828206905092915050565b60006200075b8262000570565b9150620007688362000570565b9250827fffffffffffffffffffffffffffffffffffffffffffffffffffffffffffffffff03821115620007a0576200079f620003ed565b5b828201905092915050565b6000620007b88262000570565b9150620007c58362000570565b925082821015620007db57620007da620003ed565b5b828203905092915050565b7f4e487b7100000000000000000000000000000000000000000000000000000000600052602260045260246000fd5b600060028204905060018216806200082e57607f821691505b60208210811415620008455762000844620007e6565b5b50919050565b612d50806200085b6000396000f3fe608060405234801561001057600080fd5b506004361061010b5760003560e01c806370a08231116100a2578063b88d4fde11610071578063b88d4fde146102cb578063b90588d4146102e7578063c87b56dd14610317578063d8c6204114610347578063e985e9c5146103655761010b565b806370a082311461022e5780638dd2361c1461025e57806395d89b4114610291578063a22cb465146102af5761010b565b806323b872dd116100de57806323b872dd146101aa57806342842e0e146101c65780636352211e146101e25780636ff7c88d146102125761010b565b806301ffc9a71461011057806306fdde0314610140578063081812fc1461015e578063095ea7b31461018e575b600080fd5b61012a60048036038101906101259190611a01565b610395565b6040516101379190611a49565b60405180910390f35b610148610477565b6040516101559190611afd565b60405180910390f35b61017860048036038101906101739190611b55565b610509565b6040516101859190611bc3565b60405180910390f35b6101a860048036038101906101a39190611c0a565b61058e565b005b6101c460048036038101906101bf9190611c4a565b6106a6565b005b6101e060048036038101906101db9190611c4a565b610706565b005b6101fc60048036038101906101f79190611b55565b610726565b6040516102099190611bc3565b60405180910390f35b61022c60048036038101906102279190611dd2565b6107d8565b005b61024860048036038101906102439190611e1b565b61080d565b6040516102559190611e57565b60405180910390f35b61027860048036038101906102739190611b55565b6108c5565b6040516102889493929190611eae565b60405180910390f35b6102996109b9565b6040516102a69190611afd565b60405180910390f35b6102c960048036038101906102c49190611f26565b610a4b565b005b6102e560048036038101906102e09190612007565b610a61565b005b61030160048036038101906102fc9190611b55565b610ac3565b60405161030e9190611bc3565b60405180910390f35b610331600480360381019061032c9190611b55565b610af6565b60405161033e9190611afd565b60405180910390f35b61034f610b9d565b60405161035c9190612217565b60405180910390f35b61037f600480360381019061037a9190612239565b610cf4565b60405161038c9190611a49565b60405180910390f35b60007f80ac58cd000000000000000000000000000000000000000000000000000000007bffffffffffffffffffffffffffffffffffffffffffffffffffffffff1916827bffffffffffffffffffffffffffffffffffffffffffffffffffffffff1916148061046057507f5b5e139f000000000000000000000000000000000000000000000000000000007bffffffffffffffffffffffffffffffffffffffffffffffffffffffff1916827bffffffffffffffffffffffffffffffffffffffffffffffffffffffff1916145b80610470575061046f82610d88565b5b9050919050565b606060008054610486906122a8565b80601f01602080910402602001604051908101604052809291908181526020018280546104b2906122a8565b80156104ff5780601f106104d4576101008083540402835291602001916104ff565b820191906000526020600020905b8154815290600101906020018083116104e257829003601f168201915b5050505050905090565b600061051482610df2565b610553576040517f08c379a000000000000000000000000000000000000000000000000000000000815260040161054a9061234c565b60405180910390fd5b6004600083815260200190815260200160002060009054906101000a900473ffffffffffffffffffffffffffffffffffffffff169050919050565b600061059982610726565b90508073ffffffffffffffffffffffffffffffffffffffff168373ffffffffffffffffffffffffffffffffffffffff16141561060a576040517f08c379a0000000000000000000000000000000000000000000000000000000008152600401610601906123de565b60405180910390fd5b8073ffffffffffffffffffffffffffffffffffffffff16610629610e5e565b73ffffffffffffffffffffffffffffffffffffffff161480610658575061065781610652610e5e565b610cf4565b5b610697576040517f08c379a000000000000000000000000000000000000000000000000000000000815260040161068e90612470565b60405180910390fd5b6106a18383610e66565b505050565b6106b76106b1610e5e565b82610f1f565b6106f6576040517f08c379a00000000000000000000000000000000000000000000000000000000081526004016106ed90612502565b60405180910390fd5b610701838383610ffd565b505050565b61072183838360405180602001604052806000815250610a61565b505050565b6000806002600084815260200190815260200160002060009054906101000a900473ffffffffffffffffffffffffffffffffffffffff169050600073ffffffffffffffffffffffffffffffffffffffff168173ffffffffffffffffffffffffffffffffffffffff1614156107cf576040517f08c379a00000000000000000000000000000000000000000000000000000000081526004016107c690612594565b60405180910390fd5b80915050919050565b60006107e382611259565b90506064816107f291906125f0565b816107fd9190612650565b9050610809828261129e565b5050565b60008073ffffffffffffffffffffffffffffffffffffffff168273ffffffffffffffffffffffffffffffffffffffff16141561087e576040517f08c379a0000000000000000000000000000000000000000000000000000000008152600401610875906126f6565b60405180910390fd5b600360008373ffffffffffffffffffffffffffffffffffffffff1673ffffffffffffffffffffffffffffffffffffffff168152602001908152602001600020549050919050565b600981815481106108d557600080fd5b90600052602060002090600202016000915090508060000180546108f8906122a8565b80601f0160208091040260200160405190810160405280929190818152602001828054610924906122a8565b80156109715780601f1061094657610100808354040283529160200191610971565b820191906000526020600020905b81548152906001019060200180831161095457829003601f168201915b5050505050908060010160009054906101000a900461ffff16908060010160029054906101000a900461ffff16908060010160049054906101000a900463ffffffff16905084565b6060600180546109c8906122a8565b80601f01602080910402602001604051908101604052809291908181526020018280546109f4906122a8565b8015610a415780601f10610a1657610100808354040283529160200191610a41565b820191906000526020600020905b815481529060010190602001808311610a2457829003601f168201915b5050505050905090565b610a5d610a56610e5e565b8383611402565b5050565b610a72610a6c610e5e565b83610f1f565b610ab1576040517f08c379a0000000000000000000000000000000000000000000000000000000008152600401610aa890612502565b60405180910390fd5b610abd8484848461156f565b50505050565b600a6020528060005260406000206000915054906101000a900473ffffffffffffffffffffffffffffffffffffffff1681565b6060610b0182610df2565b610b40576040517f08c379a0000000000000000000000000000000000000000000000000000000008152600401610b3790612788565b60405180910390fd5b6000610b4a6115cb565b90506000815111610b6a5760405180602001604052806000815250610b95565b80610b74846115e2565b604051602001610b859291906127e4565b6040516020818303038152906040525b915050919050565b60606009805480602002602001604051908101604052809291908181526020016000905b82821015610ceb5783829060005260206000209060020201604051806080016040529081600082018054610bf4906122a8565b80601f0160208091040260200160405190810160405280929190818152602001828054610c20906122a8565b8015610c6d5780601f10610c4257610100808354040283529160200191610c6d565b820191906000526020600020905b815481529060010190602001808311610c5057829003601f168201915b505050505081526020016001820160009054906101000a900461ffff1661ffff1661ffff1681526020016001820160029054906101000a900461ffff1661ffff1661ffff1681526020016001820160049054906101000a900463ffffffff1663ffffffff1663ffffffff168152505081526020019060010190610bc1565b50505050905090565b6000600560008473ffffffffffffffffffffffffffffffffffffffff1673ffffffffffffffffffffffffffffffffffffffff16815260200190815260200160002060008373ffffffffffffffffffffffffffffffffffffffff1673ffffffffffffffffffffffffffffffffffffffff16815260200190815260200160002060009054906101000a900460ff16905092915050565b60007f01ffc9a7000000000000000000000000000000000000000000000000000000007bffffffffffffffffffffffffffffffffffffffffffffffffffffffff1916827bffffffffffffffffffffffffffffffffffffffffffffffffffffffff1916149050919050565b60008073ffffffffffffffffffffffffffffffffffffffff166002600084815260200190815260200160002060009054906101000a900473ffffffffffffffffffffffffffffffffffffffff1673ffffffffffffffffffffffffffffffffffffffff1614159050919050565b600033905090565b816004600083815260200190815260200160002060006101000a81548173ffffffffffffffffffffffffffffffffffffffff021916908373ffffffffffffffffffffffffffffffffffffffff160217905550808273ffffffffffffffffffffffffffffffffffffffff16610ed983610726565b73ffffffffffffffffffffffffffffffffffffffff167f8c5be1e5ebec7d5bd14f71427d1e84f3dd0314c0f7b2291e5b200ac8c7c3b92560405160405180910390a45050565b6000610f2a82610df2565b610f69576040517f08c379a0000000000000000000000000000000000000000000000000000000008152600401610f609061287a565b60405180910390fd5b6000610f7483610726565b90508073ffffffffffffffffffffffffffffffffffffffff168473ffffffffffffffffffffffffffffffffffffffff161480610fe357508373ffffffffffffffffffffffffffffffffffffffff16610fcb84610509565b73ffffffffffffffffffffffffffffffffffffffff16145b80610ff45750610ff38185610cf4565b5b91505092915050565b8273ffffffffffffffffffffffffffffffffffffffff1661101d82610726565b73ffffffffffffffffffffffffffffffffffffffff1614611073576040517f08c379a000000000000000000000000000000000000000000000000000000000815260040161106a9061290c565b60405180910390fd5b600073ffffffffffffffffffffffffffffffffffffffff168273ffffffffffffffffffffffffffffffffffffffff1614156110e3576040517f08c379a00000000000000000000000000000000000000000000000000000000081526004016110da9061299e565b60405180910390fd5b6110ee838383611743565b6110f9600082610e66565b6001600360008573ffffffffffffffffffffffffffffffffffffffff1673ffffffffffffffffffffffffffffffffffffffff168152602001908152602001600020600082825461114991906129be565b925050819055506001600360008473ffffffffffffffffffffffffffffffffffffffff1673ffffffffffffffffffffffffffffffffffffffff16815260200190815260200160002060008282546111a091906129f2565b92505081905550816002600083815260200190815260200160002060006101000a81548173ffffffffffffffffffffffffffffffffffffffff021916908373ffffffffffffffffffffffffffffffffffffffff160217905550808273ffffffffffffffffffffffffffffffffffffffff168473ffffffffffffffffffffffffffffffffffffffff167fddf252ad1be2c89b69c2b068fc378daa952ba7f163c4a11628f55a4df523b3ef60405160405180910390a4505050565b6000808260405160200161126d9190612a48565b6040516020818303038152906040528051906020012060001c9050600754816112969190612a5f565b915050919050565b600960405180608001604052808481526020018360ff1661ffff168152602001600161ffff168152602001600854426112d791906129f2565b63ffffffff16815250908060018154018082558091505060019003906000526020600020906002020160009091909190915060008201518160000190805190602001906113259291906118f2565b5060208201518160010160006101000a81548161ffff021916908361ffff16021790555060408201518160010160026101000a81548161ffff021916908361ffff16021790555060608201518160010160046101000a81548163ffffffff021916908363ffffffff1602179055505050600060016009805490506113a991906129be565b905033600a600083815260200190815260200160002060006101000a81548173ffffffffffffffffffffffffffffffffffffffff021916908373ffffffffffffffffffffffffffffffffffffffff160217905550505050565b8173ffffffffffffffffffffffffffffffffffffffff168373ffffffffffffffffffffffffffffffffffffffff161415611471576040517f08c379a000000000000000000000000000000000000000000000000000000000815260040161146890612adc565b60405180910390fd5b80600560008573ffffffffffffffffffffffffffffffffffffffff1673ffffffffffffffffffffffffffffffffffffffff16815260200190815260200160002060008473ffffffffffffffffffffffffffffffffffffffff1673ffffffffffffffffffffffffffffffffffffffff16815260200190815260200160002060006101000a81548160ff0219169083151502179055508173ffffffffffffffffffffffffffffffffffffffff168373ffffffffffffffffffffffffffffffffffffffff167f17307eab39ab6107e8899845ad3d59bd9653f200f220920489ca2b5937696c31836040516115629190611a49565b60405180910390a3505050565b61157a848484610ffd565b61158684848484611748565b6115c5576040517f08c379a00000000000000000000000000000000000000000000000000000000081526004016115bc90612b6e565b60405180910390fd5b50505050565b606060405180602001604052806000815250905090565b6060600082141561162a576040518060400160405280600181526020017f3000000000000000000000000000000000000000000000000000000000000000815250905061173e565b600082905060005b6000821461165c57808061164590612b8e565b915050600a826116559190612bd7565b9150611632565b60008167ffffffffffffffff81111561167857611677611ca7565b5b6040519080825280601f01601f1916602001820160405280156116aa5781602001600182028036833780820191505090505b5090505b60008514611737576001826116c391906129be565b9150600a856116d29190612a5f565b60306116de91906129f2565b60f81b8183815181106116f4576116f3612c08565b5b60200101907effffffffffffffffffffffffffffffffffffffffffffffffffffffffffffff1916908160001a905350600a856117309190612bd7565b94506116ae565b8093505050505b919050565b505050565b60006117698473ffffffffffffffffffffffffffffffffffffffff166118df565b156118d2578373ffffffffffffffffffffffffffffffffffffffff1663150b7a02611792610e5e565b8786866040518563ffffffff1660e01b81526004016117b49493929190612c8c565b602060405180830381600087803b1580156117ce57600080fd5b505af19250505080156117ff57506040513d601f19601f820116820180604052508101906117fc9190612ced565b60015b611882573d806000811461182f576040519150601f19603f3d011682016040523d82523d6000602084013e611834565b606091505b5060008151141561187a576040517f08c379a000000000000000000000000000000000000000000000000000000000815260040161187190612b6e565b60405180910390fd5b805181602001fd5b63150b7a0260e01b7bffffffffffffffffffffffffffffffffffffffffffffffffffffffff1916817bffffffffffffffffffffffffffffffffffffffffffffffffffffffff1916149150506118d7565b600190505b949350505050565b600080823b905060008111915050919050565b8280546118fe906122a8565b90600052602060002090601f0160209004810192826119205760008555611967565b82601f1061193957805160ff1916838001178555611967565b82800160010185558215611967579182015b8281111561196657825182559160200191906001019061194b565b5b5090506119749190611978565b5090565b5b80821115611991576000816000905550600101611979565b5090565b6000604051905090565b600080fd5b600080fd5b60007fffffffff0000000000000000000000000000000000000000000000000000000082169050919050565b6119de816119a9565b81146119e957600080fd5b50565b6000813590506119fb816119d5565b92915050565b600060208284031215611a1757611a1661199f565b5b6000611a25848285016119ec565b91505092915050565b60008115159050919050565b611a4381611a2e565b82525050565b6000602082019050611a5e6000830184611a3a565b92915050565b600081519050919050565b600082825260208201905092915050565b60005b83811015611a9e578082015181840152602081019050611a83565b83811115611aad576000848401525b50505050565b6000601f19601f8301169050919050565b6000611acf82611a64565b611ad98185611a6f565b9350611ae9818560208601611a80565b611af281611ab3565b840191505092915050565b60006020820190508181036000830152611b178184611ac4565b905092915050565b6000819050919050565b611b3281611b1f565b8114611b3d57600080fd5b50565b600081359050611b4f81611b29565b92915050565b600060208284031215611b6b57611b6a61199f565b5b6000611b7984828501611b40565b91505092915050565b600073ffffffffffffffffffffffffffffffffffffffff82169050919050565b6000611bad82611b82565b9050919050565b611bbd81611ba2565b82525050565b6000602082019050611bd86000830184611bb4565b92915050565b611be781611ba2565b8114611bf257600080fd5b50565b600081359050611c0481611bde565b92915050565b60008060408385031215611c2157611c2061199f565b5b6000611c2f85828601611bf5565b9250506020611c4085828601611b40565b9150509250929050565b600080600060608486031215611c6357611c6261199f565b5b6000611c7186828701611bf5565b9350506020611c8286828701611bf5565b9250506040611c9386828701611b40565b9150509250925092565b600080fd5b600080fd5b7f4e487b7100000000000000000000000000000000000000000000000000000000600052604160045260246000fd5b611cdf82611ab3565b810181811067ffffffffffffffff82111715611cfe57611cfd611ca7565b5b80604052505050565b6000611d11611995565b9050611d1d8282611cd6565b919050565b600067ffffffffffffffff821115611d3d57611d3c611ca7565b5b611d4682611ab3565b9050602081019050919050565b82818337600083830152505050565b6000611d75611d7084611d22565b611d07565b905082815260208101848484011115611d9157611d90611ca2565b5b611d9c848285611d53565b509392505050565b600082601f830112611db957611db8611c9d565b5b8135611dc9848260208601611d62565b91505092915050565b600060208284031215611de857611de761199f565b5b600082013567ffffffffffffffff811115611e0657611e056119a4565b5b611e1284828501611da4565b91505092915050565b600060208284031215611e3157611e3061199f565b5b6000611e3f84828501611bf5565b91505092915050565b611e5181611b1f565b82525050565b6000602082019050611e6c6000830184611e48565b92915050565b600061ffff82169050919050565b611e8981611e72565b82525050565b600063ffffffff82169050919050565b611ea881611e8f565b82525050565b60006080820190508181036000830152611ec88187611ac4565b9050611ed76020830186611e80565b611ee46040830185611e80565b611ef16060830184611e9f565b95945050505050565b611f0381611a2e565b8114611f0e57600080fd5b50565b600081359050611f2081611efa565b92915050565b60008060408385031215611f3d57611f3c61199f565b5b6000611f4b85828601611bf5565b9250506020611f5c85828601611f11565b9150509250929050565b600067ffffffffffffffff821115611f8157611f80611ca7565b5b611f8a82611ab3565b9050602081019050919050565b6000611faa611fa584611f66565b611d07565b905082815260208101848484011115611fc657611fc5611ca2565b5b611fd1848285611d53565b509392505050565b600082601f830112611fee57611fed611c9d565b5b8135611ffe848260208601611f97565b91505092915050565b600080600080608085870312156120215761202061199f565b5b600061202f87828801611bf5565b945050602061204087828801611bf5565b935050604061205187828801611b40565b925050606085013567ffffffffffffffff811115612072576120716119a4565b5b61207e87828801611fd9565b91505092959194509250565b600081519050919050565b600082825260208201905092915050565b6000819050602082019050919050565b600082825260208201905092915050565b60006120d282611a64565b6120dc81856120b6565b93506120ec818560208601611a80565b6120f581611ab3565b840191505092915050565b61210981611e72565b82525050565b61211881611e8f565b82525050565b6000608083016000830151848203600086015261213b82826120c7565b91505060208301516121506020860182612100565b5060408301516121636040860182612100565b506060830151612176606086018261210f565b508091505092915050565b600061218d838361211e565b905092915050565b6000602082019050919050565b60006121ad8261208a565b6121b78185612095565b9350836020820285016121c9856120a6565b8060005b8581101561220557848403895281516121e68582612181565b94506121f183612195565b925060208a019950506001810190506121cd565b50829750879550505050505092915050565b6000602082019050818103600083015261223181846121a2565b905092915050565b600080604083850312156122505761224f61199f565b5b600061225e85828601611bf5565b925050602061226f85828601611bf5565b9150509250929050565b7f4e487b7100000000000000000000000000000000000000000000000000000000600052602260045260246000fd5b600060028204905060018216806122c057607f821691505b602082108114156122d4576122d3612279565b5b50919050565b7f4552433732313a20617070726f76656420717565727920666f72206e6f6e657860008201527f697374656e7420746f6b656e0000000000000000000000000000000000000000602082015250565b6000612336602c83611a6f565b9150612341826122da565b604082019050919050565b6000602082019050818103600083015261236581612329565b9050919050565b7f4552433732313a20617070726f76616c20746f2063757272656e74206f776e6560008201527f7200000000000000000000000000000000000000000000000000000000000000602082015250565b60006123c8602183611a6f565b91506123d38261236c565b604082019050919050565b600060208201905081810360008301526123f7816123bb565b9050919050565b7f4552433732313a20617070726f76652063616c6c6572206973206e6f74206f7760008201527f6e6572206e6f7220617070726f76656420666f7220616c6c0000000000000000602082015250565b600061245a603883611a6f565b9150612465826123fe565b604082019050919050565b600060208201905081810360008301526124898161244d565b9050919050565b7f4552433732313a207472616e736665722063616c6c6572206973206e6f74206f60008201527f776e6572206e6f7220617070726f766564000000000000000000000000000000602082015250565b60006124ec603183611a6f565b91506124f782612490565b604082019050919050565b6000602082019050818103600083015261251b816124df565b9050919050565b7f4552433732313a206f776e657220717565727920666f72206e6f6e657869737460008201527f656e7420746f6b656e0000000000000000000000000000000000000000000000602082015250565b600061257e602983611a6f565b915061258982612522565b604082019050919050565b600060208201905081810360008301526125ad81612571565b9050919050565b600060ff82169050919050565b7f4e487b7100000000000000000000000000000000000000000000000000000000600052601260045260246000fd5b60006125fb826125b4565b9150612606836125b4565b925082612616576126156125c1565b5b828206905092915050565b7f4e487b7100000000000000000000000000000000000000000000000000000000600052601160045260246000fd5b600061265b826125b4565b9150612666836125b4565b92508282101561267957612678612621565b5b828203905092915050565b7f4552433732313a2062616c616e636520717565727920666f7220746865207a6560008201527f726f206164647265737300000000000000000000000000000000000000000000602082015250565b60006126e0602a83611a6f565b91506126eb82612684565b604082019050919050565b6000602082019050818103600083015261270f816126d3565b9050919050565b7f4552433732314d657461646174613a2055524920717565727920666f72206e6f60008201527f6e6578697374656e7420746f6b656e0000000000000000000000000000000000602082015250565b6000612772602f83611a6f565b915061277d82612716565b604082019050919050565b600060208201905081810360008301526127a181612765565b9050919050565b600081905092915050565b60006127be82611a64565b6127c881856127a8565b93506127d8818560208601611a80565b80840191505092915050565b60006127f082856127b3565b91506127fc82846127b3565b91508190509392505050565b7f4552433732313a206f70657261746f7220717565727920666f72206e6f6e657860008201527f697374656e7420746f6b656e0000000000000000000000000000000000000000602082015250565b6000612864602c83611a6f565b915061286f82612808565b604082019050919050565b6000602082019050818103600083015261289381612857565b9050919050565b7f4552433732313a207472616e73666572206f6620746f6b656e2074686174206960008201527f73206e6f74206f776e0000000000000000000000000000000000000000000000602082015250565b60006128f6602983611a6f565b91506129018261289a565b604082019050919050565b60006020820190508181036000830152612925816128e9565b9050919050565b7f4552433732313a207472616e7366657220746f20746865207a65726f2061646460008201527f7265737300000000000000000000000000000000000000000000000000000000602082015250565b6000612988602483611a6f565b91506129938261292c565b604082019050919050565b600060208201905081810360008301526129b78161297b565b9050919050565b60006129c982611b1f565b91506129d483611b1f565b9250828210156129e7576129e6612621565b5b828203905092915050565b60006129fd82611b1f565b9150612a0883611b1f565b9250827fffffffffffffffffffffffffffffffffffffffffffffffffffffffffffffffff03821115612a3d57612a3c612621565b5b828201905092915050565b6000612a5482846127b3565b915081905092915050565b6000612a6a82611b1f565b9150612a7583611b1f565b925082612a8557612a846125c1565b5b828206905092915050565b7f4552433732313a20617070726f766520746f2063616c6c657200000000000000600082015250565b6000612ac6601983611a6f565b9150612ad182612a90565b602082019050919050565b60006020820190508181036000830152612af581612ab9565b9050919050565b7f4552433732313a207472616e7366657220746f206e6f6e20455243373231526560008201527f63656976657220696d706c656d656e7465720000000000000000000000000000602082015250565b6000612b58603283611a6f565b9150612b6382612afc565b604082019050919050565b60006020820190508181036000830152612b8781612b4b565b9050919050565b6000612b9982611b1f565b91507fffffffffffffffffffffffffffffffffffffffffffffffffffffffffffffffff821415612bcc57612bcb612621565b5b600182019050919050565b6000612be282611b1f565b9150612bed83611b1f565b925082612bfd57612bfc6125c1565b5b828204905092915050565b7f4e487b7100000000000000000000000000000000000000000000000000000000600052603260045260246000fd5b600081519050919050565b600082825260208201905092915050565b6000612c5e82612c37565b612c688185612c42565b9350612c78818560208601611a80565b612c8181611ab3565b840191505092915050565b6000608082019050612ca16000830187611bb4565b612cae6020830186611bb4565b612cbb6040830185611e48565b8181036060830152612ccd8184612c53565b905095945050505050565b600081519050612ce7816119d5565b92915050565b600060208284031215612d0357612d0261199f565b5b6000612d1184828501612cd8565b9150509291505056fea2646970667358221220b638755d931d772126d28a1c52a79bb5ce1f92139182aca4b829eb02206cb5b164736f6c63430008090033",
  "linkReferences": {},
  "deployedLinkReferences": {}
}