{
  "_format": "hh-sol-artifact-1",
  "contractName": "PlantGrower",
  "sourceName": "contracts/PlantGrower.sol",
  "abi": [
    {
      "anonymous": false,
      "inputs": [
        {
          "indexed": true,
          "internalType": "address",
          "name": "owner",
          "type": "address"
        },
        {
          "indexed": true,
          "internalType": "address",
          "name": "approved",
          "type": "address"
        },
        {
          "indexed": true,
          "internalType": "uint256",
          "name": "tokenId",
          "type": "uint256"
        }
      ],
      "name": "Approval",
      "type": "event"
    },
    {
      "anonymous": false,
      "inputs": [
        {
          "indexed": true,
          "internalType": "address",
          "name": "owner",
          "type": "address"
        },
        {
          "indexed": true,
          "internalType": "address",
          "name": "operator",
          "type": "address"
        },
        {
          "indexed": false,
          "internalType": "bool",
          "name": "approved",
          "type": "bool"
        }
      ],
      "name": "ApprovalForAll",
      "type": "event"
    },
    {
      "anonymous": false,
      "inputs": [
        {
          "indexed": false,
          "internalType": "string",
          "name": "name",
          "type": "string"
        },
        {
          "indexed": false,
          "internalType": "address",
          "name": "farmer",
          "type": "address"
        },
        {
          "indexed": false,
          "internalType": "uint256",
          "name": "dna",
          "type": "uint256"
        }
      ],
      "name": "NewPlant",
      "type": "event"
    },
    {
      "anonymous": false,
      "inputs": [
        {
          "indexed": true,
          "internalType": "address",
          "name": "from",
          "type": "address"
        },
        {
          "indexed": true,
          "internalType": "address",
          "name": "to",
          "type": "address"
        },
        {
          "indexed": true,
          "internalType": "uint256",
          "name": "tokenId",
          "type": "uint256"
        }
      ],
      "name": "Transfer",
      "type": "event"
    },
    {
      "inputs": [
        {
          "internalType": "address",
          "name": "to",
          "type": "address"
        },
        {
          "internalType": "uint256",
          "name": "tokenId",
          "type": "uint256"
        }
      ],
      "name": "approve",
      "outputs": [],
      "stateMutability": "nonpayable",
      "type": "function"
    },
    {
      "inputs": [
        {
          "internalType": "address",
          "name": "owner",
          "type": "address"
        }
      ],
      "name": "balanceOf",
      "outputs": [
        {
          "internalType": "uint256",
          "name": "",
          "type": "uint256"
        }
      ],
      "stateMutability": "view",
      "type": "function"
    },
    {
      "inputs": [
        {
          "internalType": "string",
          "name": "_name",
          "type": "string"
        }
      ],
      "name": "createRandomPlant",
      "outputs": [],
      "stateMutability": "nonpayable",
      "type": "function"
    },
    {
      "inputs": [
        {
          "internalType": "uint256",
          "name": "tokenId",
          "type": "uint256"
        }
      ],
      "name": "getApproved",
      "outputs": [
        {
          "internalType": "address",
          "name": "",
          "type": "address"
        }
      ],
      "stateMutability": "view",
      "type": "function"
    },
    {
      "inputs": [],
      "name": "getPlants",
      "outputs": [
        {
          "components": [
            {
              "internalType": "string",
              "name": "name",
              "type": "string"
            },
            {
              "internalType": "address",
              "name": "farmer",
              "type": "address"
            },
            {
              "internalType": "uint16",
              "name": "dna",
              "type": "uint16"
            },
            {
              "internalType": "uint16",
              "name": "size",
              "type": "uint16"
            },
            {
              "internalType": "uint32",
              "name": "nextGrowTime",
              "type": "uint32"
            }
          ],
          "internalType": "struct CryptoPlants.PlantStruct[]",
          "name": "",
          "type": "tuple[]"
        }
      ],
      "stateMutability": "view",
      "type": "function"
    },
    {
      "inputs": [
        {
          "internalType": "address",
          "name": "",
          "type": "address"
        }
      ],
      "name": "hasPlant",
      "outputs": [
        {
          "internalType": "bool",
          "name": "",
          "type": "bool"
        }
      ],
      "stateMutability": "view",
      "type": "function"
    },
    {
      "inputs": [
        {
          "internalType": "address",
          "name": "owner",
          "type": "address"
        },
        {
          "internalType": "address",
          "name": "operator",
          "type": "address"
        }
      ],
      "name": "isApprovedForAll",
      "outputs": [
        {
          "internalType": "bool",
          "name": "",
          "type": "bool"
        }
      ],
      "stateMutability": "view",
      "type": "function"
    },
    {
      "inputs": [],
      "name": "name",
      "outputs": [
        {
          "internalType": "string",
          "name": "",
          "type": "string"
        }
      ],
      "stateMutability": "view",
      "type": "function"
    },
    {
      "inputs": [
        {
          "internalType": "uint256",
          "name": "tokenId",
          "type": "uint256"
        }
      ],
      "name": "ownerOf",
      "outputs": [
        {
          "internalType": "address",
          "name": "",
          "type": "address"
        }
      ],
      "stateMutability": "view",
      "type": "function"
    },
    {
      "inputs": [
        {
          "internalType": "uint256",
          "name": "",
          "type": "uint256"
        }
      ],
      "name": "plantToFarmer",
      "outputs": [
        {
          "internalType": "address",
          "name": "",
          "type": "address"
        }
      ],
      "stateMutability": "view",
      "type": "function"
    },
    {
      "inputs": [
        {
          "internalType": "uint256",
          "name": "",
          "type": "uint256"
        }
      ],
      "name": "plants",
      "outputs": [
        {
          "internalType": "string",
          "name": "name",
          "type": "string"
        },
        {
          "internalType": "address",
          "name": "farmer",
          "type": "address"
        },
        {
          "internalType": "uint16",
          "name": "dna",
          "type": "uint16"
        },
        {
          "internalType": "uint16",
          "name": "size",
          "type": "uint16"
        },
        {
          "internalType": "uint32",
          "name": "nextGrowTime",
          "type": "uint32"
        }
      ],
      "stateMutability": "view",
      "type": "function"
    },
    {
      "inputs": [
        {
          "internalType": "address",
          "name": "from",
          "type": "address"
        },
        {
          "internalType": "address",
          "name": "to",
          "type": "address"
        },
        {
          "internalType": "uint256",
          "name": "tokenId",
          "type": "uint256"
        }
      ],
      "name": "safeTransferFrom",
      "outputs": [],
      "stateMutability": "nonpayable",
      "type": "function"
    },
    {
      "inputs": [
        {
          "internalType": "address",
          "name": "from",
          "type": "address"
        },
        {
          "internalType": "address",
          "name": "to",
          "type": "address"
        },
        {
          "internalType": "uint256",
          "name": "tokenId",
          "type": "uint256"
        },
        {
          "internalType": "bytes",
          "name": "_data",
          "type": "bytes"
        }
      ],
      "name": "safeTransferFrom",
      "outputs": [],
      "stateMutability": "nonpayable",
      "type": "function"
    },
    {
      "inputs": [
        {
          "internalType": "address",
          "name": "operator",
          "type": "address"
        },
        {
          "internalType": "bool",
          "name": "approved",
          "type": "bool"
        }
      ],
      "name": "setApprovalForAll",
      "outputs": [],
      "stateMutability": "nonpayable",
      "type": "function"
    },
    {
      "inputs": [
        {
          "internalType": "bytes4",
          "name": "interfaceId",
          "type": "bytes4"
        }
      ],
      "name": "supportsInterface",
      "outputs": [
        {
          "internalType": "bool",
          "name": "",
          "type": "bool"
        }
      ],
      "stateMutability": "view",
      "type": "function"
    },
    {
      "inputs": [],
      "name": "symbol",
      "outputs": [
        {
          "internalType": "string",
          "name": "",
          "type": "string"
        }
      ],
      "stateMutability": "view",
      "type": "function"
    },
    {
      "inputs": [
        {
          "internalType": "uint256",
          "name": "tokenId",
          "type": "uint256"
        }
      ],
      "name": "tokenURI",
      "outputs": [
        {
          "internalType": "string",
          "name": "",
          "type": "string"
        }
      ],
      "stateMutability": "view",
      "type": "function"
    },
    {
      "inputs": [
        {
          "internalType": "address",
          "name": "from",
          "type": "address"
        },
        {
          "internalType": "address",
          "name": "to",
          "type": "address"
        },
        {
          "internalType": "uint256",
          "name": "tokenId",
          "type": "uint256"
        }
      ],
      "name": "transferFrom",
      "outputs": [],
      "stateMutability": "nonpayable",
      "type": "function"
    },
    {
      "inputs": [
        {
          "internalType": "uint256",
          "name": "_plantId",
          "type": "uint256"
        }
      ],
      "name": "waterPlant",
      "outputs": [],
      "stateMutability": "nonpayable",
      "type": "function"
    }
  ],
  "bytecode": "0x60806040526010600660006101000a81548160ff021916908360ff160217905550600660009054906101000a900460ff16600a6200003e91906200061b565b600755610e106008553480156200005457600080fd5b506040518060400160405280600c81526020017f43727970746f506c616e747300000000000000000000000000000000000000008152506040518060400160405280600c81526020017f43727970746f506c616e747300000000000000000000000000000000000000008152508160009080519060200190620000d9929190620003d1565b508060019080519060200190620000f2929190620003d1565b5050506200013b6040518060400160405280601b81526020017f4c6574277320736565205061756c20416c6c656e2773206361726400000000008152506200014160201b60201c565b620009e1565b60011515600a60003373ffffffffffffffffffffffffffffffffffffffff1673ffffffffffffffffffffffffffffffffffffffff16815260200190815260200160002060009054906101000a900460ff1615151415620001a057600080fd5b6000620001b382620001ec60201b60201c565b60ff169050606481620001c79190620006a9565b81620001d49190620006e1565b9050620001e882826200023560201b60201c565b5050565b600080826040516020016200020291906200079f565b6040516020818303038152906040528051906020012060001c9050600754816200022d9190620007b8565b915050919050565b60096040518060a001604052808481526020013373ffffffffffffffffffffffffffffffffffffffff1681526020018361ffff168152602001600161ffff16815260200160085442620002899190620007f0565b63ffffffff1681525090806001815401808255809150506001900390600052602060002090600202016000909190919091506000820151816000019080519060200190620002d9929190620003d1565b5060208201518160010160006101000a81548173ffffffffffffffffffffffffffffffffffffffff021916908373ffffffffffffffffffffffffffffffffffffffff16021790555060408201518160010160146101000a81548161ffff021916908361ffff16021790555060608201518160010160166101000a81548161ffff021916908361ffff16021790555060808201518160010160186101000a81548163ffffffff021916908363ffffffff16021790555050507f310f3f25b129830ccb19e5855f5de239631fa808ce5f89ab57026c19822540cc823383604051620003c59392919062000938565b60405180910390a15050565b828054620003df90620009ab565b90600052602060002090601f0160209004810192826200040357600085556200044f565b82601f106200041e57805160ff19168380011785556200044f565b828001600101855582156200044f579182015b828111156200044e57825182559160200191906001019062000431565b5b5090506200045e919062000462565b5090565b5b808211156200047d57600081600090555060010162000463565b5090565b7f4e487b7100000000000000000000000000000000000000000000000000000000600052601160045260246000fd5b60008160011c9050919050565b6000808291508390505b60018511156200050f57808604811115620004e757620004e662000481565b5b6001851615620004f75780820291505b80810290506200050785620004b0565b9450620004c7565b94509492505050565b6000826200052a5760019050620005fd565b816200053a5760009050620005fd565b81600181146200055357600281146200055e5762000594565b6001915050620005fd565b60ff84111562000573576200057262000481565b5b8360020a9150848211156200058d576200058c62000481565b5b50620005fd565b5060208310610133831016604e8410600b8410161715620005ce5782820a905083811115620005c857620005c762000481565b5b620005fd565b620005dd8484846001620004bd565b92509050818404811115620005f757620005f662000481565b5b81810290505b9392505050565b6000819050919050565b600060ff82169050919050565b6000620006288262000604565b915062000635836200060e565b9250620006647fffffffffffffffffffffffffffffffffffffffffffffffffffffffffffffffff848462000518565b905092915050565b600061ffff82169050919050565b7f4e487b7100000000000000000000000000000000000000000000000000000000600052601260045260246000fd5b6000620006b6826200066c565b9150620006c3836200066c565b925082620006d657620006d56200067a565b5b828206905092915050565b6000620006ee826200066c565b9150620006fb836200066c565b92508282101562000711576200071062000481565b5b828203905092915050565b600081519050919050565b600081905092915050565b60005b838110156200075257808201518184015260208101905062000735565b8381111562000762576000848401525b50505050565b600062000775826200071c565b62000781818562000727565b93506200079381856020860162000732565b80840191505092915050565b6000620007ad828462000768565b915081905092915050565b6000620007c58262000604565b9150620007d28362000604565b925082620007e557620007e46200067a565b5b828206905092915050565b6000620007fd8262000604565b91506200080a8362000604565b9250827fffffffffffffffffffffffffffffffffffffffffffffffffffffffffffffffff0382111562000842576200084162000481565b5b828201905092915050565b600082825260208201905092915050565b6000601f19601f8301169050919050565b60006200087c826200071c565b6200088881856200084d565b93506200089a81856020860162000732565b620008a5816200085e565b840191505092915050565b600073ffffffffffffffffffffffffffffffffffffffff82169050919050565b6000620008dd82620008b0565b9050919050565b620008ef81620008d0565b82525050565b6000819050919050565b6000620009206200091a62000914846200066c565b620008f5565b62000604565b9050919050565b6200093281620008ff565b82525050565b600060608201905081810360008301526200095481866200086f565b9050620009656020830185620008e4565b62000974604083018462000927565b949350505050565b7f4e487b7100000000000000000000000000000000000000000000000000000000600052602260045260246000fd5b60006002820490506001821680620009c457607f821691505b60208210811415620009db57620009da6200097c565b5b50919050565b61310480620009f16000396000f3fe608060405234801561001057600080fd5b50600436106101215760003560e01c806370a08231116100ad578063b88d4fde11610071578063b88d4fde1461032e578063b90588d41461034a578063c87b56dd1461037a578063d8c62041146103aa578063e985e9c5146103c857610121565b806370a08231146102745780638dd2361c146102a457806395d89b41146102d85780639886bcfa146102f6578063a22cb4651461031257610121565b8063095ea7b3116100f4578063095ea7b3146101d457806323b872dd146101f057806342842e0e1461020c5780636352211e146102285780636ff7c88d1461025857610121565b806301ffc9a7146101265780630528417a1461015657806306fdde0314610186578063081812fc146101a4575b600080fd5b610140600480360381019061013b9190611cee565b6103f8565b60405161014d9190611d36565b60405180910390f35b610170600480360381019061016b9190611daf565b6104da565b60405161017d9190611d36565b60405180910390f35b61018e6104fa565b60405161019b9190611e75565b60405180910390f35b6101be60048036038101906101b99190611ecd565b61058c565b6040516101cb9190611f09565b60405180910390f35b6101ee60048036038101906101e99190611f24565b610611565b005b61020a60048036038101906102059190611f64565b610729565b005b61022660048036038101906102219190611f64565b610789565b005b610242600480360381019061023d9190611ecd565b6107a9565b60405161024f9190611f09565b60405180910390f35b610272600480360381019061026d91906120ec565b61085b565b005b61028e60048036038101906102899190611daf565b6108f1565b60405161029b9190612144565b60405180910390f35b6102be60048036038101906102b99190611ecd565b6109a9565b6040516102cf95949392919061219b565b60405180910390f35b6102e0610ac3565b6040516102ed9190611e75565b60405180910390f35b610310600480360381019061030b9190611ecd565b610b55565b005b61032c60048036038101906103279190612221565b610c44565b005b61034860048036038101906103439190612302565b610c5a565b005b610364600480360381019061035f9190611ecd565b610cbc565b6040516103719190611f09565b60405180910390f35b610394600480360381019061038f9190611ecd565b610cef565b6040516103a19190611e75565b60405180910390f35b6103b2610d96565b6040516103bf9190612534565b60405180910390f35b6103e260048036038101906103dd9190612556565b610f55565b6040516103ef9190611d36565b60405180910390f35b60007f80ac58cd000000000000000000000000000000000000000000000000000000007bffffffffffffffffffffffffffffffffffffffffffffffffffffffff1916827bffffffffffffffffffffffffffffffffffffffffffffffffffffffff191614806104c357507f5b5e139f000000000000000000000000000000000000000000000000000000007bffffffffffffffffffffffffffffffffffffffffffffffffffffffff1916827bffffffffffffffffffffffffffffffffffffffffffffffffffffffff1916145b806104d357506104d282610fe9565b5b9050919050565b600a6020528060005260406000206000915054906101000a900460ff1681565b606060008054610509906125c5565b80601f0160208091040260200160405190810160405280929190818152602001828054610535906125c5565b80156105825780601f1061055757610100808354040283529160200191610582565b820191906000526020600020905b81548152906001019060200180831161056557829003601f168201915b5050505050905090565b600061059782611053565b6105d6576040517f08c379a00000000000000000000000000000000000000000000000000000000081526004016105cd90612669565b60405180910390fd5b6004600083815260200190815260200160002060009054906101000a900473ffffffffffffffffffffffffffffffffffffffff169050919050565b600061061c826107a9565b90508073ffffffffffffffffffffffffffffffffffffffff168373ffffffffffffffffffffffffffffffffffffffff16141561068d576040517f08c379a0000000000000000000000000000000000000000000000000000000008152600401610684906126fb565b60405180910390fd5b8073ffffffffffffffffffffffffffffffffffffffff166106ac6110bf565b73ffffffffffffffffffffffffffffffffffffffff1614806106db57506106da816106d56110bf565b610f55565b5b61071a576040517f08c379a00000000000000000000000000000000000000000000000000000000081526004016107119061278d565b60405180910390fd5b61072483836110c7565b505050565b61073a6107346110bf565b82611180565b610779576040517f08c379a00000000000000000000000000000000000000000000000000000000081526004016107709061281f565b60405180910390fd5b61078483838361125e565b505050565b6107a483838360405180602001604052806000815250610c5a565b505050565b6000806002600084815260200190815260200160002060009054906101000a900473ffffffffffffffffffffffffffffffffffffffff169050600073ffffffffffffffffffffffffffffffffffffffff168173ffffffffffffffffffffffffffffffffffffffff161415610852576040517f08c379a0000000000000000000000000000000000000000000000000000000008152600401610849906128b1565b60405180910390fd5b80915050919050565b60011515600a60003373ffffffffffffffffffffffffffffffffffffffff1673ffffffffffffffffffffffffffffffffffffffff16815260200190815260200160002060009054906101000a900460ff16151514156108b957600080fd5b60006108c4826114ba565b60ff1690506064816108d69190612900565b816108e19190612960565b90506108ed82826114ff565b5050565b60008073ffffffffffffffffffffffffffffffffffffffff168273ffffffffffffffffffffffffffffffffffffffff161415610962576040517f08c379a000000000000000000000000000000000000000000000000000000000815260040161095990612a06565b60405180910390fd5b600360008373ffffffffffffffffffffffffffffffffffffffff1673ffffffffffffffffffffffffffffffffffffffff168152602001908152602001600020549050919050565b600981815481106109b957600080fd5b90600052602060002090600202016000915090508060000180546109dc906125c5565b80601f0160208091040260200160405190810160405280929190818152602001828054610a08906125c5565b8015610a555780601f10610a2a57610100808354040283529160200191610a55565b820191906000526020600020905b815481529060010190602001808311610a3857829003601f168201915b5050505050908060010160009054906101000a900473ffffffffffffffffffffffffffffffffffffffff16908060010160149054906101000a900461ffff16908060010160169054906101000a900461ffff16908060010160189054906101000a900463ffffffff16905085565b606060018054610ad2906125c5565b80601f0160208091040260200160405190810160405280929190818152602001828054610afe906125c5565b8015610b4b5780601f10610b2057610100808354040283529160200191610b4b565b820191906000526020600020905b815481529060010190602001808311610b2e57829003601f168201915b5050505050905090565b80600b600082815260200190815260200160002060009054906101000a900473ffffffffffffffffffffffffffffffffffffffff1673ffffffffffffffffffffffffffffffffffffffff163373ffffffffffffffffffffffffffffffffffffffff1614610bc157600080fd5b600060098381548110610bd757610bd6612a26565b5b90600052602060002090600202019050610bf081611695565b610bf957600080fd5b80600101601681819054906101000a900461ffff1680929190610c1b90612a55565b91906101000a81548161ffff021916908361ffff16021790555050610c3f816116bc565b505050565b610c56610c4f6110bf565b83836116ef565b5050565b610c6b610c656110bf565b83611180565b610caa576040517f08c379a0000000000000000000000000000000000000000000000000000000008152600401610ca19061281f565b60405180910390fd5b610cb68484848461185c565b50505050565b600b6020528060005260406000206000915054906101000a900473ffffffffffffffffffffffffffffffffffffffff1681565b6060610cfa82611053565b610d39576040517f08c379a0000000000000000000000000000000000000000000000000000000008152600401610d3090612af2565b60405180910390fd5b6000610d436118b8565b90506000815111610d635760405180602001604052806000815250610d8e565b80610d6d846118cf565b604051602001610d7e929190612b4e565b6040516020818303038152906040525b915050919050565b6060600060098054905011610daa57600080fd5b6009805480602002602001604051908101604052809291908181526020016000905b82821015610f4c57838290600052602060002090600202016040518060a0016040529081600082018054610dff906125c5565b80601f0160208091040260200160405190810160405280929190818152602001828054610e2b906125c5565b8015610e785780601f10610e4d57610100808354040283529160200191610e78565b820191906000526020600020905b815481529060010190602001808311610e5b57829003601f168201915b505050505081526020016001820160009054906101000a900473ffffffffffffffffffffffffffffffffffffffff1673ffffffffffffffffffffffffffffffffffffffff1673ffffffffffffffffffffffffffffffffffffffff1681526020016001820160149054906101000a900461ffff1661ffff1661ffff1681526020016001820160169054906101000a900461ffff1661ffff1661ffff1681526020016001820160189054906101000a900463ffffffff1663ffffffff1663ffffffff168152505081526020019060010190610dcc565b50505050905090565b6000600560008473ffffffffffffffffffffffffffffffffffffffff1673ffffffffffffffffffffffffffffffffffffffff16815260200190815260200160002060008373ffffffffffffffffffffffffffffffffffffffff1673ffffffffffffffffffffffffffffffffffffffff16815260200190815260200160002060009054906101000a900460ff16905092915050565b60007f01ffc9a7000000000000000000000000000000000000000000000000000000007bffffffffffffffffffffffffffffffffffffffffffffffffffffffff1916827bffffffffffffffffffffffffffffffffffffffffffffffffffffffff1916149050919050565b60008073ffffffffffffffffffffffffffffffffffffffff166002600084815260200190815260200160002060009054906101000a900473ffffffffffffffffffffffffffffffffffffffff1673ffffffffffffffffffffffffffffffffffffffff1614159050919050565b600033905090565b816004600083815260200190815260200160002060006101000a81548173ffffffffffffffffffffffffffffffffffffffff021916908373ffffffffffffffffffffffffffffffffffffffff160217905550808273ffffffffffffffffffffffffffffffffffffffff1661113a836107a9565b73ffffffffffffffffffffffffffffffffffffffff167f8c5be1e5ebec7d5bd14f71427d1e84f3dd0314c0f7b2291e5b200ac8c7c3b92560405160405180910390a45050565b600061118b82611053565b6111ca576040517f08c379a00000000000000000000000000000000000000000000000000000000081526004016111c190612be4565b60405180910390fd5b60006111d5836107a9565b90508073ffffffffffffffffffffffffffffffffffffffff168473ffffffffffffffffffffffffffffffffffffffff16148061124457508373ffffffffffffffffffffffffffffffffffffffff1661122c8461058c565b73ffffffffffffffffffffffffffffffffffffffff16145b8061125557506112548185610f55565b5b91505092915050565b8273ffffffffffffffffffffffffffffffffffffffff1661127e826107a9565b73ffffffffffffffffffffffffffffffffffffffff16146112d4576040517f08c379a00000000000000000000000000000000000000000000000000000000081526004016112cb90612c76565b60405180910390fd5b600073ffffffffffffffffffffffffffffffffffffffff168273ffffffffffffffffffffffffffffffffffffffff161415611344576040517f08c379a000000000000000000000000000000000000000000000000000000000815260040161133b90612d08565b60405180910390fd5b61134f838383611a30565b61135a6000826110c7565b6001600360008573ffffffffffffffffffffffffffffffffffffffff1673ffffffffffffffffffffffffffffffffffffffff16815260200190815260200160002060008282546113aa9190612d28565b925050819055506001600360008473ffffffffffffffffffffffffffffffffffffffff1673ffffffffffffffffffffffffffffffffffffffff16815260200190815260200160002060008282546114019190612d5c565b92505081905550816002600083815260200190815260200160002060006101000a81548173ffffffffffffffffffffffffffffffffffffffff021916908373ffffffffffffffffffffffffffffffffffffffff160217905550808273ffffffffffffffffffffffffffffffffffffffff168473ffffffffffffffffffffffffffffffffffffffff167fddf252ad1be2c89b69c2b068fc378daa952ba7f163c4a11628f55a4df523b3ef60405160405180910390a4505050565b600080826040516020016114ce9190612db2565b6040516020818303038152906040528051906020012060001c9050600754816114f79190612dc9565b915050919050565b60096040518060a001604052808481526020013373ffffffffffffffffffffffffffffffffffffffff1681526020018361ffff168152602001600161ffff168152602001600854426115519190612d5c565b63ffffffff168152509080600181540180825580915050600190039060005260206000209060020201600090919091909150600082015181600001908051906020019061159f929190611bdf565b5060208201518160010160006101000a81548173ffffffffffffffffffffffffffffffffffffffff021916908373ffffffffffffffffffffffffffffffffffffffff16021790555060408201518160010160146101000a81548161ffff021916908361ffff16021790555060608201518160010160166101000a81548161ffff021916908361ffff16021790555060808201518160010160186101000a81548163ffffffff021916908363ffffffff16021790555050507f310f3f25b129830ccb19e5855f5de239631fa808ce5f89ab57026c19822540cc82338360405161168993929190612e35565b60405180910390a15050565b6000428260010160189054906101000a900463ffffffff1663ffffffff1611159050919050565b600854426116ca9190612d5c565b8160010160186101000a81548163ffffffff021916908363ffffffff16021790555050565b8173ffffffffffffffffffffffffffffffffffffffff168373ffffffffffffffffffffffffffffffffffffffff16141561175e576040517f08c379a000000000000000000000000000000000000000000000000000000000815260040161175590612ebf565b60405180910390fd5b80600560008573ffffffffffffffffffffffffffffffffffffffff1673ffffffffffffffffffffffffffffffffffffffff16815260200190815260200160002060008473ffffffffffffffffffffffffffffffffffffffff1673ffffffffffffffffffffffffffffffffffffffff16815260200190815260200160002060006101000a81548160ff0219169083151502179055508173ffffffffffffffffffffffffffffffffffffffff168373ffffffffffffffffffffffffffffffffffffffff167f17307eab39ab6107e8899845ad3d59bd9653f200f220920489ca2b5937696c318360405161184f9190611d36565b60405180910390a3505050565b61186784848461125e565b61187384848484611a35565b6118b2576040517f08c379a00000000000000000000000000000000000000000000000000000000081526004016118a990612f51565b60405180910390fd5b50505050565b606060405180602001604052806000815250905090565b60606000821415611917576040518060400160405280600181526020017f30000000000000000000000000000000000000000000000000000000000000008152509050611a2b565b600082905060005b6000821461194957808061193290612f71565b915050600a826119429190612fba565b915061191f565b60008167ffffffffffffffff81111561196557611964611fc1565b5b6040519080825280601f01601f1916602001820160405280156119975781602001600182028036833780820191505090505b5090505b60008514611a24576001826119b09190612d28565b9150600a856119bf9190612dc9565b60306119cb9190612d5c565b60f81b8183815181106119e1576119e0612a26565b5b60200101907effffffffffffffffffffffffffffffffffffffffffffffffffffffffffffff1916908160001a905350600a85611a1d9190612fba565b945061199b565b8093505050505b919050565b505050565b6000611a568473ffffffffffffffffffffffffffffffffffffffff16611bcc565b15611bbf578373ffffffffffffffffffffffffffffffffffffffff1663150b7a02611a7f6110bf565b8786866040518563ffffffff1660e01b8152600401611aa19493929190613040565b602060405180830381600087803b158015611abb57600080fd5b505af1925050508015611aec57506040513d601f19601f82011682018060405250810190611ae991906130a1565b60015b611b6f573d8060008114611b1c576040519150601f19603f3d011682016040523d82523d6000602084013e611b21565b606091505b50600081511415611b67576040517f08c379a0000000000000000000000000000000000000000000000000000000008152600401611b5e90612f51565b60405180910390fd5b805181602001fd5b63150b7a0260e01b7bffffffffffffffffffffffffffffffffffffffffffffffffffffffff1916817bffffffffffffffffffffffffffffffffffffffffffffffffffffffff191614915050611bc4565b600190505b949350505050565b600080823b905060008111915050919050565b828054611beb906125c5565b90600052602060002090601f016020900481019282611c0d5760008555611c54565b82601f10611c2657805160ff1916838001178555611c54565b82800160010185558215611c54579182015b82811115611c53578251825591602001919060010190611c38565b5b509050611c619190611c65565b5090565b5b80821115611c7e576000816000905550600101611c66565b5090565b6000604051905090565b600080fd5b600080fd5b60007fffffffff0000000000000000000000000000000000000000000000000000000082169050919050565b611ccb81611c96565b8114611cd657600080fd5b50565b600081359050611ce881611cc2565b92915050565b600060208284031215611d0457611d03611c8c565b5b6000611d1284828501611cd9565b91505092915050565b60008115159050919050565b611d3081611d1b565b82525050565b6000602082019050611d4b6000830184611d27565b92915050565b600073ffffffffffffffffffffffffffffffffffffffff82169050919050565b6000611d7c82611d51565b9050919050565b611d8c81611d71565b8114611d9757600080fd5b50565b600081359050611da981611d83565b92915050565b600060208284031215611dc557611dc4611c8c565b5b6000611dd384828501611d9a565b91505092915050565b600081519050919050565b600082825260208201905092915050565b60005b83811015611e16578082015181840152602081019050611dfb565b83811115611e25576000848401525b50505050565b6000601f19601f8301169050919050565b6000611e4782611ddc565b611e518185611de7565b9350611e61818560208601611df8565b611e6a81611e2b565b840191505092915050565b60006020820190508181036000830152611e8f8184611e3c565b905092915050565b6000819050919050565b611eaa81611e97565b8114611eb557600080fd5b50565b600081359050611ec781611ea1565b92915050565b600060208284031215611ee357611ee2611c8c565b5b6000611ef184828501611eb8565b91505092915050565b611f0381611d71565b82525050565b6000602082019050611f1e6000830184611efa565b92915050565b60008060408385031215611f3b57611f3a611c8c565b5b6000611f4985828601611d9a565b9250506020611f5a85828601611eb8565b9150509250929050565b600080600060608486031215611f7d57611f7c611c8c565b5b6000611f8b86828701611d9a565b9350506020611f9c86828701611d9a565b9250506040611fad86828701611eb8565b9150509250925092565b600080fd5b600080fd5b7f4e487b7100000000000000000000000000000000000000000000000000000000600052604160045260246000fd5b611ff982611e2b565b810181811067ffffffffffffffff8211171561201857612017611fc1565b5b80604052505050565b600061202b611c82565b90506120378282611ff0565b919050565b600067ffffffffffffffff82111561205757612056611fc1565b5b61206082611e2b565b9050602081019050919050565b82818337600083830152505050565b600061208f61208a8461203c565b612021565b9050828152602081018484840111156120ab576120aa611fbc565b5b6120b684828561206d565b509392505050565b600082601f8301126120d3576120d2611fb7565b5b81356120e384826020860161207c565b91505092915050565b60006020828403121561210257612101611c8c565b5b600082013567ffffffffffffffff8111156121205761211f611c91565b5b61212c848285016120be565b91505092915050565b61213e81611e97565b82525050565b60006020820190506121596000830184612135565b92915050565b600061ffff82169050919050565b6121768161215f565b82525050565b600063ffffffff82169050919050565b6121958161217c565b82525050565b600060a08201905081810360008301526121b58188611e3c565b90506121c46020830187611efa565b6121d1604083018661216d565b6121de606083018561216d565b6121eb608083018461218c565b9695505050505050565b6121fe81611d1b565b811461220957600080fd5b50565b60008135905061221b816121f5565b92915050565b6000806040838503121561223857612237611c8c565b5b600061224685828601611d9a565b92505060206122578582860161220c565b9150509250929050565b600067ffffffffffffffff82111561227c5761227b611fc1565b5b61228582611e2b565b9050602081019050919050565b60006122a56122a084612261565b612021565b9050828152602081018484840111156122c1576122c0611fbc565b5b6122cc84828561206d565b509392505050565b600082601f8301126122e9576122e8611fb7565b5b81356122f9848260208601612292565b91505092915050565b6000806000806080858703121561231c5761231b611c8c565b5b600061232a87828801611d9a565b945050602061233b87828801611d9a565b935050604061234c87828801611eb8565b925050606085013567ffffffffffffffff81111561236d5761236c611c91565b5b612379878288016122d4565b91505092959194509250565b600081519050919050565b600082825260208201905092915050565b6000819050602082019050919050565b600082825260208201905092915050565b60006123cd82611ddc565b6123d781856123b1565b93506123e7818560208601611df8565b6123f081611e2b565b840191505092915050565b61240481611d71565b82525050565b6124138161215f565b82525050565b6124228161217c565b82525050565b600060a083016000830151848203600086015261244582826123c2565b915050602083015161245a60208601826123fb565b50604083015161246d604086018261240a565b506060830151612480606086018261240a565b5060808301516124936080860182612419565b508091505092915050565b60006124aa8383612428565b905092915050565b6000602082019050919050565b60006124ca82612385565b6124d48185612390565b9350836020820285016124e6856123a1565b8060005b858110156125225784840389528151612503858261249e565b945061250e836124b2565b925060208a019950506001810190506124ea565b50829750879550505050505092915050565b6000602082019050818103600083015261254e81846124bf565b905092915050565b6000806040838503121561256d5761256c611c8c565b5b600061257b85828601611d9a565b925050602061258c85828601611d9a565b9150509250929050565b7f4e487b7100000000000000000000000000000000000000000000000000000000600052602260045260246000fd5b600060028204905060018216806125dd57607f821691505b602082108114156125f1576125f0612596565b5b50919050565b7f4552433732313a20617070726f76656420717565727920666f72206e6f6e657860008201527f697374656e7420746f6b656e0000000000000000000000000000000000000000602082015250565b6000612653602c83611de7565b915061265e826125f7565b604082019050919050565b6000602082019050818103600083015261268281612646565b9050919050565b7f4552433732313a20617070726f76616c20746f2063757272656e74206f776e6560008201527f7200000000000000000000000000000000000000000000000000000000000000602082015250565b60006126e5602183611de7565b91506126f082612689565b604082019050919050565b60006020820190508181036000830152612714816126d8565b9050919050565b7f4552433732313a20617070726f76652063616c6c6572206973206e6f74206f7760008201527f6e6572206e6f7220617070726f76656420666f7220616c6c0000000000000000602082015250565b6000612777603883611de7565b91506127828261271b565b604082019050919050565b600060208201905081810360008301526127a68161276a565b9050919050565b7f4552433732313a207472616e736665722063616c6c6572206973206e6f74206f60008201527f776e6572206e6f7220617070726f766564000000000000000000000000000000602082015250565b6000612809603183611de7565b9150612814826127ad565b604082019050919050565b60006020820190508181036000830152612838816127fc565b9050919050565b7f4552433732313a206f776e657220717565727920666f72206e6f6e657869737460008201527f656e7420746f6b656e0000000000000000000000000000000000000000000000602082015250565b600061289b602983611de7565b91506128a68261283f565b604082019050919050565b600060208201905081810360008301526128ca8161288e565b9050919050565b7f4e487b7100000000000000000000000000000000000000000000000000000000600052601260045260246000fd5b600061290b8261215f565b91506129168361215f565b925082612926576129256128d1565b5b828206905092915050565b7f4e487b7100000000000000000000000000000000000000000000000000000000600052601160045260246000fd5b600061296b8261215f565b91506129768361215f565b92508282101561298957612988612931565b5b828203905092915050565b7f4552433732313a2062616c616e636520717565727920666f7220746865207a6560008201527f726f206164647265737300000000000000000000000000000000000000000000602082015250565b60006129f0602a83611de7565b91506129fb82612994565b604082019050919050565b60006020820190508181036000830152612a1f816129e3565b9050919050565b7f4e487b7100000000000000000000000000000000000000000000000000000000600052603260045260246000fd5b6000612a608261215f565b915061ffff821415612a7557612a74612931565b5b600182019050919050565b7f4552433732314d657461646174613a2055524920717565727920666f72206e6f60008201527f6e6578697374656e7420746f6b656e0000000000000000000000000000000000602082015250565b6000612adc602f83611de7565b9150612ae782612a80565b604082019050919050565b60006020820190508181036000830152612b0b81612acf565b9050919050565b600081905092915050565b6000612b2882611ddc565b612b328185612b12565b9350612b42818560208601611df8565b80840191505092915050565b6000612b5a8285612b1d565b9150612b668284612b1d565b91508190509392505050565b7f4552433732313a206f70657261746f7220717565727920666f72206e6f6e657860008201527f697374656e7420746f6b656e0000000000000000000000000000000000000000602082015250565b6000612bce602c83611de7565b9150612bd982612b72565b604082019050919050565b60006020820190508181036000830152612bfd81612bc1565b9050919050565b7f4552433732313a207472616e73666572206f6620746f6b656e2074686174206960008201527f73206e6f74206f776e0000000000000000000000000000000000000000000000602082015250565b6000612c60602983611de7565b9150612c6b82612c04565b604082019050919050565b60006020820190508181036000830152612c8f81612c53565b9050919050565b7f4552433732313a207472616e7366657220746f20746865207a65726f2061646460008201527f7265737300000000000000000000000000000000000000000000000000000000602082015250565b6000612cf2602483611de7565b9150612cfd82612c96565b604082019050919050565b60006020820190508181036000830152612d2181612ce5565b9050919050565b6000612d3382611e97565b9150612d3e83611e97565b925082821015612d5157612d50612931565b5b828203905092915050565b6000612d6782611e97565b9150612d7283611e97565b9250827fffffffffffffffffffffffffffffffffffffffffffffffffffffffffffffffff03821115612da757612da6612931565b5b828201905092915050565b6000612dbe8284612b1d565b915081905092915050565b6000612dd482611e97565b9150612ddf83611e97565b925082612def57612dee6128d1565b5b828206905092915050565b6000819050919050565b6000612e1f612e1a612e158461215f565b612dfa565b611e97565b9050919050565b612e2f81612e04565b82525050565b60006060820190508181036000830152612e4f8186611e3c565b9050612e5e6020830185611efa565b612e6b6040830184612e26565b949350505050565b7f4552433732313a20617070726f766520746f2063616c6c657200000000000000600082015250565b6000612ea9601983611de7565b9150612eb482612e73565b602082019050919050565b60006020820190508181036000830152612ed881612e9c565b9050919050565b7f4552433732313a207472616e7366657220746f206e6f6e20455243373231526560008201527f63656976657220696d706c656d656e7465720000000000000000000000000000602082015250565b6000612f3b603283611de7565b9150612f4682612edf565b604082019050919050565b60006020820190508181036000830152612f6a81612f2e565b9050919050565b6000612f7c82611e97565b91507fffffffffffffffffffffffffffffffffffffffffffffffffffffffffffffffff821415612faf57612fae612931565b5b600182019050919050565b6000612fc582611e97565b9150612fd083611e97565b925082612fe057612fdf6128d1565b5b828204905092915050565b600081519050919050565b600082825260208201905092915050565b600061301282612feb565b61301c8185612ff6565b935061302c818560208601611df8565b61303581611e2b565b840191505092915050565b60006080820190506130556000830187611efa565b6130626020830186611efa565b61306f6040830185612135565b81810360608301526130818184613007565b905095945050505050565b60008151905061309b81611cc2565b92915050565b6000602082840312156130b7576130b6611c8c565b5b60006130c58482850161308c565b9150509291505056fea26469706673582212201dd226bc7cdec6e3cdc88b1479168985bb83cc4129808687dce39f340dee684b64736f6c63430008090033",
  "linkReferences": {},
  "deployedLinkReferences": {}
}